:0E0000000C941A020C943A030C9400000C9419
:10000E0000000C9400000C9400000C9400000C9462
:10001E0000000C9400000C9400000C9400000C9452
:10002E0000000C9400000C9400000C9400000C9442
:10003E0000000C9400000C9400000C9400000C9432
:10004E0000000C940000000000003738394F3435A2
:10005E003644313233434C30524531203A205375B9
:10006E00626D69742053747564656E7420436F6499
:10007E0065002020202070726573732063616E63AB
:10008E00656C20746F206261636B00456E746572DF
:10009E0020796F75722073747564656E7420636F4A
:1000AE0064653A004E756D626572206F66207374DA
:1000BE007564656E7473203A2000507265737320F8
:1000CE0043616E63656C20546F20476F20426163FD
:1000DE006B005374617274205472616E7366657234
:1000EE0072696E672E2E2E005573617274205472D3
:1000FE00616E736D69742046696E6973686564001C
:10010E00313A205365617263682053747564656E6D
:10011E007400323A2044656C6574652053747564BE
:10012E00656E7400456E7465722053747564656EE9
:10013E007420436F646520466F722053656172634D
:10014E00683A00456E7465722053747564656E74FA
:10015E0020436F646520466F722044656C6574653C
:10016E003A00436C656172696E6720454550524F87
:10017E004D202E2E2E00343000496E636F72726544
:10018E0063742053757564656E7420436F646520C7
:10019E00466F726D617400596F752057696C6C20D3
:1001AE004261636B204D656E7520496E203220537F
:1001BE0065636F6E64004475706C6963617465206D
:1001CE0053757564656E7420436F646520456E7457
:1001DE00657265640053747564656E7420436F6454
:1001EE0065205375636365737366756C6C79204116
:1001FE00646465640053747564656E7420436F6443
:10020E006520466F756E6400596F752057696C6C6A
:10021E00204261636B204D656E7520496E2035203E
:10022E005365636F6E64004F7073202C205374758A
:10023E0064656E7420436F6465204E6F7420466F44
:10024E00756E64005761697420466F722044656C48
:10025E006574652E2E2E0053747564656E7420437E
:10026E006F6465205761732044656C657465640026
:10027E0074656D70657261747572652843293A00F4
:10028E00313A20417474656E64616E636520496E07
:10029E00697469616C697A6174696F6E00323A20B3
:1002AE0053747564656E74204D616E6167656D651E
:1002BE006E7400333A205669657720507265736507
:1002CE006E742053747564656E74732000343A2016
:1002DE0054656D7065726174757265204D6F6E69CF
:1002EE00746F72696E6700353A2052657472696573
:1002FE0076652053747564656E7420446174610074
:10030E00363A2054726166666963204D6F6E697469
:10031E006F72696E670001002D4E414E00494E46C8
:10032E0000000400040054001000EF0558001800EF
:10033E00600268001900780280001900910299008D
:10034E001600AA02B2001800C002C8001600D80299
:10035E00E0001800EE02F600120006030E01120075
:10036E00180320011F002A0332011F004903510107
:10037E0014006803700102007C03C60003007E03B4
:10038E0084011E00810387011F009F03A5011F002A
:10039E00BE03C4011F00DD03A5012000FC03E30121
:1003AE001F001C04A50102003B04C60013003D04FF
:1003BE0003021F00500416021D006F0435021F00B9
:1003CE008C0416020200AB04C6001300AD04030237
:1003DE001300C00452021900D30465021F00EC047E
:1003EE00A5011D000B0535021F002805A5011000F3
:1003FE0047057E0202005705C6001D0059058E02F4
:10040E0016007605AB021A008C05C1021A00A6056D
:10041E00DB021900C005F5021600D9050E03010016
:10042E001F0624030000F894EE27ECBBF1E0FBBF9F
:10043E00EBBFE5BF8DE0A2E0BB27ED938A95E9F710
:10044E0080E098E0A0E6ED930197E9F7E0E3F3E0B2
:10045E0085919591009761F0A591B59105901590B4
:10046E00BF01F00105900D920197E1F7FB01F0CF6E
:10047E00EFE5EDBFE8E0EEBFC0E6D2E00C94470238
:10048E00E0EFE4BBEFEFE5BBE5B3EF70E5BBE2E019
:10049E00E5BFE0E4EBBF8F9A979837D3A3E3B0E0C4
:1004AE0029D47894A1E01DD37CD3042C052811F413
:1004BE00A9D3D7C00E946A0769F40E946F07A0E60D
:1004CE00B2E00E947707A8E7B2E054D30E946A0711
:1004DE00E9F3C7C00E947E0761F40E946F07A1E98D
:1004EE00B2E00E9477070E9483070E947E07E9F31D
:1004FE00B5C00E948B0711F459D3B3C00E94900768
:10050E0009F049C00E946F07AAEAB2E00E9477077D
:10051E00A0E0B0E0D1D35E2F0E949507E52FF0E06A
:10052E00FA93EA93AFEFB5E00E9407070E949F0788
:10053E0000E010E0E52FD801F0E0AE17BF0714F58C
:10054E000E94950720E030E02830E0E03E076CF492
:10055E00F901E150FA4FFF93EF930E94A707AF9175
:10056E00BF91EC932F5F3F4FEFCFAFEFB5E0A20FF0
:10057E00B31FE0E0EC930E946F070E949F070F5F8E
:10058E001F4FD8CF0E946F07A0ECB2E0F3D20E94AB
:10059E009007E9F366C0E5E0F0E0E415F50589F5AE
:1005AE000E946F07A8EDB2E0E5D20E94B0075E2F61
:1005BE0000E010E0E52FD801F0E0AE17BF07C4F45D
:1005CE0020E030E02830E0E03E073CF40E94A70730
:1005DE00AE2F89D32F5F3F4FF5CFADE084D3ADE083
:1005EE0082D3A4EFB1E00E9433080F5F1F4FE2CF1A
:1005FE000E946F07AEEEB2E00E94B4074424552469
:10060E0030C00E94BA0769F40E946F07A6E0B3E0FB
:10061E000E947707A8E1B3E0ADD20E94BA07E9F3D2
:10062E0020C00E94BF0761F40E946F07AAE2B3E0E8
:10063E000E9477070E9483070E94BF07E9F30EC04E
:10064E000E94C40771F40E946F07A9E4B3E00E94F0
:10065E0077070E9483070E94C407E9F3ACE00E946B
:10066E00C90723CFFFCF0A921A92FA926A937A930E
:10067E008A939A93AA93BA93EA93FA93EFB7EA936B
:10068E0022970E946908EFEE0E94D00711F000E059
:10069E0012C0EFED0E94D00711F001E00CC0EFEB9D
:1006AE000E94D00711F002E006C0EFE7E5BBE3B30E
:1006BE00EF701E2F03E01E3011F430E009C01D3024
:1006CE0011F431E005C01B3011F432E001C033E00B
:1006DE00E5B3EF70E5BB042C052809F058C00E9465
:1006EE00D607EC91F0E0F097E130A0E0FA0721F4A4
:1006FE00E1E0F0E02F012EC0E430A0E0FA0721F493
:10070E00E3E0F0E02F0126C0E330A0E0FA0721F489
:10071E00E4E0F0E02F011EC0E530A0E0FA0721F47E
:10072E00E5E0F0E02F0116C0E230A0E0FA0721F478
:10073E00E6E0F0E02F010EC0E930A0E0FA0751F438
:10074E00F8940E946F07A8E6B3E014D29BD2789477
:10075E00442455240E94D607AC91AC3449F4E0E011
:10076E00E71520F4E72DF0E0319701C0E2E07E2E90
:10077E000E94D607AC91A23549F4E72DF0E03196F0
:10078E00DF01E3E0F0E00E945B087E2E99C10E943B
:10079E006A07A9F40E94D607EC91F0E0E334A0E0DA
:1007AE00FA0719F44424552409C0E133A0E0FA07EE
:1007BE0029F40E949507E2E0F0E02F0181C10E942A
:1007CE007E0709F09AC00E94D607EC91F0E0FA97E6
:1007DE007CF40E94E2077F9750F40E94E2070E9489
:1007EE00E6070E94EA070E94EE07AC9186D184C00C
:1007FE000E94D607AC91A43461F40E94E2075E2FEA
:10080E00513030F00E94F307ACE7B3E00E94FD07D1
:10081E0073C00E94D607AC91A53409F065C0F89458
:10082E00EFEFF5E0FA93EA93EEE7F3E0FA93EA934B
:10083E00A2E00E945107E03031F40E94E207E83056
:10084E00A0E0FA0769F0979A0E946F07A1E8B3E05B
:10085E000E947707AFE9B3E00E94B407979840C0B3
:10086E0056D2E13068F0979A0E946F07AEEBB3E074
:10087E000E947707ADEDB3E00E94B407979830C0A1
:10088E000E94B0072E2FE0E0EE83EF83AE81BF8192
:10089E001897ACF4E22F0E940208AE81BF81EA0FD6
:1008AE00FB1FFA93EA93E885F985E150FA4FA08190
:1008BE000FD2EE81FF813196EE83FF83E7CFE0E02A
:1008CE00F0E0FA93EA93A22FAF5F02D20E946F0775
:1008DE00ACEFB3E00E947707ACE1B4E00E94B4073E
:1008EE000E949507789405C00E94D607AC91A33458
:1008FE0019F4E1E0F0E02F01E3C00E948B0741F410
:10090E000E94D607AC91A33411F444245524D8C0C8
:10091E000E94900741F40E94D607AC91A33411F4C3
:10092E0044245524CDC00E94BA07C9F40E94D607AC
:10093E00AC91A33419F44424552410C00E94D60758
:10094E00AC91A13319F4E7E0F0E007C00E94D6079E
:10095E00AC91A23319F4E8E0F0E02F01B1C00E948F
:10096E00BF0709F054C00E94D607EC91F0E0FA9749
:10097E007CF40E94E2077F9750F40E94E2070E94E7
:10098E00E6070E94EA070E94EE07AC91B6D03EC081
:10099E000E94D607AC91A43461F40E94E2075E2F48
:1009AE00513030F00E94F307ABE3B4E00E94FD0734
:1009BE002DC00E94D607AC91A53401F50E94070800
:1009CE0048F00E946F07ADE3B4E00E947707A0E500
:1009DE00B4E008C00E946F07AFE6B4E00E9477074C
:1009EE00ACE8B4E0C7D0A8E8B3E10E9433080E9497
:1009FE009507E6E0F0E02F01219608C00E94D60789
:100A0E00AC91A33419F4E6E0F0E02F0159C00E9436
:100A1E00C40709F055C00E94D607EC91F0E0FA9792
:100A2E007CF40E94E2077F9750F40E94E2070E9436
:100A3E00E6070E94EA070E94EE07AC915ED040C026
:100A4E000E94D607AC91A43461F40E94E2075E2F97
:100A5E00513030F00E94F307ABEAB4E00E94FD077C
:100A6E002FC00E94D607AC91A53451F50E940708FD
:100A7E00A0F00E946F07ADEAB4E00E947707A0ECE9
:100A8E00B4E078D0A8818DD10E946F07A3EDB4E0B9
:100A9E000E947707ACEEB4E008C00E946F07ABE08F
:100AAE00B5E00E947707A8E2B5E064D0A0EDB7E00C
:100ABE000E9433080E949507E6E0F0E02F01219690
:100ACE000E9470082896E991EFBFF991E991B991CA
:100ADE00A9919991899179916991F99019900990BB
:100AEE0018950E940E08C0980E94170880E892E0A0
:100AFE000197F1F70E941E08FBC00E940E08C09AD3
:100B0E000E9417080E941E08F3C0EFEFE7BBC298C1
:100B1E0080E09AEF0197F1F7A3E30E94C907A2E3E1
:100B2E000E94C907A8E20E94C907ACE00E94C9074B
:100B3E00A1E0D7DF80E09AEF0197F1F7A6E00E94DF
:100B4E00C9070895AA932497E0E8E883E0ECE983C7
:100B5E00E4E9EA83E4EDEB83EC81F0E03197DE012A
:100B6E00AE0FBF1FEC91AD81AE0FA1500E94C90711
:100B7E0026960895BA93AA931A9310E0A981BA8182
:100B8E00EE27A10FBE1FEC91E03049F0A981BA818A
:100B9E00EE27A10FBE1FAC91B0DF1F5FEFCF188104
:100BAE00A0C0E0EEE7B9E7E8E6B9089523971A93F7
:100BBE0010E00E946F07A7E4B5E0DCDF0E948B0710
:100BCE00F1F4369A349BFECFE5B11E1799F015B1AC
:100BDE00E12FF0E0FA93EA93DE0113960E940707E5
:100BEE00E1E1EA93A1E0AEDFDE011196C3DFA7E5F6
:100BFE00B5E0C0DFA4EFB1E00E943308DFCF18816B
:100C0E0024960895042C0528E1F50E946F0777209D
:100C1E0081F4A9E5B5E00E947707A6E7B5E0AADF63
:100C2E00772021F400240414050409F001C0F8CF44
:100C3E0027C0E1E0E71589F4ACE8B5E00E9477073C
:100C4E00A6EAB5E097DFE1E0E71521F400240414ED
:100C5E00050409F001C0F7CF13C0E2E0E71581F4F7
:100C6E00A0ECB5E00E947707A9EDB5E083DFE2E0E6
:100C7E00E71521F400240414050409F001C0F7CF90
:100C8E00C1CF08951A930A9300E010E00030E4E01B
:100C9E001E0778F4E199FECFE12FF070E370EFBB01
:100CAE00E02FEEBBE0E0EDBBE29AE19A0F5F1F4F43
:100CBE00EDCF099119910895BA93AA931A93E199D8
:100CCE00FECF0E942C08E09A1DB3E12F188109C0B7
:100CDE00AA93E199FECF0E942C08E881EDBBE29A1F
:100CEE00E19A23960895AA935D9BFECFE881ECB915
:100CFE0021960895BA93AA93E881E9B9E981F07033
:100D0E00E0BDE8E1EAB9E6E0E0BD229608952A9753
:100D1E000E946B080E94B0071E2F00E00117E0F53D
:100D2E00FE013496FA93EA93E0E0EA93AAE0B0E08B
:100D3E000E94350730E03830A8F4E32FF0E0DE01F2
:100D4E001496EA0FFB1FFF93EF93A32FBB27E02F01
:100D5E000E940208AE0FBF1FAFDFAF91BF91EC93A1
:100D6E003F5FE9CFE32FF0E0DE011496AE0FBF1F19
:100D7E00E0E0EC93FE013496FA93EA93EFEFF5E0A0
:100D8E00FA93EA93A8E00E945107E03019F4E02F9D
:100D9E00EF5F03C00F5FC2CFE0E00E9472082E9695
:100DAE000895AA930E946B080E94B0071E2F0C8113
:100DBE001017D8F030E03830B0F4A32FBB27E02F57
:100DCE000E940208AE0FBF1F77DF2E2FA32FBB2767
:100DDE00E8E0E09FF001EA0FFB1FFA93EA93A22FDF
:100DEE0077DF3F5FE8CF0F5FE3CFE0E0F0E0FA930D
:100DFE00EA93A12FA1506CDF0E9472080C94430756
:100E0E00BA93AA93A991B991E991F99130962AF4DE
:100E1E00E095F09531966DE26D93E89480E197E25E
:100E2E000DD088EE93E00AD084E6992707D08AE0A9
:100E3E0005D06E2F10D066276C9308956627E8179D
:100E4E00F90720F06395E81BF90BC9F7662311F437
:100E5E0016F008956894605D6D930895BA93AA9301
:100E6E00B981A881109631F0FC81EB816A81619382
:100E7E001197E9F7EB81FC8125960895BA93AA9311
:100E8E00A991B991EE27FF276D91662311F0319646
:100E9E00FBCF0895AA93662777278991E991F99157
:100EAE00A991B991882349F08A956D91719167172F
:100EBE0021F46623B9F7EE270895671BE1F3E1E00D
:100ECE0008F4E2500895E1E0F0E0E415F505089528
:100EDE00A1E00E947805E1E0EA93A1E00C94A90557
:100EEE000E94C105E1E0EA93A2E00C94A905E2E0BC
:100EFE00F0E0E415F5050895AFE00E94780580E86E
:100F0E009CE00197F1F70895E3E0F0E0E415F505B4
:100F1E000895E4E0F0E0E415F5050895EFEFF5E04F
:100F2E00FA93EA93E0E0EA93A0E2B0E00C9435077E
:100F3E00AFEFB5E00E94C105A8EEB3E00C94330804
:100F4E00F80131960E944108E20FF31FDF010C9465
:100F5E006306A0E0B0E00C9463060E94C105A0ED0C
:100F6E00B7E00C943308E6E0F0E0E415F5050895DB
:100F7E00E7E0F0E0E415F5050895E8E0F0E0E415AB
:100F8E00F50508950E94780580E89CE00197F1F739
:100F9E000895E5BBE3B3EF701E2F1F300895E02FC9
:100FAE00AFEEB5E0F0E00E944308AE0FBF1FEE2794
:100FBE00A30FBE1F0895AFEFB5E00C944507E150A7
:100FCE00FA4F0F01ECCFEC91D001EC93F4CFE0503F
:100FDE00FA4FA0E0A083E3CFE52FF0E03197E15088
:100FEE00FA4FA0E0A083A0E10C9478050E94C10501
:100FFE00A0E10C947805F0E031960E944108089526
:10100E0021970E948E06E883A881A1300895AA93A5
:10101E00E8B3EF70AE2FE881E07FEA2BE8BB0895CE
:10102E00C198C29A8BE28A95F1F7C2980895E8B3F7
:10103E00EF70AE2FE881E295E07FEA2BE8BBC29A13
:10104E008BE28A95F1F7C2980895EA81F070E37009
:10105E00EFBBE981EEBB0895109639F0A89580EDAF
:10106E0097E00197F1F71197C9F70895F195E1957A
:10107E00F0400895EE0FFF1FEE0FFF1FEE0FFF1F44
:10108E0008950024112490E1AA0FBB1F001C111C0F
:10109E000E1A1F0A18F40E0E1F1E01C0A1609A959B
:1010AE0099F7FD01D0010895E894B7FF04C0A0950B
:1010BE00B09511966894F7FDD9DFE3DFFD010EF4CC
:1010CE00D5DF08955A934A933A932A931A930A9323
:1010DE0008955D814C813B812A8119810881089593
:00000001FF
