:100000000C9442020C9471030C9400000C940000B8
:100010000C9400000C9400000C9400000C94000060
:100020000C9400000C9400000C9400000C94000050
:100030000C9400000C9400000C9400000C94000040
:100040000C9400000C9400000C9400000C94000030
:100050000C940000000000003738394F3435364426
:10006000313233434C305245FFFF31203A20537533
:10007000626D69742053747564656E7420436F6497
:1000800065002020202070726573732063616E63A9
:10009000656C20746F206261636B00456E746572DD
:1000A00020796F75722073747564656E7420636F48
:1000B00064653A004E756D626572206F66207374D8
:1000C0007564656E7473203A2000507265737320F6
:1000D00043616E63656C20546F20476F20426163FB
:1000E0006B005374617274205472616E7366657232
:1000F00072696E672E2E2E005573617274205472D1
:10010000616E736D69742046696E69736865640019
:10011000313A205365617263682053747564656E6B
:100120007400323A2044656C6574652053747564BC
:10013000656E7400456E7465722053747564656EE7
:100140007420436F646520466F722053656172634B
:10015000683A00456E7465722053747564656E74F8
:1001600020436F646520466F722044656C6574653A
:100170003A00436C656172696E6720454550524F85
:100180004D202E2E2E00343000496E636F72726542
:1001900063742053747564656E7420436F646520C6
:1001A000466F726D617400596F752057696C6C20D1
:1001B0004261636B204D656E7520496E203220537D
:1001C00065636F6E64004475706C6963617465206B
:1001D00053747564656E7420436F646520456E7456
:1001E000657265640053747564656E7420436F6452
:1001F00065205375636365737366756C6C79204114
:10020000646465640053747564656E7420436F6440
:100210006520466F756E6400596F752057696C6C68
:10022000204261636B204D656E7520496E2035203C
:100230005365636F6E64004F7073202C2053747588
:1002400064656E7420436F6465204E6F7420466F42
:10025000756E64005761697420466F722044656C46
:100260006574652E2E2E0053747564656E7420437C
:100270006F6465205761732044656C657465640024
:1002800074656D70657261747572652843293A00F2
:10029000313A20417474656E64616E636520496E05
:1002A000697469616C697A6174696F6E00323A20B1
:1002B00053747564656E74204D616E6167656D651C
:1002C0006E7400333A205669657720507265736505
:1002D0006E742053747564656E74732000343A2014
:1002E00054656D7065726174757265204D6F6E69CD
:1002F000746F72696E6700353A2052657472696571
:1003000076652053747564656E7420446174610071
:10031000363A2054726166666963204D6F6E697467
:100320006F72696E670044697374616E63653A2029
:10033000004572726F72004E6F204F62737461637A
:100340006C650020636D2000436F756E743A200069
:1003500001002D4E414E00494E46000004000400AD
:100360005400100019065800180060026A001900B5
:1003700078028200190091029B001600AA02B400C4
:100380001800C002CA001600D802E2001800EE02EF
:10039000F8001200060310011200180322011F00CA
:1003A0002A0334011F00490353011400680372013A
:1003B00002007C03C80003007E0386011E00810347
:1003C00089011F009F03A7011F00BE03C6011F0074
:1003D000DD03A7012000FC03E5011F001C04A701A9
:1003E00002003B04C80013003D0405021F00500436
:1003F00018021D006F0437021F008C04180202004F
:10040000AB04C8001300AD0405021300C00454027D
:100410001900D30467021F00EC04A7011D000B059F
:1004200037021F002805A7011000470580020200BF
:100430005705C8001D005905900216007605AD024B
:100440001A008C05C3021A00A605DD021900C005BA
:10045000F7021600D90510030200490668000B00D8
:10046000EF0526030600FA0531030C0000063703EA
:1004700005000C06430308001106480301004B0663
:1004800050030000F894EE27ECBBF1E0FBBFEBBF9C
:10049000E5BF8DE0A2E0BB27ED938A95E9F780E008
:1004A00098E0A0E6ED930197E9F7ECE5F3E085919C
:1004B0009591009761F0A591B59105901590BF01B8
:1004C000F00105900D920197E1F7FB01F0CFEFE508
:1004D000EDBFE8E0EEBFC0E6D2E00C946F02E0EFC3
:1004E000E4BBEFEFE5BBE5B3EF70E5BBE2E0E5BFF2
:1004F000E0E4EBBF8F9A9798A3E3B0E04CD4D1D45B
:1005000055D37894A1E03ED3042C052811F4CBD325
:10051000E6C00E948E0869F40E949308A0E6B2E04B
:100520000E949B08A8E7B2E075D30E948E08E9F309
:10053000D6C00E94A20871F40E949308A1E9B2E01B
:100540000E949B080E94A7080E94A208E9F30E944B
:10055000AF08C5C00E94B70811F473D3C0C00E9491
:10056000BC0809F049C00E949308AAEAB2E00E94C0
:100570009B08A0E0B0E0F1D35E2F0E94C108E52FF8
:10058000F0E0FA93EA93A9E2B6E00E942B080E94F9
:10059000CB0800E010E0E52FD801F0E0AE17BF0770
:1005A00014F50E94C10820E030E02830E0E03E076A
:1005B0006CF4F901E75DF94FFF93EF930E94D308C4
:1005C000AF91BF91EC932F5F3F4FEFCFA9E2B6E021
:1005D000A20FB31FE0E0EC930E9493080E94CB08A7
:1005E0000F5F1F4FD8CF0E949308A0ECB2E012D348
:1005F0000E94BC08E9F373C0E5E0F0E0E415F505FE
:10060000B1F50E949308A8EDB2E004D30E94DC0883
:100610005E2F00E010E0E52FD801F0E0AE17BF0735
:1006200094F420E030E02830E0E03E073CF40E9403
:10063000D308AE2FA9D32F5F3F4FF5CF0E94E0081C
:100640000F5F1F4FE8CF20E030E02830E0E03E07AA
:100650002CF4ADE399D32F5F3F4FF7CF0E94E00812
:100660000E949308AEEEB2E00E94EA0836C00E94F3
:10067000F00869F40E949308A6E0B3E00E949B088A
:10068000A8E1B3E0C7D20E94F008E9F328C00E94B5
:10069000F50871F40E949308AAE2B3E00E949B0857
:1006A0000E94A7080E94F508E9F30E94AF0817C04E
:1006B0000E94FA0871F40E949308A9E4B3E00E9432
:1006C0009B080E94A7080E94FA08E9F30E94AF085D
:1006D00006C00E94FF0819F43AD44424552414CFCC
:1006E000FFCF0A921A92FA926A937A938A939A9314
:1006F000AA93BA93EA93FA93EFB7EA9322970E94E8
:100700005A0BEFEE0E94040911F000E012C0EFED69
:100710000E94040911F001E00CC0EFEB0E940409F3
:1007200011F002E006C0EFE7E5BBE3B3EF701E2F68
:1007300003E01E3011F430E009C01D3011F431E047
:1007400005C01B3011F432E001C033E0E5B3EF70B7
:10075000E5BB042C052809F060C00E940A09EC9151
:10076000F0E0F097E130A0E0FA0721F4E1E0F0E0FA
:100770002F0136C0E430A0E0FA0721F4E3E0F0E016
:100780002F012EC0E330A0E0FA0721F4E4E0F0E00E
:100790002F0126C0E530A0E0FA0721F4E5E0F0E003
:1007A0002F011EC0E230A0E0FA0721F4E6E0F0E0FD
:1007B0002F0116C0E630A0E0FA0721F4E9E0F0E0EE
:1007C0002F010EC0E930A0E0FA0751F4F8940E941E
:1007D0009308A8E6B3E01ED2A6D278944424552408
:1007E0000E940A09AC91AC3449F4E0E0E71520F42A
:1007F000E72DF0E0319701C0E2E07E2E0E940A0969
:10080000AC91A23549F4E72DF0E03196DF01E3E049
:10081000F0E00E943D0B7E2EA4C10E948E08A9F438
:100820000E940A09EC91F0E0E334A0E0FA0719F421
:100830004424552409C0E133A0E0FA0729F40E94BA
:10084000C108E2E0F0E02F018CC10E94A20809F08B
:100850009AC00E940A09EC91F0E0FA977CF40E9499
:1008600016097F9750F40E9416090E941A090E94E7
:100870001E090E942209AC9191D184C00E940A09EC
:10088000AC91A43461F40E9416095E2F513030F00F
:100890000E942709ACE7B3E00E94310973C00E94AF
:1008A0000A09AC91A53409F065C0F894E9E2F6E0D4
:1008B000FA93EA93EEE7F3E0FA93EA93A2E00E9458
:1008C0007508E03031F40E941609E830A0E0FA071C
:1008D00069F0979A0E949308A1E8B3E00E949B08F0
:1008E000AFE9B3E00E94EA08979840C061D2E130D6
:1008F00068F0979A0E949308AEEBB3E00E949B08C1
:10090000ADEDB3E00E94EA08979830C00E94DC0881
:100910002E2FE0E0EE83EF83AE81BF811897ACF419
:10092000E22F0E943609AE81BF81EA0FFB1FFA93C6
:10093000EA93E885F985E75DF94FA0811AD2EE8147
:10094000FF813196EE83FF83E7CFE0E0F0E0FA939A
:10095000EA93A22FAF5F0DD20E949308ACEFB3E0F1
:100960000E949B08ACE1B4E00E94EA080E94C10822
:10097000789405C00E940A09AC91A33419F4E1E00F
:10098000F0E02F01EEC00E94B70841F40E940A096E
:10099000AC91A33411F444245524E3C00E94BC0854
:1009A00041F40E940A09AC91A33411F44424552463
:1009B000D8C00E94F008C9F40E940A09AC91A3347F
:1009C00019F44424552410C00E940A09AC91A133A3
:1009D00019F4E7E0F0E007C00E940A09AC91A233E5
:1009E00019F4E8E0F0E02F01BCC00E94F50809F01E
:1009F00054C00E940A09EC91F0E0FA977CF40E943E
:100A000016097F9750F40E9416090E941A090E9445
:100A10001E090E942209AC91C1D03EC00E940A0961
:100A2000AC91A43461F40E9416095E2F513030F06D
:100A30000E942709ABE3B4E00E9431092DC00E9457
:100A40000A09AC91A53401F50E943B0948F00E94C7
:100A50009308ADE3B4E00E949B08A0E5B4E008C0B1
:100A60000E949308AFE6B4E00E949B08ACE8B4E0B3
:100A7000D1D0A8E8B3E10E9487090E94C108E6E04E
:100A8000F0E02F01219608C00E940A09AC91A3341E
:100A900019F4E6E0F0E02F0164C00E94FA0809F0C2
:100AA00056C00E940A09EC91F0E0FA977CF40E948B
:100AB00016097F9750F40E9416090E941A090E9495
:100AC0001E090E942209AC9169D040C00E940A0907
:100AD000AC91A43461F40E9416095E2F513030F0BD
:100AE0000E942709ABEAB4E00E9431092FC00E949E
:100AF0000A09AC91A53451F50E943B09A0F00E946F
:100B00009308ADEAB4E00E949B08A0ECB4E082D068
:100B1000A88198D10E949308A3EDB4E00E949B089D
:100B2000ACEEB4E008C00E949308ABE0B5E00E94D0
:100B30009B08A8E2B5E06ED0A0EDB7E00E9487095F
:100B40000E94C108E6E0F0E02F0121960AC00E9451
:100B5000FF0839F40E940A09AC91A33411F444242B
:100B600055240E94610B2896E991EFBFF991E99114
:100B7000B991A9919991899179916991F990199077
:100B8000099018950E944209C0980E944B0980E87C
:100B900092E00197F1F70E945209FBC00E944209BE
:100BA000C09A0E944B090E945209F3C0EFEFE7BBC5
:100BB000C29880E09AEF0197F1F7A3E30E946009E1
:100BC000A2E30E946009A8E20E9460090E94AF08A7
:100BD000A1E0D8DF80E09AEF0197F1F7A6E00E944C
:100BE00060090895AA932497E0E8E883E0ECE9839C
:100BF000E4E9EA83E4EDEB83EC81F0E03197DE0198
:100C0000AE0FBF1FEC91AD81AE0FA1500E946009E5
:100C100026960895BA93AA931A9310E0A981BA81EF
:100C2000EE27A10FBE1FEC91E03049F0A981BA81F7
:100C3000EE27A10FBE1FAC91B1DF1F5FEFCF188170
:100C4000A1C023971A9310E0E0EEE7B9E7E8E6B910
:100C50000E949308A7E4B5E0DDDF0E94B708F1F435
:100C6000369A349BFECFE5B11E1799F015B1E12FEE
:100C7000F0E0FA93EA93DE0113960E942B08E1E17B
:100C8000EA93A1E0AFDFDE011196C4DFA7E5B5E08E
:100C9000C1DFA4EFB1E00E948709DFCFE0E0E6B951
:100CA000188124960895042C0528E1F50E949308E4
:100CB000772081F4A9E5B5E00E949B08A6E7B5E09E
:100CC000A9DF772021F400240414050409F001C0F1
:100CD000F8CF27C0E1E0E71589F4ACE8B5E00E9461
:100CE0009B08A6EAB5E096DFE1E0E71521F40024D1
:100CF0000414050409F001C0F7CF13C0E2E0E715C2
:100D000081F4A0ECB5E00E949B08A9EDB5E082DF7C
:100D1000E2E0E71521F400240414050409F001C001
:100D2000F7CFC1CF08951A930A9300E010E0003086
:100D3000E4E01E0778F4E199FECFE12FF070E37054
:100D4000EFBBE02FEEBBE0E0EDBBE29AE19A0F5F74
:100D50001F4FEDCF099119910895BA93AA931A9351
:100D6000E199FECF0E946709E09A1DB3E12F188137
:100D700009C0AA93E199FECF0E946709E881EDBB03
:100D8000E29AE19A23960895AA935D9BFECFE881AB
:100D9000ECB921960895BA93AA93E881E9B9E9815B
:100DA000F070E0BDE8E1EAB9E6E0E0BD2296089522
:100DB0002A970E945C0B0E94DC081E2F00E001179E
:100DC000E0F5FE013496FA93EA93E0E0EA93AAE0B4
:100DD000B0E00E94590830E03830A8F4E32FF0E08A
:100DE000DE011496EA0FFB1FFF93EF93A32FBB279F
:100DF000E02F0E943609AE0FBF1FAFDFAF91BF914A
:100E0000EC933F5FE9CFE32FF0E0DE011496AE0FE5
:100E1000BF1FE0E0EC93FE013496FA93EA93E9E217
:100E2000F6E0FA93EA93A8E00E947508E03019F41E
:100E3000E02FEF5F03C00F5FC2CFE0E00E94630BC3
:100E40002E960895AA930E945C0B0E94DC081E2F28
:100E50000C811017D8F030E03830B0F4A32FBB2746
:100E6000E02F0E943609AE0FBF1F77DF2E2FA32F72
:100E7000BB27E8E0E09FF001EA0FFB1FFA93EA933B
:100E8000A22F77DF3F5FE8CF0F5FE3CFE0E0F0E036
:100E9000FA93EA93A12FA1506CDF0E94630B0C948C
:100EA00067088D9A8E980895959A88E28A95F1F749
:100EB000959808952897E0E0EC83ED83EE83EF8327
:100EC0000E946E0930F4869B01C003C00E947A091B
:100ED000F7CF0E946E0919F4EFEFFFEF36C0E0E0A4
:100EE000EFBDE3E0EEBDE0E0F0E0FDBDECBDEC8386
:100EF000ED83EE83EF830E946E0970F4869B0CC035
:100F0000ECB5FDB5E136AAEEFA0718F0EEEFFFEF0B
:100F10001CC00E947A09EFCFECB5FDB56627772794
:100F20000E94550BE0E0EEBD0E94500BA136EAEEA8
:100F3000BE07E0E08E07E0E09E0718F0EEEFFFEF5F
:100F400004C00E944B0B0E94200B289608956097C6
:100F50000E945A0B4FEF5FEF0E949308AFEEB5E08F
:100F600059DE0E94FF0809F072C09EDFA3DF8F01E7
:100F7000EFEFFFEFE017F10729F40E949308AAEFC3
:100F8000B5E05FC0EEEFFFEFE017F10729F40E9434
:100F90009308A0E0B6E055C0F801662777270E94C5
:100FA000F709A6E9B3E48BE09DE30E947A0ADF012A
:100FB000CB01E0E0F0E060E070E40E94C80AA0E04D
:100FC000B0E080E09FE30E942A0A0E94C0099F01CE
:100FD0004217530789F0A9013A932A93DE01189624
:100FE0000E942B08EBE0EA93A1E0FCDDDE011696FF
:100FF00011DEACE0B6E00EDE2630E0E03E070CF499
:101000006394E0914906F0914A06A62DB0E0EA17F4
:10101000FB07C1F0E62DF0E0E0934906F0934A06A5
:10102000E1E0EA93A2E0DEDDE62DF0E0FA93EA9358
:10103000DE0118960E942B08A1E1B6E0EBDDDE018F
:101040001696E8DDA4E6B0E00E9487098ACF0E94E8
:10105000610B66960895BA93AA93A991B991E99103
:10106000F99130962AF4E095F09531966DE26D9302
:10107000E89480E197E20DD088EE93E00AD084E610
:10108000992707D08AE005D06E2F10D066276C9381
:1010900008956627E817F90720F06395E81BF90B18
:1010A000C9F7662311F416F008956894605D6D9396
:1010B0000895BA93AA93B981A881109631F0FC8162
:1010C000EB816A8161931197E9F7EB81FC812596A9
:1010D0000895BA93AA93A991B991EE27FF276D912C
:1010E000662311F03196FBCF0895AA9366277727E0
:1010F0008991E991F991A991B991882349F08A954B
:101100006D917191671721F46623B9F7EE27089561
:10111000671BE1F3E1E008F4E2500895E1E0F0E05C
:10112000E415F5050895A1E00E94C205E1E0EA9307
:10113000A1E00C94F2050E940A06E1E0EA93A2E025
:101140000C94F205E2E0F0E0E415F5050895AFE057
:101150000E94C20580E89CE00197F1F70895ACE099
:101160000E94C20580E89CE00197F1F70895E3E052
:10117000F0E0E415F5050895E4E0F0E0E415F50588
:101180000895E9E2F6E0FA93EA93E0E0EA93A0E258
:10119000B0E00C945908A9E2B6E00E940A06A8EE55
:1011A000B3E00C948709F80131960E94190BE20F05
:1011B000F31FDF010C94AD06A0E0B0E00C94AD0687
:1011C000ADE00E94C406ADE00E94C406A4EFB1E009
:1011D0000C9487090E940A06A0EDB7E00C948709D9
:1011E000E6E0F0E0E415F5050895E7E0F0E0E41549
:1011F000F5050895E8E0F0E0E415F5050895E9E067
:10120000F0E0E415F5050895E5BBE3B3EF701E2F9C
:101210001F300895E02FA9E1B6E0F0E00E941B0B1B
:10122000AE0FBF1FEE27A30FBE1F0895A9E2B6E0C1
:101230000C946908E75DF94F0F01ECCFEC91D001F8
:10124000EC93F4CFE65DF94FA0E0A083E3CFE52F68
:10125000F0E03197E75DF94FA0E0A083A0E10C94A6
:10126000C2050E940A06A0E10C94C205F0E0319686
:101270000E94190B089521970E94D806E883A8813F
:10128000A1300895AA93E8B3EF70AE2FE881E07F14
:10129000EA2BE8BB0895C198C29A8BE28A95F1F7D0
:1012A000C2980895E8B3EF70AE2FE881E295E07F31
:1012B000EA2BE8BBC29A8BE28A95F1F7C2980895AF
:1012C0000E94C20580E89CE00197F1F70895EA8149
:1012D000F070E370EFBBE981EEBB0895AC81BD8196
:1012E0008E819F81A03CE7E2BE07E9E08E07E0E047
:1012F0009E070895EC81FD816E817F81EF5FFF4F36
:101300006F4F7F4FEC83FD836E837F83089510962C
:1013100039F0A89580ED97E00197F1F71197C9F79B
:101320000895552342F4503811F4E0FF04C031967B
:10133000691F791F6BF050E8572711F45F93C8C0FD
:101340005F3F31F0660F000C57956795752F089534
:101350005F9300200AF0C8C0C1C050E8192E1522C2
:10136000880F991F9527550F879550E8072E05225E
:10137000660F771F7527550F67950895689401C00C
:10138000E8945F93F2DF703818F07F3F08F4A0C054
:1013900056E1571BAAF4519558300EF4593030F0ED
:1013A000EFEFFFEF6FEF7FE777F91AC0772755234D
:1013B000B9F0EE0FFF1F661F771F5A95D1F710C0C7
:1013C0007727583028F0EF2FF62F672F5850F9CF96
:1013D000552331F076956795F795E7955A95D1F7AE
:1013E00000200AF41ED15F910895689401C0E8942A
:1013F000309760407040B1F0002426F0772312F45B
:1014000000940FD1172E7EE1112032F07A95EE0F65
:10141000FF1F661F111CF9CFEF2FF62F612D5F9371
:101420008ADF5F9108954F93AF01FD01DA01AB01AF
:10143000BC01CA01402D012C142E4F910895EA0FD2
:10144000FB1F681F0895E095F0956095EF5FFF4FD3
:101450006F4F08955F9381DF903839F1703821F133
:10146000572F591B2BF112F4DEDFFACF583118F049
:10147000AA27BB278827583028F0AB2FB82F8827FA
:101480005850F9CF552329F08695B795A7955A95C9
:10149000D9F7502D512572F0D2DF38F46795F795C2
:1014A000E795739513F420C0BEDF45DF5F91089583
:1014B000D8F7FBCFEA1BFB0B680B51F010F400943C
:1014C000C2DF662392F3EE0FFF1F661F7A95CBF7FC
:1014D000EE27FF27662777275F910895EFEFFFEF4D
:1014E0006FE77FEF5F910895EFEFFFEF6FE77FE723
:1014F0005F9108955F9331DF703851F3903841F375
:1015000001240894791F23F41CF300203AF3ECCF54
:101510000F921F932F933F934F93112722279927C1
:10152000689FA0018F9F302D410D591F6B9F300D7B
:10153000411D591F8E9F27D0BF9F25D06A9F23D062
:10154000BE9F1DD0AF9F1BD0AE9F110D291F391F0D
:10155000491F591FE32FF42F652F522F4F913F91B1
:101560002F911F910F9066232AF0550FEE1FFF1F3A
:10157000661F02C073954BF2D4DE5F910895100D83
:10158000211D391F02C0200D311D491F591F08950B
:101590005F93E3DE703821F411200AF49FCFA4CFCB
:1015A000903809F495CF01240894970B1BF4D4F3D9
:1015B0000020F3CF792F1F932F933F934F93112444
:1015C0001127222733274427552790E2AE17BF075C
:1015D0008607410730F0AE1BBF0B860B410B08940A
:1015E00001C08894551F221F331F111CAA1FBB1F47
:1015F000881F441F9A9551F7F901612D4F913F9132
:101600002F911F91662332F0550FEE1FFF1F661FAB
:101610007A9543F286DE5F910895F195E195F04069
:101620000895F09560957095E195FF4F6F4F7F4F4E
:101630000895EE0FFF1FEE0FFF1FEE0FFF1F08951F
:1016400076956795F795E79508956F2F660F660B6A
:10165000762F08950024112490E1AA0FBB1F001CCF
:10166000111C0E1A1F0A18F40E0E1F1E01C0A160D5
:101670009A9599F7FD01D0010895E894B7FF04C049
:10168000A095B09511966894F7FDC7DFE3DFFD01E3
:101690000EF4C3DF0895E881F9816A817B810895A2
:1016A000A881B9818A819B810895E883F9836A833F
:1016B0007B8308955A934A933A932A931A930A93F1
:1016C00008955D814C813B812A81198108810895AB
:00000001FF
