:060000000C94CD020C94EB
:1000060022040C9400000C9400000C9400000C9444
:1000160000000C9400000C9400000C9400000C945A
:1000260000000C9400000C9400000C9400000C944A
:1000360000000C9400000C9400000C9400000C943A
:1000460000000C9400000C9400000C9400000000CA
:10005600000000003738394F3435364431323343E7
:100066004C305245640FFFFF31203A205375626DC4
:1000760069742053747564656E7420436F646500FB
:100086002020202070726573732063616E63656C37
:1000960020746F206261636B00456E74657220790F
:1000A6006F75722073747564656E7420636F646512
:1000B6003A004E756D626572206F662073747564C2
:1000C600656E7473203A2000507265737320436125
:1000D6006E63656C20546F20476F204261636B002E
:1000E6005374617274205472616E736665727269BC
:1000F6006E672E2E2E005573617274205472616ED7
:10010600736D69742046696E697368656400313A77
:10011600205365617263682053747564656E74005C
:10012600323A2044656C6574652053747564656E57
:100136007400456E7465722053747564656E742020
:10014600436F646520466F72205365617263683A37
:1001560000456E7465722053747564656E74204331
:100166006F646520466F722044656C6574653A005D
:10017600456E7465722053656372657420436F64BF
:100186006520286F722063616E63656C29003120DB
:100196003A20436C65617220454550524F4D004CE4
:1001A6006F676F7574202E2E2E00476F696E67205D
:1001B600546F2041646D696E205061676520496EF9
:1001C60020322053656300343000496E636F7272CB
:1001D6006563742053747564656E7420436F64653B
:1001E60020466F726D617400596F752057696C6C8B
:1001F600204261636B204D656E7520496E2032206A
:100206005365636F6E64004475706C6963617465F1
:100216002053747564656E7420436F646520456E63
:1002260074657265640053747564656E7420436FFB
:100236006465205375636365737366756C6C7920AA
:10024600416464656400596F75204D75737420466A
:1002560069727374204C6F67696E00596F75205709
:10026600696C6C20476F2041646D696E2050616730
:10027600652032205365630053747564656E74207F
:10028600436F646520466F756E64004F7073202C53
:100296002053747564656E7420436F6465204E6FD9
:1002A6007420466F756E64005761697420466F72DC
:1002B6002044656C6574652E2E2E00537475646536
:1002C6006E7420436F6465205761732044656C65C6
:1002D600746564004C6F67696E205375636365735C
:1002E6007366756C6C7900576169742E2E2E004FFB
:1002F6007073202C2073656372657420697320699E
:100306006E636F727265637400436C656172696EC9
:100316006720454550524F4D202E2E2E0074656D98
:1003260070657261747572652843293A00313A2006
:10033600417474656E64616E636520496E697469A3
:10034600616C697A6174696F6E00323A2053747514
:1003560064656E74204D616E6167656D656E7400CF
:10036600333A20566965772050726573656E74203E
:1003760053747564656E74732000343A2054656D49
:100386007065726174757265204D6F6E69746F72F7
:10039600696E6700353A2052657472696576652024
:1003A60053747564656E74204461746100363A2036
:1003B60054726166666963204D6F6E69746F726907
:1003C6006E6700373A204C6F67696E20576974680C
:1003D6002041646D696E00383A204C6F676F757402
:1003E6000044697374616E63653A20004572726FEA
:1003F60072004E6F204F62737461636C65002063F8
:100406006D2000436F756E743A20000001002D4E7A
:10041600414E00494E4600000600040054001000FC
:100426002F075A00180060026E0019007802860035
:10043600190091029F001600AA02B8001800C00217
:10044600CE001600D802E6001800EE02FC001200EC
:10045600060314011200180326011F002A0338019F
:100466001F00490357011E00680376011100860329
:1004760094011900970386000B00B003A5011D0027
:10048600BB03B0010200D803CC000300DA03CD01A0
:100496001E00DD03D0011F00FB03EE011F001A043E
:1004A6000D021F003904EE01200058042C021F0023
:1004B6007804EE01150097044C021D00AC0461029D
:1004C6000200C904CC001300CB047E021F00DE0428
:1004D600EE011D00FD0491021F001A05EE01020047
:1004E6003905CC0013003B057E0213004E05AE0213
:1004F60019006105C1021F007A05EE011D0099056C
:1005060091021F00B605EE010200D505CC001300CE
:10051600D705DA020800EA05ED021A00F205F5022F
:100526001F000C06EE0114002B060F0310003F06F9
:10053600230302004F06CC001D00510633031600AC
:100546006E0650031A00840666031A009E06800390
:100556001900B8069A031600D106B3031400E7067D
:10056600C9030A00FB06DD0302005F076C000B00EF
:100576000507E70306001007F2030C001607F80349
:100586000500220704040800270709040100610783
:1005960012040000F894EE27ECBBF1E0FBBFEBBFC2
:1005A600E5BF8DE0A2E0BB27ED938A95E9F780E0F1
:1005B60098E0A0E6ED930197E9F7EEE1F4E0859186
:1005C6009591009761F0A591B59105901590BF01A1
:1005D600F00105900D920197E1F7FB01F0CFEFE5F1
:1005E600EDBFE8E0EEBFC0E6D2E00C94FA02E0EF21
:1005F600E4BBEFEFE5BBE5B3EF70E5BBE2E0E5BFDB
:10060600E0E4EBBF8F9A9798A3E3B0E00E945D0801
:100616000E94E30846D47894A1E02FD4042C052840
:1006260011F4BBD40AC10E94430A69F40E94480A25
:10063600A0E6B2E00E94500AA8E7B2E066D40E94A3
:10064600430AE9F3FAC00E94570A61F40E94480A75
:10065600A1E9B2E00E94500A0E945C0A0E94570A71
:10066600E9F3E8C00E94640A11F466D4E6C00E9469
:10067600690A09F049C00E94480AAAEAB2E00E9443
:10068600500AA0E0B0E0F8D45E2F0E946E0AE52F73
:10069600F0E0FA93EA93AFE3B7E00E94E0090E9424
:1006A600780A00E010E0E52FD801F0E0AE17BF07AA
:1006B60014F50E946E0A20E030E02830E0E03E07A4
:1006C6006CF4F901E15CF84FFF93EF930E94800A06
:1006D600AF91BF91EC932F5F3F4FEFCFAFE3B7E002
:1006E600A20FB31FE0E0EC930E94480A0E94780A2A
:1006F6000F5F1F4FD8CF0E94480AA0ECB2E005D486
:100706000E94690AE9F399C0E5E0F0E0E415F50511
:10071600C1F50E94480AA8EDB2E0F7D30E94890A03
:100726005E2F00E010E0E52FD801F0E0AE17BF071E
:1007360094F420E030E02830E0E03E073CF40E94EC
:10074600800AAE2FB0D42F5F3F4FF5CF0E948D0A9F
:100756000F5F1F4FE8CF20E030E02830E0E03E0793
:100766002CF4ADE3A0D42F5F3F4FF7CF0E948D0A44
:100776000E94480AAEEEB2E00E94970A442455242D
:100786005CC00E949D0A69F40E94480AA6E0B3E094
:100796000E94500AA8E1B3E0B8D30E949D0AE9F38B
:1007A6004CC00E94A20A61F40E94480AAAE2B3E081
:1007B6000E94500A0E945C0A0E94A20AE9F33AC00B
:1007C6000E94A70A61F40E94480AA9E4B3E00E94C5
:1007D600500A0E945C0A0E94A70AE9F32BC00E94F5
:1007E600AC0A21F443D54424552427C00E94B10AFB
:1007F60021F50E94480AA8E6B3E00E94500A0E942A
:100806005C0A0E94B10A11F4992009F001C0F9CFDF
:10081600E1E0E91579F40E94B60A0E94480AA6E8C2
:10082600B3E00E94500AA7E9B3E06FD30E94B10A71
:10083600E9F303C0ACE00E94BE0AF0CEFFCF0A92F5
:100846001A92FA926A937A938A939A93AA93BA938C
:10085600EA93FA93EFB7EA9322970E94FD0CEFEE24
:100866000E94C50A11F000E012C0EFED0E94C50A11
:1008760011F001E00CC0EFEB0E94C50A11F002E096
:1008860006C0EFE7E5BBE3B3EF701E2F03E01E30B3
:1008960011F430E009C01D3011F431E005C01B3001
:1008A60011F432E001C033E0E5B3EF70E5BB042C90
:1008B600052809F070C00E94CB0AEC91F0E0F09791
:1008C600E130A0E0FA0721F4E1E0F0E02F0147C0B3
:1008D600E430A0E0FA0721F4E3E0F0E02F013FC0A6
:1008E600E330A0E0FA0721F4E4E0F0E02F0137C09E
:1008F600E530A0E0FA0721F4E5E0F0E02F012FC093
:10090600E230A0E0FA0721F4E6E0F0E02F0127C08C
:10091600E630A0E0FA0721F4E9E0F0E02F011FC07D
:10092600E730A0E0FA0721F4EAE0F0E02F0117C073
:10093600E830A0E0FA0799F4F894E1E0E91579F4D3
:100946000E94480AA0EBB3E00E94500AABEBB3E06A
:100956000E94970A99247894EAE0F0E02F010E9419
:10096600CB0AAC91AC3449F4E0E0E71520F4E72D6E
:10097600F0E0319701C0E3E07E2E0E94CB0AAC91F5
:10098600A23541F4E72DF0E03196A3E0B0E00E94F5
:10099600E40C7E2E61C20E94430AA9F40E94CB0A8F
:1009A600EC91F0E0E334A0E0FA0719F4442455246E
:1009B60009C0E133A0E0FA0729F40E946E0AE2E0DA
:1009C600F0E02F0149C20E94570A09F0A4C00E9414
:1009D600CB0AAC91A33429F40E946E0AE1E0F0E060
:1009E6002F010E94CB0AEC91F0E0FA977CF40E946A
:1009F600D70A7F9750F40E94D70A0E94DB0A0E940A
:100A0600DF0A0E94E30AAC9144D284C00E94CB0A5A
:100A1600AC91A43461F40E94D70A5E2F513030F0B5
:100A26000E94E80AA8EDB3E00E94F20A73C00E9491
:100A3600CB0AAC91A53409F065C0F894EFE3F7E072
:100A4600FA93EA93EAEDF3E0FA93EA93A2E00E94BE
:100A56002A0AE03031F40E94D70AE830A0E0FA070B
:100A660069F0979A0E94480AADEDB3E00E94500AD9
:100A7600ABEFB3E00E94970A979840C028D3E130C5
:100A860068F0979A0E94480AAAE1B4E00E94500AC8
:100A9600A9E3B4E00E94970A979830C00E94890A99
:100AA6002E2FE0E0EE83EF83AE81BF811897ACF482
:100AB600E22F0E94F70AAE81BF81EA0FFB1FFA936D
:100AC600EA93E885F985E15CF84FA081E1D2EE81F1
:100AD600FF813196EE83FF83E7CFE0E0F0E0FA9303
:100AE600EA93A22FAF5FD4D20E94480AA8E5B4E0E9
:100AF6000E94500AA8E7B4E00E94970A0E946E0A74
:100B0600789405C00E94CB0AAC91A33419F4E1E0B5
:100B1600F0E02F01A1C10E94640A41F40E94CB0AB1
:100B2600AC91A33411F44424552496C10E94690A59
:100B360041F40E94CB0AAC91A33411F44424552409
:100B46008BC10E949D0A91F50E94CB0AAC91A334F9
:100B560019F44424552429C00E94CB0AAC91A13330
:100B660019F4E7E0F0E020C00E94CB0AAC91A23372
:100B760019F4E1E0E91509F003C0E8E0F0E014C07B
:100B86000E94CB0AAC91A23311F4992009F00DC052
:100B96000E94480AA7E9B4E00E94500AACEAB4E011
:100BA6000E94970AEAE0F0E02F0156C10E94A20ACD
:100BB60009F05CC00E94CB0AAC91A33419F40E94E0
:100BC6006E0A50C00E94CB0AEC91F0E0FA977CF4D2
:100BD6000E94D70A7F9750F40E94D70A0E94DB0A28
:100BE6000E94DF0A0E94E30AAC9153D13EC00E94E4
:100BF600CB0AAC91A43461F40E94D70A5E2F51301F
:100C060030F00E94E80AA9ECB4E00E94F20A2DC076
:100C16000E94CB0AAC91A53401F50E94FC0A48F06B
:100C26000E94480AABECB4E00E94500AAEEDB4E074
:100C360008C00E94480AADEFB4E00E94500AAAE13B
:100C4600B5E063D1A0EDB7E00E94410B0E946E0AA9
:100C5600E6E0F0E02F01219608C00E94CB0AAC9195
:100C6600A33419F4E6E0F0E02F01F6C00E94A70ACB
:100C760009F061C00E94CB0AAC91A33431F40E9402
:100C86006E0AE6E0F0E02F0155C00E94CB0AEC9117
:100C9600F0E0FA977CF40E94D70A7F9750F40E94FE
:100CA600D70A0E94DB0A0E94DF0A0E94E30AAC917F
:100CB600F0D040C00E94CB0AAC91A43461F40E94EB
:100CC600D70A5E2F513030F00E94E80AA9E3B5E05A
:100CD6000E94F20A2FC00E94CB0AAC91A53451F5AE
:100CE6000E94FC0AA0F00E94480AABE3B5E00E940D
:100CF600500AAEE4B5E009D1A88133D20E94480A71
:100D0600A1E6B5E00E94500AAAE7B5E008C00E9435
:100D1600480AA9E9B5E00E94500AA6EBB5E0F5D06D
:100D2600A0EDB7E00E94410B0E946E0AE6E0F0E0FB
:100D36002F01219691C00E94AC0A41F40E94CB0A71
:100D4600AC91A33411F44424552486C00E94B10A00
:100D560019F4E1E0E91509F45EC00E94CB0AAC91F2
:100D6600A33429F40E946E0A4424552453C00E94D9
:100D7600CB0AEC91F0E0FA977CF40E94D70A7F97B1
:100D860050F40E94D70A0E94DB0A0E94DF0A0E94E2
:100D9600E30AAC917ED03EC00E94CB0AAC91A4344B
:100DA60061F40E94D70A5E2F513030F00E94E80AA3
:100DB600A5EDB5E00E94F20A2DC00E94CB0AAC91C7
:100DC600A53441F52297AFE3B7E0D4D2E883F9839F
:100DD600A881B981A436EFE0BE0769F40E94480AEB
:100DE600A7EDB5E00E94500AAAEEB5E00E94970A68
:100DF600E1E09E2E0AC00E94480AA2EFB5E00E94DA
:100E0600500AACE0B6E00E94970A0E946E0A44249B
:100E16005524229621C00E94B10A11F4992009F4A2
:100E26001BC00E94CB0AEC91F0E0E334A0E0FA0785
:100E360019F4442455240CC0E133A0E0FA0741F428
:100E4600F8940E94480AABE2B6E05FD0FBD07894F3
:100E56000E946E0A442455240E94040D2896E991A6
:100E6600EFBFF991E991B991A991999189917991F8
:100E76006991F9901990099018950E94030BC098F2
:100E86000E940C0B80E892E00197F1F70E94130B89
:100E96000FC10E94030BC09A0E940C0B0E94130BF9
:100EA60007C1EFEFE7BBC29880E09AEF0197F1F731
:100EB600A3E30E94BE0AA2E30E94BE0AA8E20E9421
:100EC600BE0A0E94B60AA1E0D8DF80E09AEF019739
:100ED600F1F7A6E00E94BE0A0895AA932497E0E8D7
:100EE600E883E0ECE983E4E9EA83E4EDEB83EC8173
:100EF600F0E03197DE01AE0FBF1FEC91AD81AE0F72
:100F0600A1500E94BE0A26960895BA93AA931A93F0
:100F160010E0A981BA81EE27A10FBE1FEC91E03047
:100F260049F0A981BA81EE27A10FBE1FAC91B1DFAE
:100F36001F5FEFCF1881B5C023971A9310E0E0EE3C
:100F4600E7B9E7E8E6B90E94480AAFE3B6E0DDDFB5
:100F56000E94640AF1F4369A349BFECFE5B11E175F
:100F660099F015B1E12FF0E0FA93EA93DE011396BA
:100F76000E94E009E1E1EA93A1E0AFDFDE0111960C
:100F8600C4DFAFE4B6E0C1DFA4EFB1E00E94410BDD
:100F9600DFCFE0E0E6B918810EC2042C052809F07F
:100FA60050C00E94480A772081F4A1E5B6E00E946D
:100FB600500AAEE6B6E0A9DF772021F40024041437
:100FC600050409F001C0F8CF3BC0E1E0E71589F45C
:100FD600A4E8B6E00E94500AAEE9B6E096DFE1E08A
:100FE600E71521F400240414050409F001C0F7CF25
:100FF60027C0E2E0E71589F4A8EBB6E00E94500AA4
:10100600A1EDB6E082DFE2E0E71521F40024041446
:10101600050409F001C0F7CF13C0E3E0E71581F43A
:10102600A7EEB6E00E94500AABEFB6E06EDFE3E053
:10103600E71521F400240414050409F001C0F7CFD4
:10104600ACCF08951A930A9300E010E00030E4E074
:101056001E0778F4E199FECFE12FF070E370EFBB45
:10106600E02FEEBBE0E0EDBBE29AE19A0F5F1F4F87
:10107600EDCF099119910895BA93AA931A93E1991C
:10108600FECF0E94210BE09A1DB3E12F188109C003
:10109600AA93E199FECF0E94210BE881EDBBE29A6B
:1010A600E19A23960895AA935D9BFECFE881ECB959
:1010B60021960895BA93AA93E881E9B9E981F07077
:1010C600E0BDE8E1EAB9E6E0E0BD229608952A9798
:1010D6000E94FF0C0E94890A1E2F00E00117E0F50E
:1010E600FE013496FA93EA93E0E0EA93AAE0B0E0D0
:1010F6000E940E0A30E03830A8F4E32FF0E0DE015B
:101106001496EA0FFB1FFF93EF93A32FBB27E02F45
:101116000E94F70AAE0FBF1FAFDFAF91BF91EC93EE
:101126003F5FE9CFE32FF0E0DE011496AE0FBF1F5D
:10113600E0E0EC93FE013496FA93EA93EFE3F7E0EE
:10114600FA93EA93A8E00E942A0AE03019F4E02F05
:10115600EF5F03C00F5FC2CFE0E00E94060D2E9640
:101166000895AA930E94FF0C0E94890A1E2F0C81E3
:101176001017D8F030E03830B0F4A32FBB27E02F9B
:101186000E94F70AAE0FBF1F77DF2E2FA32FBB27B4
:10119600E8E0E09FF001EA0FFB1FFA93EA93A22F23
:1011A60077DF3F5FE8CF0F5FE3CFE0E0F0E0FA9351
:1011B600EA93A12FA1506CDF0E94060D0C941C0A25
:1011C6008D9A8E980895959A88E28A95F1F7959862
:1011D60008952897E0E0EC83ED83EE83EF830E9489
:1011E600280B30F4869B01C003C00E94340BF7CF56
:1011F6000E94280B19F4EFEFFFEF36C0E0E0EFBDD9
:10120600E3E0EEBDE0E0F0E0FDBDECBDEC83ED8398
:10121600EE83EF830E94280B70F4869B0CC0ECB51E
:10122600FDB5E136AAEEFA0718F0EEEFFFEF1CC0A7
:101236000E94340BEFCFECB5FDB5662777270E94E9
:10124600F80CE0E0EEBD0E94F30CA136EAEEBE0714
:10125600E0E08E07E0E09E0718F0EEEFFFEF04C037
:101266000E94EE0C0E94DA0C2896089560970E9460
:10127600FD0C4FEF5FEF0E94480AA5E0B7E045DEA0
:101286000E94AC0A09F072C09EDFA3DF8F01EFEF68
:10129600FFEFE017F10729F40E94480AA0E1B7E042
:1012A6005FC0EEEFFFEFE017F10729F40E94480A4E
:1012B600A6E1B7E055C0F801662777270E94B10B73
:1012C600A6E9B3E48BE09DE30E94340CDF01CB0179
:1012D600E0E0F0E060E070E40E94820CA0E0B0E0A4
:1012E60080E09FE30E94E40B0E947A0B9F01421765
:1012F600530789F0A9013A932A93DE0118960E94B2
:10130600E009EBE0EA93A1E0E8DDDE011696FDDDFB
:10131600A2E2B7E0FADD2630E0E03E070CF4639483
:10132600E0915F07F0916007A62DB0E0EA17FB0792
:10133600C1F0E62DF0E0E0935F07F0936007E1E08F
:10134600EA93A2E0CADDE62DF0E0FA93EA93DE0125
:1013560018960E94E009A7E2B7E0D7DDDE011696EF
:10136600D4DDA4E6B0E00E94410B8ACF0E94040DB2
:1013760066960895BA93AA931A930A9300E010E02A
:10138600AA81BB81EC91E03099F0AFE1A09FF0011A
:10139600A19FF00D0F01AA81BB81EC91F0E0E00D59
:1013A600F11D8F01EA81FB813196EA83FB83E8CF49
:1013B600F8011981088124960895BA93AA93A991F0
:1013C600B991E991F99130962AF4E095F095319624
:1013D6006DE26D93E89480E197E20DD088EE93E09C
:1013E6000AD084E6992707D08AE005D06E2F10D060
:1013F60066276C9308956627E817F90720F063952A
:10140600E81BF90BC9F7662311F416F008956894E2
:10141600605D6D930895BA93AA93B981A8811096D9
:1014260031F0FC81EB816A8161931197E9F7EB81D9
:10143600FC8125960895BA93AA93A991B991EE27AE
:10144600FF276D91662311F03196FBCF0895AA937D
:10145600662777278991E991F991A991B99188230E
:1014660049F08A956D917191671721F46623B9F752
:10147600EE270895671BE1F3E1E008F4E2500895D2
:10148600E1E0F0E0E415F5050895A1E00E944007CB
:10149600E1E0EA93A1E00C9470070E948807E1E07E
:1014A600EA93A2E00C947007E2E0F0E0E415F5059B
:1014B6000895AFE00E94400780E89CE00197F1F7AD
:1014C6000895E3E0F0E0E415F5050895E4E0F0E0C2
:1014D600E415F5050895EFE3F7E0FA93EA93E0E003
:1014E600EA93A0E2B0E00C940E0AAFE3B7E00E94E4
:1014F6008807A8EEB3E00C94410BF80131960E94E0
:10150600D30CE20FF31FDF010C943F08A0E0B0E01C
:101516000C943F08ADE00E945608ADE00E945608C4
:10152600A4EFB1E00C94410B0E948807A0EDB7E050
:101536000C94410BE6E0F0E0E415F5050895E7E0CC
:10154600F0E0E415F5050895E8E0F0E0E415F505AA
:101556000895E9E0F0E0E415F5050895EAE0F0E025
:10156600E415F5050895ACE00E94400780E89CE08C
:101576000197F1F708950E94400780E89CE00197E3
:10158600F1F70895E5BBE3B3EF701E2F1F30089502
:10159600E02FAFE2B7E0F0E00E94D50CAE0FBF1F20
:1015A600EE27A30FBE1F0895AFE3B7E00C941E0A03
:1015B600E15CF84F0F01ECCFEC91D001EC93F4CF46
:1015C600E05CF84FA0E0A083E3CFE52FF0E0319791
:1015D600E15CF84FA0E0A083A0E10C9440070E94D4
:1015E6008807A0E10C944007F0E031960E94D30CE6
:1015F600089521970E946A08E883A881A13008957A
:10160600AA93E8B3EF70AE2FE881E07FEA2BE8BB40
:101616000895C198C29A8BE28A95F1F7C298089507
:10162600E8B3EF70AE2FE881E295E07FEA2BE8BBE6
:10163600C29A8BE28A95F1F7C2980895EA81F07012
:10164600E370EFBBE981EEBB0895AC81BD818E816D
:101656009F81A03CE7E2BE07E9E08E07E0E09E0737
:101666000895EC81FD816E817F81EF5FFF4F6F4FA3
:101676007F4FEC83FD836E837F830895109639F048
:10168600A89580ED97E00197F1F71197C9F70895AE
:10169600552342F4503811F4E0FF04C03196691F17
:1016A600791F6BF050E8572711F45F93C8C05F3F6E
:1016B60031F0660F000C57956795752F08955F9367
:1016C60000200AF0C8C0C1C050E8192E1522880FA4
:1016D600991F9527550F879550E8072E0522660F07
:1016E600771F7527550F67950895689401C0E8948C
:1016F6005F93F2DF703818F07F3F08F4A0C056E120
:10170600571BAAF4519558300EF4593030F0EFEFCC
:10171600FFEF6FEF7FE777F91AC077275523B9F008
:10172600EE0FFF1F661F771F5A95D1F710C0772758
:10173600583028F0EF2FF62F672F5850F9CF552342
:1017460031F076956795F795E7955A95D1F700208C
:101756000AF41ED15F910895689401C0E894309709
:1017660060407040B1F0002426F0772312F4009414
:101776000FD1172E7EE1112032F07A95EE0FFF1F62
:10178600661F111CF9CFEF2FF62F612D5F938ADFAD
:101796005F9108954F93AF01FD01DA01AB01BC01E2
:1017A600CA01402D012C142E4F910895EA0FFB1FFC
:1017B600681F0895E095F0956095EF5FFF4F6F4FB6
:1017C60008955F9381DF903839F1703821F1572FF2
:1017D600591B2BF112F4DEDFFACF583118F0AA2785
:1017E600BB278827583028F0AB2FB82F88275850AA
:1017F600F9CF552329F08695B795A7955A95D9F728
:10180600502D512572F0D2DF38F46795F795E7959C
:10181600739513F420C0BEDF45DF5F910895D8F7B6
:10182600FBCFEA1BFB0B680B51F010F40094C2DFF0
:10183600662392F3EE0FFF1F661F7A95CBF7EE270E
:10184600FF27662777275F910895EFEFFFEF6FE792
:101856007FEF5F910895EFEFFFEF6FE77FE75F910F
:1018660008955F9331DF703851F3903841F30124C6
:101876000894791F23F41CF300203AF3ECCF0F925F
:101886001F932F933F934F93112722279927689FE2
:10189600A0018F9F302D410D591F6B9F300D411DAB
:1018A600591F8E9F27D0BF9F25D06A9F23D0BE9FEA
:1018B6001DD0AF9F1BD0AE9F110D291F391F491F89
:1018C600591FE32FF42F652F522F4F913F912F91E0
:1018D6001F910F9066232AF0550FEE1FFF1F661FFC
:1018E60002C073954BF2D4DE5F910895100D211D51
:1018F600391F02C0200D311D491F591F08955F93DE
:10190600E3DE703821F411200AF49FCFA4CF90387B
:1019160009F495CF01240894970B1BF4D4F3002007
:10192600F3CF792F1F932F933F934F9311241127B2
:10193600222733274427552790E2AE17BF0786078D
:10194600410730F0AE1BBF0B860B410B089401C05C
:101956008894551F221F331F111CAA1FBB1F881FE7
:10196600441F9A9551F7F901612D4F913F912F919F
:101976001F91662332F0550FEE1FFF1F661F7A95E3
:1019860043F286DE5F910895F195E195F040089562
:10199600F09560957095E195FF4F6F4F7F4F0895D5
:1019A600EE0FFF1FEE0FFF1FEE0FFF1F0895769538
:1019B6006795F795E79508956F2F660F660B762F57
:1019C6000895E894F7FF02C0DFDF6894EA23FB235B
:1019D6000EF4DADF0895E881F9816A817B81089542
:1019E600A881B9818A819B810895E883F9836A83F6
:1019F6007B8308955A934A933A932A931A930A93A8
:101A060008955D814C813B812A8119810881089561
:00000001FF
