:0E0000000C9447000C9487000C9400000C94A4
:10000E0000000C9400000C9400000C9400000C9462
:10001E0000000C9400000C9400000C9400000C9452
:10002E0000000C9400000C9400000C9400000C9442
:10003E0000000C9400000C9400000C9400000C9432
:10004E0000000C9400003738394F343536443132C5
:10005E0033434C30524554656D702843293A0000A5
:10006E0001002D4E414E00494E460000100069021F
:10007E005400090060026400010079026E00000065
:10008E00F894EE27ECBBF1E0FBBFEBBFE5BF8DE0D4
:10009E00A2E0BB27ED938A95E9F780E098E0A0E611
:1000AE00ED930197E9F7EAE7F0E0859195910097D6
:1000BE0061F0A591B59105901590BF01F0010590E5
:1000CE000D920197E1F7FB01F0CFEFE5EDBFE8E010
:1000DE00EEBFC0E6D2E00C947400E0EFE4BBEFEFAD
:1000EE00E5BBE5B3EF70E5BBE2E0E5BFE0E4EBBFF7
:1000FE0079D07894A1E059D0C2D0C6D0FFCFFFCF2F
:10010E000A921A92FA926A937A938A939A93AA937C
:10011E00BA93EA93FA93EFB7EA930E94C501EFEE12
:10012E000E94990111F000E012C0EFED0E949901BA
:10013E0011F001E00CC0EFEB0E94990111F002E00A
:10014E0006C0EFE7E5BBE3B3EF701E2F03E01E30F2
:10015E0011F430E009C01D3011F431E005C01B3040
:10016E0011F432E001C033E0E5B3EF70E5BBE02FF0
:10017E00A9E6B2E0F0E00E94C001AE0FBF1FEE276D
:10018E00A30FBE1FAC911AD00E94CA012496E9910A
:10019E00EFBFF991E991B991A991999189917991CD
:1001AE006991F9901990099018950E949F01C09835
:1001BE000E94A80185E38A95F1F705C00E949F0170
:1001CE00C09A0E94A801E8B3EF70AE2FE881E295C5
:1001DE00E07FEA2BE8BBC29A83E08A95F1F7C298DA
:1001EE0021960895EFEFE7BBC29880EA9FE0019752
:1001FE00F1F7A3E30E94AF01A2E30E94AF01A8E2D0
:10020E000E94AF01AEE00E94AF01A1E0CEDF80EA16
:10021E009FE00197F1F7A6E00E94AF010895AA931F
:10022E002497E0E8E883E0ECE983E4E9EA83E4ED8F
:10023E00EB83EC81F0E03197DE01AE0FBF1FEC9146
:10024E00AD81AE0FA1500E94AF0126960895BA93CC
:10025E00AA931A9310E0A981BA81EE27A10FBE1FAF
:10026E00EC91E03049F0A981BA81EE27A10FBE1FB3
:10027E00AC91A4DF1F5FEFCF188123960895E0EEB7
:10028E00E7B9E7E8E6B9089523971A9310E0A1E0DD
:10029E008CDFE1E0EA93A1E0C2DFA0E6B2E0D7DFB7
:1002AE00369A349BFECF15B1E12FF0E0FA93EA9324
:1002BE00DE0113960E946B01DE011196C8DFA4E6E3
:1002CE00B0E00E94B601E3CFBA93AA93A991B99177
:1002DE00E991F99130962AF4E095F09531966DE218
:1002EE006D93E89480E197E20DD088EE93E00AD00A
:1002FE0084E6992707D08AE005D06E2F10D06627A6
:10030E006C9308956627E817F90720F06395E81BAC
:10031E00F90BC9F7662311F416F008956894605D21
:10032E006D930895E5BBE3B3EF701E2F1F30089554
:10033E00AA93E8B3EF70AE2FE881E07FEA2BE8BB1B
:10034E000895C198C29A83E08A95F1F7C2980895EC
:10035E000E94DC0080E496E00197F1F70895109674
:10036E0039F0A89580ED97E00197F1F71197C9F74D
:10037E000895EE0FFF1FEE0FFF1F08953A932A9375
:10038E001A930A9308953B812A8119810881089551
:00000001FF
