:0C0000000C94B1030C94CE060C9400008C
:10000C000C9400000C9400000C94BC060C940000A2
:10001C000C9400000C9400000C9400000C94000054
:10002C000C9400000C9400000C9400000C94000044
:10003C000C9400000C9400000C9400000C94000034
:10004C000C9400000C9400001027E80364000A00D4
:10005C00010000100001100001000000010000056B
:10006C003738394F34353644313233434C305245BE
:10007C00220226022A022E02320236023A02FFFF26
:10008C0053756E004D6F6E005475650057656400B6
:10009C00546875004672690053617400313A2053FC
:1000AC0075626D69742053747564656E7420436F4A
:1000BC00646500323A205375626D69742057697417
:1000CC006820436172640054696D6520666F72200C
:1000DC007375626D69742069732066696E697368E3
:1000EC00656400456E74657220796F757220737447
:1000FC007564656E7420636F64653A004272696E54
:10010C006720796F75722063617264206E6561720D
:10011C00206465766963653A00343000496E766117
:10012C006C69642043617264004475706C6963612E
:10013C0074652053747564656E7420436F64650038
:10014C0025303278253032780053747564656E74BE
:10015C0020616464656420776974682049443A00BE
:10016C004E756D626572206F662073747564656E72
:10017C007473203A20002573002F0050726573733E
:10018C002043616E63656C20546F20476F20426181
:10019C00636B005374617274205472616E73666584
:1001AC007272696E672E2E2E005573617274205414
:1001BC0072616E736D69742046696E6973686564EB
:1001CC0000313A205365617263682053747564651D
:1001DC006E7400323A2044656C65746520537475F6
:1001EC0064656E7400456E74657220537475646535
:1001FC006E7420436F646520466F72205365617284
:10020C0063683A00456E7465722053747564656E4C
:10021C007420436F646520466F722044656C65746E
:10022C00653A00456E74657220536563726574207F
:10023C00436F646520286F722063616E63656C295F
:10024C000031203A20436C65617220454550524F75
:10025C004D002020202070726573732063616E63E3
:10026C00656C20746F206261636B0053657420545D
:10027C00696D6572286D696E75746573293A200015
:10028C00253032783A253032783A253032782020B1
:10029C00003230253032782F253032782F2530320D
:1002AC00782020253373004C6F676F7574202E2EC9
:1002BC002E00476F696E6720546F2041646D696E24
:1002CC00205061676520496E2032205365630049D8
:1002DC006E636F72726563742053747564656E74AB
:1002EC0020436F646520466F726D617400596F75A1
:1002FC002057696C6C204261636B204D656E7520D4
:10030C00496E2032205365636F6E64004475706CC7
:10031C0069636174652053747564656E7420436FF2
:10032C00646520456E74657265640053747564650C
:10033C006E7420436F6465205375636365737366D5
:10034C00756C6C7920416464656400596F75204D3F
:10035C00757374204669727374204C6F67696E00F4
:10036C00596F752057696C6C20476F2041646D691B
:10037C006E2050616765203220536563005374759D
:10038C0064656E7420436F646520466F756E6400FF
:10039C004F7073202C2053747564656E7420436FFA
:1003AC006465204E6F7420466F756E6400576169EA
:1003BC007420466F722044656C6574652E2E2E0079
:1003CC0053747564656E7420436F64652057617354
:1003DC002044656C657465640054696D65722073A6
:1003EC00746172746564004C6F67696E2053756339
:1003FC006365737366756C6C7900576169742E2E26
:10040C002E004F7073202C20736563726574206905
:10041C007320696E636F727265637400436C6561FF
:10042C0072696E6720454550524F4D202E2E2E007E
:10043C0054656D70657261747572652843293A0054
:10044C00313A20417474656E64616E636520496E47
:10045C00697469616C697A6174696F6E00323A20F3
:10046C0053747564656E74204D616E6167656D655E
:10047C006E7400333A205669657720507265736547
:10048C006E742053747564656E74732000343A2056
:10049C0054656D7065726174757265204D6F6E690F
:1004AC00746F72696E6700353A20526574726965B3
:1004BC0076652053747564656E74204461746100B4
:1004CC00363A2054726166666963204D6F6E6974AA
:1004DC006F72696E6700373A204C6F67696E2057F0
:1004EC006974682041646D696E00383A204C6F67FE
:1004FC006F757400393A205365742054696D6572B8
:10050C000044697374616E63653A20004572726FC2
:10051C0072004E6F204F62737461636C65002063D0
:10052C006D2000436F756E743A20000001002D4E53
:10053C00414E00494E4600000600040066001000C3
:10054C00DE076C00040022028C00040026029000DE
:10055C0004002A02940004002E02980004003202C7
:10056C009C0004003602A00004003A02A4000E0015
:10057C000E087C0017003E02A80014005502BF00B4
:10058C001C006902D30019008502EF001C009E02BA
:10059C00D3001D00BA0208010300D70225010D008B
:1005AC00DA0228011700E70235011700FE02550197
:1005BC00160015036C0102002B03060102002D032B
:1005CC00800102002F0385011800310387011600FA
:1005DC0049039F0118005F03B50112007703CD0199
:1005EC0012008903DF011F009B03F1011F00BA03F6
:1005FC0010021E00D9032F021100F7034D0219003F
:10060C0008045E021500210477020B003604B302C5
:10061C001D004104BE0202005E0480010200600461
:10062C0080010300620425011E006504DB021F002B
:10063C008304F9021F00A20418031F00C104F9026D
:10064C002000E00437031F000005F90215001F0508
:10065C0057031D0034056C03020051058001020094
:10066C00530580011300550589031F006805F90225
:10067C001D0087059C031F00A405F9020200C30599
:10068C0080010200C50580011300C7058903130012
:10069C00DA05B9031900ED05CC031F000606F902B3
:1006AC001D0025069C031F004206F902030061068B
:1006BC009A02030064069A020E006706E503020024
:1006CC007506800102007706800113007906F3039A
:1006DC0008008C0606041A0094060E041F00AE06D1
:1006EC00F9021400CD0628041000E1063C040200B7
:1006FC00F10680011D00F3064C0416001007690476
:10070C001A0026077F041A004007990419005A079B
:10071C00B30416007307CC0414008907E2040A0022
:10072C009D07F6040D00A7070005020030088A009B
:10073C000B00B4070D050600BF0718050C00C50714
:10074C001E050500D1072A050800D6072F05010054
:10075C00320838050000F894EE27ECBBF1E0FBBF43
:10076C00EBBFE5BF8DE0A2E0BB27ED938A95E9F7DF
:10077C0080E098E0A0E6ED930197E9F7E4E4F5E07A
:10078C0085919591009761F0A591B5910590159083
:10079C00BF01F00105900D920197E1F7FB01F0CF3D
:1007AC00EFE5EDBFE8E0EEBFC2E2D2E00C94DE0371
:1007BC002797E0EFE7BBEFEFE8BBE8B3EF70E8BBE0
:1007CC00E2E0E5BFE0E4EBBF8F9A9798A3E3B0E0DB
:1007DC000E94020C0E94890C0E94ED0A0E94AD0D31
:1007EC007894A1E00E94D90A552019F40E94680B54
:1007FC00BBC2E1E0E51571F40E941410AEE3B2E067
:10080C000E941C10A5E5B2E00E94200BE1E0E5156A
:10081C00E9F3AAC2E2E0E515B1F4992031F40E94A3
:10082C001410A9E6B2E00E9423100E941410A5E84F
:10083C00B2E00E941C100E942B10E2E0E515E9F3D7
:10084C000E94331091C2E3E0E51509F0B4C00E9498
:10085C003B10E3E0E51509F0ADC0992039F40E9496
:10086C001410AEE9B2E00E942310A4C00E94141030
:10087C00AAEBB2E00E941C100E9445100E94F90BDA
:10088C004E2FED3049F0E3E0E51531F40E944A10AB
:10089C00E251F84F4083F2CFE3E0E51519F00E94E6
:1008AC003B1088C00E944E10E7EDF2E00E945310FE
:1008BC0031F40E944A10E830A0E0FA0751F00E948F
:1008CC001410AAEDB2E00E94200B979A0E945A10C5
:1008DC006EC00E940F0CE13040F0979A0E941410E9
:1008EC00A7EEB2E00E94601062C00E94631000E0AC
:1008FC0010E00830E0E01E0774F40E9469100E94BA
:10090C006F10AEEEB7E0A00FB11FAC910E94E80BD8
:10091C000F5F1F4FEECF0E9474100E9485100E9433
:10092C008A100E94971000E010E00430E0E01E07EF
:10093C007CF40E94691038960E946F10ACE1B8E00C
:10094C00A00FB11FAC910E94E80B0F5F1F4FEDCFB2
:10095C000E949C100E948510ED810E94B010EA85C7
:10096C000E94B0100E94971004E010E00830E0E004
:10097C001E075CF40E94691038960E946F10F801F3
:10098C000E94B6100F5F1F4FF1CF0E94BC10A52F15
:10099C00AF5F0E94E80B0E941410AEEFB2E00E9411
:1009AC001C100E94C110A8EBBBE00E9432120E94E6
:1009BC003B104FCFD9C1E4E0E51519F40E94370B79
:1009CC00D3C1E5E0E51509F082C00E941410A5E141
:1009DC00B3E00E941C100E9463100E943B10E52F94
:1009EC000E94C5100E94C110A8EEB3E00E94321202
:1009FC0000E010E0E52FD801F0E0AE17BF070CF0D7
:100A0C005CC00E943B1020E030E02830E0E03E0764
:100A1C0084F4F901E251F84FFF93EF930E94CC104C
:100A2C00DF010E94DC0BAF91BF91EC932F5F3F4F26
:100A3C00ECCF0E94D3100E9414100E94C1100E948F
:100A4C003B1020E030E02830E0E03E077CF4F90178
:100A5C00E251F84FFF93EF930E94CC100E94DA10F2
:100A6C00AF91BF91EC932F5F3F4FEDCF0E94D3100E
:100A7C000E94DE100E94E310EEEEF7E00E94F010F0
:100A8C00ABE2B3E00E94FC10E0EFF7E00E94F01044
:100A9C00ADE2B3E00E94FC10E2EFF7E00E94F01030
:100AAC00AFE2B3E00E94FC10E4EFF7E00E94F0101C
:100ABC000E94FF100F5F1F4F9DCF0E941410A1E3E7
:100ACC00B3E00E94200BE5E0E515E9F34DC1E6E04B
:100ADC00E51509F087C00E941410A9E4B3E0AAD56B
:100AEC000E94631000E010E0E52FD801F0E0AE1793
:100AFC00BF070CF062C020E030E02830E0E03E0799
:100B0C005CF40E94CC10DF010E94DC0BAE2F0E9423
:100B1C00F30B2F5F3F4FF1CFADE00E94F30B20E0C2
:100B2C0030E02230E0E03E0754F40E94CC100E94EA
:100B3C00DA10AE2F0E94F30B2F5F3F4FF2CFAAE3D8
:100B4C000E94F30B22E030E02430E0E03E0754F446
:100B5C000E94CC100E94DA10AE2F0E94F30B2F5F74
:100B6C003F4FF2CFA0E20E94F30B24E030E026309E
:100B7C00E0E03E0754F40E94CC100E94DA10AE2F35
:100B8C000E94F30B2F5F3F4FF2CFAFE20E94F30BAB
:100B9C0026E030E02830E0E03E0754F40E94CC1010
:100BAC000E94DA10AE2F0E94F30B2F5F3F4FF2CF53
:100BBC000E9403110F5F1F4F97CF20E030E02830C9
:100BCC00E0E03E0734F4ADE30E94F30B2F5F3F4FA0
:100BDC00F6CF0E9403110E941410AFE5B3E00E94FF
:100BEC002310C2C0E7E0E51569F40E941410A7E7D2
:100BFC00B3E00E941C10A9E8B3E01CD5E7E0E515B2
:100C0C00E9F3B2C0E8E0E51571F40E941410ABE909
:100C1C00B3E00E941C100E942B10E8E0E515E9F3EC
:100C2C000E943310A1C0E9E0E51571F40E94141084
:100C3C00AAEBB3E00E941C100E942B10E9E0E51512
:100C4C00E9F30E94331090C0EAE0E51521F40E940C
:100C5C00DF0C552489C0EBE0E51521F50E9414103A
:100C6C00A9EDB3E00E941C100E942B10EBE0E515DF
:100C7C0011F4662009F001C0F9CFE1E0E61579F432
:100C8C000E9433100E941410A7EFB3E00E941C10B6
:100C9C00A8E0B4E0CFD4EBE0E515E9F302C00E9484
:100CAC00331062C0EEE0E515A1F40E941410ACE024
:100CBC007AD4E92D0E94C510A1E2B4E0BBD40E9405
:100CCC00C1100E944510EEE0E515E9F30E944510B5
:100CDC004BC0EDE0E51509F047C0EDE0E51509F076
:100CEC0043C0A1E060D40E947410ECE8F2E0FA93E7
:100CFC00EA930E948A10EA890E94B0108CE00E944C
:100D0C00D20F6096E1E00E940D11ACE1B8E092D4F4
:100D1C000E949C10EDE9F2E0FA93EA93EC810E94B8
:100D2C00B010E9850E94B010EE850E94B010EB89DE
:100D3C00F0E03197AEE0B8E0EE0FFF1FAE0FBF1F33
:100D4C000E94FC13662777270E94131480E10E94EF
:100D5C00D20F64960E94DE10ACE1B8E06BD4A8EE22
:100D6C00B3E00E943212B9CF3FCDFFCFEA93EFB779
:100D7C00EA938394ECE3E81511F49A948824E0E068
:100D8C00E4BD992009F4E9BFE991EFBFE991189509
:100D9C000A921A92FA926A937A938A939A93AA93E2
:100DAC00BA93EA93FA93EFB7EA9328970E94181430
:100DBC00EFEE0E94111111F000E012C0EFED0E9455
:100DCC00111111F001E00CC0EFEB0E94111111F0A8
:100DDC0002E006C0EFE7E8BBE6B3EF701E2F03E0BE
:100DEC001E3011F430E009C01D3011F431E005C0A3
:100DFC001B3011F432E001C033E0E8B3EF70E8BB14
:100E0C00552009F079C00E941711EC91F0E0F09791
:100E1C00E130A0E0FA0719F4E1E05E2E47C0E430BF
:100E2C00A0E0FA0719F4E4E05E2E40C0E330A0E045
:100E3C00FA0719F4E5E05E2E39C0E530A0E0FA07B8
:100E4C0019F4E6E05E2E32C0E230A0E0FA0719F4A5
:100E5C00E7E05E2E2BC0E630A0E0FA0719F4EAE0DA
:100E6C005E2E24C0E730A0E0FA0719F4EBE05E2E0A
:100E7C001DC0E930A0E0FA0719F4EEE05E2E16C0B2
:100E8C00E830A0E0FA0791F4F894E1E0E61571F48B
:100E9C000E941410A6E3B4E00E941C10A1E4B4E07C
:100EAC000E94231166247894EBE05E2E0E941711A9
:100EBC00AC91AC3451F4E0E0E41520F4E42DF0E016
:100ECC00319701C0E4E04E2E16C00E941711AC9170
:100EDC00A23551F4E42DF0E03196DF01E5E0F0E0CD
:100EEC000E94EE134E2E07C00E941711AC91AF3426
:100EFC0011F4EDE05E2E46C3E1E0E515E1F40E944D
:100F0C001711EC91F0E0E334A0E0FA0711F455244A
:100F1C0011C0E133A0E0FA0729F40E943B10E2E093
:100F2C005E2E08C0E233A0E0FA0721F40E943B10C9
:100F3C00E3E05E2E27C3E2E0E51509F0F8C00E945D
:100F4C001711AC91A33421F40E943B10E1E05E2E0A
:100F5C000E941711EC91F0E0FA977CF40E944A1071
:100F6C007F9750F40E944A100E9426110E942A1169
:100F7C000E942E11AC9123D3D9C00E941711AC91B1
:100F8C00A43461F40E944A105E2F513030F00E945C
:100F9C003311AEE5B4E00E943D11C8C00E94171198
:100FAC00AC91AF3481F40E9442110E944A100E940D
:100FBC00491130F4A0E6B4E03DD30E944E11F5CFB8
:100FCC000E945411B3C00E941711AC91A53409F0C2
:100FDC00A6C0F8940E944E10E2E6F4E00E94531072
:100FEC0031F40E944A10E830A0E0FA0761F0979AB9
:100FFC000E941410A5E6B4E00E941C10A3E8B4E013
:10100C000E94601088C005D4E13060F0979A0E946D
:10101C001410A2EAB4E00E941C10A1ECB4E00E94EF
:10102C00601079C00E9458112E2FE0E0EC87ED87FC
:10103C00AC85BD8518975CF40E945C110E9462110E
:10104C00E251F84FA081BED30E944E11F1CFFE01A8
:10105C003A96FA93EA93FE013D96FA93EA93ADB76A
:10106C00BEB74F937DD54F910E946B11EE850E94B8
:10107C00B010EB890E94B0100E949710E0E0EC8752
:10108C00ED87AC85BD85149764F40E945C1138968D
:10109C000E946211E45EF74FA08194D30E944E111E
:1010AC00F0CFFE013696FA93EA93FE013996FA9345
:1010BC00EA93FE013C96FA93EA93DE011F9661D502
:1010CC000E946B11EB850E94B010E8890E94B01051
:1010DC000E949710E4E0F0E0EC87FD87AC85BD85BD
:1010EC00189754F40E945C1138960E9462110E9469
:1010FC00B6100E944E11F2CF0E94BC10A22FAF5F0F
:10110C0061D30E941410A0EEB4E00E941C10A0E069
:10111C00B5E00E9423110E943B10789405C00E94F8
:10112C001711AC91A33411F4E1E05E2E2BC2E3E075
:10113C00E51551F40E941711AC91A33421F40E94CF
:10114C003B10E1E05E2E1EC2E4E0E51539F40E948E
:10115C001711AC91A33409F4552414C2E5E0E5153C
:10116C0039F40E941711AC91A33409F455240AC226
:10117C00E7E0E51571F50E941711AC91A33411F459
:10118C00552426C00E941711AC91A13311F4E8E04C
:10119C001EC00E941711AC91A23319F4E1E0E615C0
:1011AC0009F002C0E9E013C00E941711AC91A23300
:1011BC0011F4662009F00CC00E941410AFE1B5E0E8
:1011CC000E941C10A4E3B5E00E942311EBE05E2EFC
:1011DC00D9C1E8E0E51509F06DC00E941711AC917A
:1011EC00A33419F40E943B1062C00E941711EC91B9
:1011FC00F0E0FA977CF40E944A107F9750F40E941A
:10120C004A100E9426110E942A110E942E11AC91A4
:10121C00D6D14FC00E941711AC91A43461F40E9436
:10122C004A105E2F513030F00E943311A1E5B5E029
:10123C000E943D113EC00E941711AC91AF3481F455
:10124C000E9442110E944A100E94491130F4A3E5F9
:10125C00B5E0F0D10E944E11F5CF0E94541129C077
:10126C000E941711AC91A534E9F40E94701148F05A
:10127C000E941410A5E5B5E00E941C10A8E6B5E08C
:10128C0008C00E941410A7E8B5E00E941C10A4EA44
:10129C00B5E0D0D10E94FF100E943B10E7E05E2E1B
:1012AC00219607C00E941711AC91A33411F4E7E00A
:1012BC005E2E68C1E9E0E51509F072C00E941711B5
:1012CC00AC91A33429F40E943B10E7E05E2E67C07A
:1012DC000E941711EC91F0E0FA977CF40E944A10EE
:1012EC007F9750F40E944A100E9426110E942A11E6
:1012FC000E942E11AC9163D152C00E941711AC9177
:10130C00A43461F40E944A105E2F513030F00E94D8
:10131C003311A3ECB5E00E943D1141C00E9417119E
:10132C00AC91AF3481F40E9442110E944A100E9489
:10133C00491130F4A5ECB5E07DD10E944E11F5CFEA
:10134C000E9454112CC00E941711AC91A53439F590
:10135C000E947011A0F00E941410A7ECB5E00E943E
:10136C001C10AAEDB5E066D1A88195D20E9414108C
:10137C00ADEEB5E00E941C10A6E0B6E008C00E94DD
:10138C001410A5E2B6E00E941C10A2E4B6E052D103
:10139C000E94FF100E943B10E7E05E2E2196F2C0E7
:1013AC00EAE0E51539F40E941711AC91A33409F465
:1013BC005524E8C0EDE0E51539F40E941711AC9105
:1013CC00A33409F45524DEC0EEE0E51509F043C062
:1013DC000E941711AC91A33419F40E943B1039C030
:1013EC000E941711AC91A23581F4E4E19E1660F4D1
:1013FC009394E92D0E94C510E5E10E940D110E9405
:10140C00C110A1E6B6E016D125C00E941711AC910F
:10141C00AC3481F4E1E0E91560F49A94E92D0E9472
:10142C00C510E5E10E940D110E94C110A4E6B6E0C2
:10143C0001D110C00E941711AC91A53459F40E942F
:10144C001410A7E6B6E0F6D00E943B100E94FF10E5
:10145C00AED3552497C0EBE0E51519F4E1E0E615A1
:10146C0009F471C00E941711AC91A33421F40E94AD
:10147C003B10552467C00E941711EC91F0E0FA97CD
:10148C007CF40E944A107F9750F40E944A100E94EC
:10149C0026110E942A110E942E11AC9190D052C09C
:1014AC000E941711AC91A43461F40E944A105E2F73
:1014BC00513030F00E943311A5E7B6E00E943D1187
:1014CC0041C00E941711AC91AF3481F40E944211BB
:1014DC000E944A100E94491130F4A7E7B6E0AAD046
:1014EC000E944E11F5CF0E9454112CC00E9417116E
:1014FC00AC91A53439F52297AEEEB7E0DBD2E88398
:10150C00F983A881B981A436EFE0BE0769F40E9483
:10151C001410A9E7B6E00E941C10ACE8B6E00E94DB
:10152C002311E1E06E2E0AC00E941410A4E9B6E06B
:10153C000E941C10AEEAB6E00E9423110E943B10E0
:10154C00552422961FC0EBE0E51511F4662009F432
:10155C0019C00E941711EC91F0E0E334A0E0FA07F7
:10156C0011F455240CC0E133A0E0FA0741F4F894CF
:10157C000E941410ADECB6E05DD0FED078940E94C1
:10158C003B1055240E941F142E96E991EFBFF99140
:10159C00E991B991A9919991899179916991F99070
:1015AC001990099018950E947711D8980E94801173
:1015BC0080E892E00197F1F70E948711C0C20E9467
:1015CC007711D89A0E9480110E948711B8C2EFEF50
:1015DC00EABBDA9880E09AEF0197F1F7A3E30E9457
:1015EC009511A2E30E949511A8E20E9495110E9408
:1015FC003310A1E0D8DF80E09AEF0197F1F7A6E075
:10160C000E9495110895AA932497E0E8E883E0ECF2
:10161C00E983E4E9EA83E4EDEB83EC81F0E03197D4
:10162C00DE01AE0FBF1FEC91AD81AE0FA1500E9439
:10163C009511A5C2BA93AA931A9310E0A981BA8105
:10164C00EE27A10FBE1FEC91E03049F0A981BA81C1
:10165C00EE27A10FBE1FAC91B2DF1F5FEFCF188139
:10166C00BAC023971A9310E0D398E3EEE7B9E7E8F2
:10167C00E6B90E941410A1EEB6E0DCDFE4E0E5155B
:10168C00E9F4369A349BFECFE5B11E1791F015B1F3
:10169C00E12FF0E0FA93EA93DE0113960E94EE0D2F
:1016AC00E1E10E940D11DE011196C4DFA1EFB6E05D
:1016BC00C1DFA4EFB1E00E943212E0CFE0E0E6B966
:1016CC00188119C2552009F056C00E9414104420EC
:1016DC0071F4A3EFB6E00E941C10A0E1B7E0AADF02
:1016EC00442011F4552009F001C0FACF43C0E1E0C9
:1016FC00E41579F4A6E2B7E00E941C10A0E4B7E070
:10170C0099DFE1E0E41511F4552009F001C0F9CF9F
:10171C0031C0E2E0E41579F4AAE5B7E00E941C10B0
:10172C00A3E7B7E087DFE2E0E41511F4552009F0F8
:10173C0001C0F9CF1FC0E3E0E41579F4A9E8B7E0E4
:10174C000E941C10ADE9B7E075DFE3E0E41511F47D
:10175C00552009F001C0F9CF0DC0E4E0E41551F4B7
:10176C00A7EAB7E067DFE4E0E41511F4552009F0CF
:10177C0001C0F9CFA7CF08951A930A9300E010E0A7
:10178C000030E4E01E0778F4E199FECFE12FF07011
:10179C00E370EFBBE02FEEBBE0E0EDBBE29AE19A29
:1017AC000F5F1F4FEDCF099119910895BA93AA932A
:1017BC001A93E199FECF0E949811E09A1DB3E12F84
:1017CC00188109C0AA93E199FECF0E949811E88173
:1017DC00EDBBE29AE19A23960895AA935D9BFECF06
:1017EC00E881ECB9ACC15F9903C0E3E0E51509F001
:1017FC0001C0F9CFECB10895BA93AA93E881E9B985
:10180C00E981F070E0BDE8E1EAB9E6E0E0BD2296DE
:10181C0008952A970E941A140E9458111E2F00E056
:10182C000117A0F5FE013496FA93EA93E0E0EA93EF
:10183C00AAE0B0E00E941C0E30E0383078F4E32FC0
:10184C00F0E0DE011496EA0FFB1FFF93EF930E946A
:10185C009F11AF91BF91EC933F5FEFCFE32FF0E07F
:10186C00DE011496AE0FBF1FE0E0EC93FE01349640
:10187C00FA93EA930E944E10A8E00E94450EE030C5
:10188C0019F4E02FEF5F03C00F5FCACFE0E00E94B6
:10189C0021142E960895AA930E941A140E9458118E
:1018AC001E2F0C81101730F130E0383050F40E94AC
:1018BC009F110E94AA11FA93EA93A22F83DF3F5F34
:1018CC00F4CF30E03830A0F4A32FBB27E02FF0E0AA
:1018DC0031960E94C813AE0FBF1F189667DF0E9487
:1018EC00AA113896FA93EA93A22F6CDF3F5FEACFE6
:1018FC000F5FD8CF0E94BC10A12FA15063DF0E94B4
:10190C0021140C949C0E8D9A8E980895959A80EEC5
:10191C0091E00197F1F7959808952897E0E0EC8312
:10192C00ED83EE83EF830E94B31130F4869B01C0EC
:10193C0003C00E94BF11F7CF0E94B31119F4EFEF4F
:10194C00FFEF33C1E0E0EFBDE3E0EEBDE0E0F0E03F
:10195C00FDBDECBDEC83ED83EE83EF830E94B311F0
:10196C0070F4869B0CC0ECB5FDB5E136AAEEFA0717
:10197C0018F0EEEFFFEF19C10E94BF11EFCFECB5DD
:10198C00FDB5662777270E940E14E0E0EEBD0E949D
:10199C000914A136EAEEBE07E0E08E07E0E09E07F0
:1019AC0018F0EEEFFFEF01C10E9404140E94D11356
:1019BC00FCC060970E9418144FEF5FEF0E94141048
:1019CC00A4EBB7E037DEEAE0E51509F06FC09EDF67
:1019DC00A4DF8F01EFEFFFEFE017F10729F40E946E
:1019EC001410AFEBB7E05CC0EEEFFFEFE017F107C0
:1019FC0029F40E941410A5ECB7E052C0F801662738
:101A0C0077270E94A212A6E9B3E48BE09DE30E9423
:101A1C002513DF01CB01E0E0F0E060E070E40E9410
:101A2C007313A0E0B0E080E09FE30E94D5120E9407
:101A3C006B129F014217530781F0A9013A932A9325
:101A4C00DE0118960E94EE0DEBE00E940D11DE01F6
:101A5C001696F0DDA1EDB7E0EDDD2630E0E03E07B7
:101A6C000CF47394E0913008F0913108A72DB0E09C
:101A7C00EA17FB07B1F0E72DF0E0E0933008F093A4
:101A8C0031080E94DE10E72DF0E0FA93EA93DE01B4
:101A9C0018960E94EE0DA6EDB7E0CCDDDE01169691
:101AAC00C9DDA4EFB1E00E9432128DCF0E941F1449
:101ABC0066960895BA93AA931A930A9300E010E0DD
:101ACC00AA81BB81EC91E03099F0AFE1A09FF001CD
:101ADC00A19FF00D0F01AA81BB81EC91F0E0E00D0C
:101AEC00F11D8F01EA81FB813196EA83FB83E8CFFC
:101AFC00F8011981088124960895E0E0E1B9E7E442
:101B0C00E0B9E4E0E6BF0895E4EAE6BFE6B7E078C2
:101B1C00E9F30895AA93E881E3B9E4E8E6BFE6B7F0
:101B2C00E078E9F30CC0AA93E881E295E07FEE0F30
:101B3C00EE0FE468E6BFE6B7E078E9F3E3B121968F
:101B4C000895E4E9E6BFE6B7E4FDFDCF0895D5DFDF
:101B5C000E94CC11A7E0DEDFA0E00E94D111089515
:101B6C00BA93AA930E94CC11A0E00E94D1110E94BA
:101B7C00D511A0E0D8DFAC81BD81EC93E2DF2696D5
:101B8C000895BA93AA930E94CC11A3E00E94D1119C
:101B9C000E94D511A1E0C7DFAC81BD81EC93A0E020
:101BAC00C2DFAE81BF81EC93CCDF28960895E0E0D4
:101BBC00E9BFE8E0E2BDE0E0E4BDE5BDE5B5E56028
:101BCC00E5BDE2B5E570E9F7E0E4E8BFE9BF0895EB
:101BDC00BA93AA93A991B991E991F99130962AF403
:101BEC00E095F09531966DE26D93E89480E197E283
:101BFC000DD088EE93E00AD084E6992707D08AE0CE
:101C0C0005D06E2F10D066276C9308956627E817C1
:101C1C00F90720F06395E81BF90BC9F7662311F45B
:101C2C0016F008956894605D6D930895BA93AA9325
:101C3C00B981A881109631F0FC81EB816A816193A6
:101C4C001197E9F7EB81FC810C949C0EBA93AA9343
:101C5C00A991B991EE27FF276D91662311F031966A
:101C6C00FBCF0895BA93AA93AA27BB27E991F991C0
:101C7C000590002011F01196FBCFFD010895AA9359
:101C8C00662777278991E991F991A991B9918823D0
:101C9C0049F08A956D917191671721F46623B9F714
:101CAC00EE270895671BE1F3E1E008F4E250089594
:101CBC00BA93AA931A930A93AA81BB8112960E9493
:101CCC00FC13309759F1AA81BB8114960E94FC1326
:101CDC008F01309761F00230E0E01E0798F0F801B8
:101CEC0031978F01AA81BB811496ED93FC93AA8145
:101CFC00BB811296ED91FD913196FE93EE93319747
:101D0C00AC81A083AA81BB810E94FC13FF232AF023
:101D1C00ED91FD913196FE93EE9306C0AA81BB81A5
:101D2C00EFEFFFEFED93FC93198108812596089551
:101D3C00BA93AA9326970E94181410E0AC85BD851F
:101D4C00E0E0F0E0ED93FC93EA89FB893196EA8BB5
:101D5C00FB8B3197E4912E2FE03009F415C1E12F64
:101D6C00E03039F4253211F411E002C00E94E71181
:101D7C000AC1E130A9F4253219F40E94E71102C11D
:101D8C0012E040E000E02D3211F401E0FCC02B32F7
:101D9C0011F44BE2F8C0203211F440E2F4C002C05E
:101DAC00E23039F450E013E0203311F40068EBC05A
:101DBC0003C0E33009F0E7C0203310F02A3308F0F9
:101DCC0007C0AAE05A9F502DE22FE0535E0FDBC0F4
:101DDC00E22FE33649F40E94EE11E889F989A481D7
:101DEC00AA930E94F411CEC0E33741F40E94EE1185
:101DFC000E94FA110E942C0E1E2F0AC0E03761F4CB
:101E0C000E94EE110E94FA110E94380E1E2F0860DB
:101E1C0002600F7730E034C0E43611F0E93611F48B
:101E2C00046002C0E53731F4E4E5F0E0EE83FF83B3
:101E3C0015E00CC0E83511F4086003C0E83709F070
:101E4C00A1C0EEE5F0E0EE83FF8314E002FF14C0C6
:101E5C000E94EE110E940412AB85AA233AF4EA8583
:101E6C00FB850E94BC13EA87FB874DE2403011F0E2
:101E7C001F5F01C00B7F04C00E94EE110E94041270
:101E8C0000FD11C0151778F407FF08C002FF04C04D
:101E9C000B7F242F115001C020E301C020E20E94CF
:101EAC00E7115150EFCF312F01FF17C03030A1F0A7
:101EBC0003FF06C0EE81FF812591EE83FF8305C0F1
:101ECC00AE81BF812D91AE83BF830E94E71150304C
:101EDC0009F051503150EACF4BC020E3EE81FF8125
:101EEC000E940014E887F987EE81FF813296EE8319
:101EFC00FF83E885F985AA85BB85AE17BF0750F02F
:101F0C002F5FA885B985EA85FB85EA1BFB0BEA8761
:101F1C00FB87EFCF2A3328F003FF02C0295F01C0F3
:101F2C00295D04FD1AC0213320F4A885B9851197C9
:101F3C0009F409C0531710F000FF01C013C020E2D0
:101F4C0007FF0BC020E3006102FF07C00B7F4A9321
:101F5C000E94F411503009F051500E94E71150309A
:101F6C0009F051503150A885B985129708F0B5CFBA
:101F7C0000FF08C0503031F05150E0E2EA930E946B
:101F8C00F411F8CF10E0E0CEAC85BD850E94FC13B7
:101F9C000E941F1464960895FF92F82E26970E94B3
:101FAC001A140E940C12309719F4EFEFFFEF31C0A6
:101FBC00DE0116960E94B8138D010E940C12EE835E
:101FCC00FF83E0E0E887E9870E94131221C0FF92AB
:101FDC00F82E26970E941A1420E030E00E942B1253
:101FEC00309719F4EFEFFFEF14C00E940C123097EA
:101FFC0079F0DE0116960E94B8138D010E942B1207
:10200C00EE83FF830E940C12E887F9870E9413125B
:10201C00F9010E9421142A96FF900895A1E00E94D4
:10202C00D90AE1E0EA93A1E00C94090B0E94200B81
:10203C00E1E0EA93A2E00C94090B0E94200BA0EDC6
:10204C00B7E00E94321255240895AFE00E94D90ADD
:10205C0080E89CE00197F1F70895ACE00E94D90A62
:10206C0080E89CE00197F1F70895EEEEF7E0FA9323
:10207C00EA93E0E0EA93A0E2B0E00C941C0E80E856
:10208C009CE00197F1F70895AEEEB7E00C942C0E9E
:10209C00EEEEF7E0FA93EA930895FA93EA93A2E04E
:1020AC000E94450EE0300895A0EDB7E00E94321278
:1020BC00979808950E94200BF7CFA0E0B0E00E9403
:1020CC00DC0B5E2F0895E52FF0E031960E94C813CB
:1020DC000895E00FF11FFA93EA930895FE013496E8
:1020EC00FA93EA93FE013796FA93EA93DE011A9675
:1020FC000E94B60DECE1F8E0FA93EA930895ECE453
:10210C00F1E0FA93EA930895E885FF27662777278D
:10211C000E941314ED85FF27662777270E9413145E
:10212C00089588E00E94D20F2C960895FE01FA9330
:10213C00EA93FE013396FA93EA93FE013696FA93EC
:10214C00EA93DE0119960E94C70DECE1F8E0FA93D0
:10215C00EA930895FF27662777270E9413140895A2
:10216C003497E45EF74FA0810C94E80BE0E0F0E0CC
:10217C00FA93EA930895AEEEB7E00C94200BF0E0DE
:10218C00FA93EA93AEEEB7E00C94EE0DF8013196AB
:10219C000E94C813E20FF31F0895AEEEB7E0A20F32
:1021AC00B31FE0E0EC9308953896DF010C94DC0B40
:1021BC00E1E0EA93A2E00C94090BECE1F8E0FA936D
:1021CC00EA93E3E0F0E0FA93EA93E2E8F1E0FA93C1
:1021DC00EA930895662777270E94131484E00E94DF
:1021EC00ED0F2A96ACE1B8E00C94200B0E94200B6A
:1021FC00E4CFA0EDB7E00C943212ADE00E94F30BEB
:10220C00ADE00E94F30BA4EFB1E00C943212EA9310
:10221C00A1E00C94090BE8BBE6B3EF701E2F1F3046
:10222C000895E02FAEEDB7E0F0E00E94CC13AE0FB6
:10223C00BF1FEE27A30FBE1F08950E94200BD9CFFE
:10224C00E251F84F0F01EDCFEC91D001EC931CCF84
:10225C00E151F84FA0E0A083E4CFE52FF0E03197F7
:10226C00E251F84FA0E0A083A0E10C94D90A0E949F
:10227C00200BA0E10C94D90AA0EC0E94D90AE0E052
:10228C00EC87ED870895AC85BD85AE17BF07089523
:10229C00EC85FD853196EC87FD870895A0EC0E94B6
:1022AC00D90AE3CEA0E0B0E00C94DC0BE22FF0E016
:1022BC0031960E94C8130895AC85BD85EA0FFB1FAB
:1022CC00FA93EA93EE85FF850895ECE1F8E0FA9332
:1022DC00EA9315CF21970E940F0CE883A881A130B7
:1022EC000895AA93EBB3EF70AE2FE881E07FEA2B51
:1022FC00EBBB0895D998DA9A8BE28A95F1F7DA98C4
:10230C000895EBB3EF70AE2FE881E295E07FEA2BF6
:10231C00EBBBDA9A8BE28A95F1F7DA9808950E9472
:10232C00D90AADCEEA81F070E370EFBBE981EEBB68
:10233C000895A32FBB27E02FF0E031960E94C8131D
:10234C00AE0FBF1F0C94DC0B2E2FA32FBB27E0E18D
:10235C00E09FF001EA0FFB1F0895AC81BD818E81D7
:10236C009F81A03CE7E2BE07E9E08E07E0E09E0714
:10237C000895EC81FD816E817F81EF5FFF4F6F4F80
:10238C007F4FEC83FD836E837F8308950E948A0DBB
:10239C00A0ED0C94900D0E94900D0C94A70D0E9432
:1023AC008A0DA1ED0E94900DA1E00E94990DA881CB
:1023BC00B981EC93A1E00E94990DAA81BB81EC93A9
:1023CC0008952A93AD85BE85EF85F8890995089502
:1023DC00E889F9893497E88BF98B0895AD85BE852A
:1023EC00EF85F88909950895A889B98914960E94F2
:1023FC00FC13EE83FF83AE81BF810895A889B98950
:10240C0014960E94FC13EA87FB870895DE011C9644
:10241C000E94B8130E94FC130895DE011A960E94C4
:10242C00B8130E94FC13FA93EA931A930A93EEE5FD
:10243C00FEE0FA93EA93DE011A960E949E0E9F012B
:10244C00AE81BF81E0E0EC930895DE011E960E9400
:10245C00B8130E94FC130895109639F0A89580EDDE
:10246C0097E00197F1F71197C9F70895552342F4B6
:10247C00503811F4E0FF04C03196691F791F6BF0DE
:10248C0050E8572711F45F93C8C05F3F31F0660FD7
:10249C00000C57956795752F08955F9300200AF0EF
:1024AC00C8C0C1C050E8192E1522880F991F952756
:1024BC00550F879550E8072E0522660F771F752755
:1024CC00550F67950895689401C0E8945F93F2DF07
:1024DC00703818F07F3F08F4A0C056E1571BAAF4DF
:1024EC00519558300EF4593030F0EFEFFFEF6FEF9D
:1024FC007FE777F91AC077275523B9F0EE0FFF1F46
:10250C00661F771F5A95D1F710C07727583028F0DF
:10251C00EF2FF62F672F5850F9CF552331F07695C2
:10252C006795F795E7955A95D1F700200AF422D1D3
:10253C005F910895689401C0E894309760407040B2
:10254C00B1F0002426F0772312F4009413D1172E47
:10255C007EE1112032F07A95EE0FFF1F661F111CE1
:10256C00F9CFEF2FF62F612D5F938ADF5F910895DE
:10257C004F93AF01FD01DA01AB01BC01CA01402D43
:10258C00012C142E4F910895EA0FFB1F681F08951C
:10259C00E095F0956095EF5FFF4F6F4F08955F9357
:1025AC0081DF903839F1703821F1572F591B2BF1FD
:1025BC0012F4DEDFFACF583118F0AA27BB27882790
:1025CC00583028F0AB2FB82F88275850F9CF552307
:1025DC0029F08695B795A7955A95D9F7502D512581
:1025EC0072F0D2DF38F46795F795E795739513F48D
:1025FC0020C0BEDF45DF5F910895D8F7FBCFEA1B03
:10260C00FB0B680B51F010F40094C2DF662392F3BD
:10261C00EE0FFF1F661F7A95CBF7EE27FF27662775
:10262C0077275F910895EFEFFFEF6FE77FEF5F91F3
:10263C000895EFEFFFEF6FE77FE75F9108955F93EA
:10264C0031DF703851F3903841F301240894791F2D
:10265C0023F41CF300203AF3ECCF0F921F932F932B
:10266C003F934F93112722279927689FA0018F9F93
:10267C00302D410D591F6B9F300D411D591F8E9FE1
:10268C0027D0BF9F25D06A9F23D0BE9F1DD0AF9F60
:10269C001BD0AE9F110D291F391F491F591FE32F46
:1026AC00F42F652F522F4F913F912F911F910F9027
:1026BC0066232AF0550FEE1FFF1F661F02C073958D
:1026CC004BF2D4DE5F910895100D211D391F02C00D
:1026DC00200D311D491F591F08955F93E3DE70389B
:1026EC0021F411200AF49FCFA4CF903809F495CF90
:1026FC0001240894970B1BF4D4F30020F3CF792F0B
:10270C001F932F933F934F93112411272227332785
:10271C004427552790E2AE17BF078607410730F0D4
:10272C00AE1BBF0B860B410B089401C08894551F40
:10273C00221F331F111CAA1FBB1F881F441F9A95F1
:10274C0051F7F901612D4F913F912F911F91662304
:10275C0032F0550FEE1FFF1F661F7A9543F286DE8F
:10276C005F9108950024AF0DB01D0895F195E1958A
:10277C00F0400895F09560957095E195FF4F6F4F7F
:10278C007F4F0895EE0FFF1FEE0FFF1FEE0FFF1F81
:10279C00EE0FFF1F089576956795F795E7950895C9
:1027AC006F2F660F660B762F08950024112490E18D
:1027BC00AA0FBB1F001C111C0E1A1F0A18F40E0EB8
:1027CC001F1E01C0A1609A9599F7FD01D0010895D3
:1027DC00E894B7FF04C0A095B09511966894F7FDE6
:1027EC00C5DFE3DFFD010EF4C1DF0895ED91FC912F
:1027FC00119708950590F491E02D0895E881F981E1
:10280C006A817B810895A881B9818A819B81089511
:10281C00E883F9836A837B8308957A936A93FA93A6
:10282C00EA9308955A934A933A932A931A930A93E4
:10283C0008955D814C813B812A811981088108951D
:00000001FF
