:060000000C94FD000C94BD
:10000600C3010C9400000C9400000C9400000C94A6
:1000160000000C9400000C9400000C9400000C945A
:1000260000000C9400000C9400000C9400000C944A
:1000360000000C9400000C9400000C9400000C943A
:1000460000000C9400000C9400000C9400000000CA
:100056003738394F34353644313233434C305245D4
:10006600313A7375626D69742073747564656E7464
:1000760020636F64650070726573732063616E63DD
:10008600656C20746F206261636B00456E746572E7
:1000960020796F75722073747564656E7420636F52
:1000A60064653A004E756D626572206F66207374E2
:1000B6007564656E7473203A200050726573732000
:1000C60063616E63656C20746F20676F2062616385
:1000D6006B00636C656172696E6720656570726F2F
:1000E6006D202E2E2E0054656D702843293A00315E
:1000F6003A20417474656E64616E636520496E6969
:100106007469616C697A6174696F6E00323A205362
:10011600747564656E74204D616E6167656D656E9C
:100126007400333A20566965772050726573656EA0
:10013600742053747564656E74732000343A2054C9
:10014600656D7065726174757265204D6F6E697448
:100156006F72696E6700353A20526574726965760A
:10016600652053747564656E74204461746100364D
:100176003A2054726166666963204D6F6E69746FCA
:1001860072696E67000001002D4E414E00494E46D1
:1001960000000200040054001000850356001600FB
:1001A60060026600150076027C0019008B02910041
:1001B6001600A402AA001800BA02C0001400D20257
:1001C600D8000900E602EC001D00EF02F50016005B
:1001D6000C0312011A00220328011A003C034201F3
:1001E600190056035C0116006F0375010100B50383
:1001F6008C010000F894EE27ECBBF1E0FBBFEBBFEF
:10020600E5BF8DE0A2E0BB27ED938A95E9F780E094
:1002160098E0A0E6ED930197E9F7E8E9F1E085912A
:100226009591009761F0A591B59105901590BF0144
:10023600F00105900D920197E1F7FB01F0CFEFE594
:10024600EDBFE8E0EEBFC0E6D2E00C942A01E0EF95
:10025600E4BBEFEFE5BBE5B3EF70E5BBE2E0E5BF7E
:10026600E0E4EBBFA7D17894A1E087D1EFD1042CCD
:10027600052811F412D282C00E94070469F40E9474
:100286000C04A0E6B2E00E941404A6E7B2E0C7D1CF
:100296000E940704E9F372C00E941B0481F40E94C5
:1002A6000C04ABE8B2E00E941404AFE00E94200404
:1002B6000E941B04E9F3ACE00E9420045FC00E9488
:1002C600270411F4C8D15AC00E942C0409F056C064
:1002D6000E940C04A4EAB2E00E941404A0E0B0E07C
:1002E60032D25E2F0E943104E52FF0E0FA93EA93B2
:1002F600A5E9B3E00E94BD03A5E9B3E090D1A8EC5F
:10030600B0E00E947F0400E010E0E52FD801F0E0A5
:10031600AE17BF075CF50E94310420E030E02830BC
:10032600E0E03E079CF4F901EB56FC4FFF93EF9398
:10033600F80131960E948D04E20FF31FDF0103D20C
:10034600AF91BF91EC932F5F3F4FE9CFA5E9B3E0A3
:10035600A20FB31FE0E0EC930E940C04A5E9B3E002
:100366005ED10E943B040F5F1F4FCFCF0E940C044B
:10037600AAEBB2E054D10E942C04E9F378CFFFCF68
:100386000A921A92FA926A937A938A939A93AA9302
:10039600BA93EA93FA93EFB7EA930E94B504EFEEA5
:1003A6000E943F0411F000E012C0EFED0E943F04EE
:1003B60011F001E00CC0EFEB0E943F0411F002E0E7
:1003C60006C0EFE7E5BBE3B3EF701E2F03E01E3078
:1003D60011F430E009C01D3011F431E005C01B30C6
:1003E60011F432E001C033E0E5B3EF70E5BB042C55
:1003F600052881F50E944504F097E130A0E0FA0750
:1004060021F4E1E0F0E02F0124C0E430A0E0FA0797
:1004160021F4E3E0F0E02F011CC0E330A0E0FA078E
:1004260021F4E4E0F0E02F0114C0E530A0E0FA0783
:1004360021F4E5E0F0E02F010CC0E930A0E0FA0776
:1004460041F4F8940E940C04A2EDB2E0E8D061D128
:10045600789482C00E94070499F40E944504E3340C
:10046600A0E0FA0719F44424552409C0E133A0E0BA
:10047600FA0729F40E943104E2E0F0E02F016CC093
:100486000E941B0409F053C00E944504FA97CCF45D
:100496000E9453047F97A0F40E945304EB56FC4F2E
:1004A6000F010E945704EC91D001EC930E94530473
:1004B600EA56FC4FA0E0A0830E945704AC9166D098
:1004C60035C00E945704AC91A53441F5A0E0B0E0D8
:1004D6003AD12E2F40E050E04830E0E05E0794F439
:1004E600E22FF0E031960E948D04E40FF51FFA9397
:1004F600EA93A5E9B3E0A40FB51FAC9130D14F5FE5
:100506005F4FEACFE0E0F0E0FA93EA93A22FAF5F05
:1005160026D10E9431044424552408C00E94570461
:10052600AC91A33419F4E1E0F0E02F0115C00E946C
:10053600270441F40E945704AC91A33411F44424D7
:1005460055240AC00E942C0439F40E945704AC9129
:10055600A33411F4442455240E94BC042696E99140
:10056600EFBFF991E991B991A99199918991799101
:100576006991F9901990099018950E946304C098A2
:100586000E946C0485E38A95F1F705C00E94630416
:10059600C09A0E946C04E8B3EF70AE2FE881E29532
:1005A600E07FEA2BE8BBC29A83E08A95F1F7C2980E
:1005B60021960895EFEFE7BBC29880EA9FE0019786
:1005C600F1F7A3E30E942004A2E30E942004A8E21C
:1005D6000E942004ACE00E942004A1E0CEDF80EA65
:1005E6009FE00197F1F7A6E00E9420040895AA93E0
:1005F6002497E0E8E883E0ECE983E4E9EA83E4EDC4
:10060600EB83EC81F0E03197DE01AE0FBF1FEC917A
:10061600AD81AE0FA1500E94200426960895BA938C
:10062600AA931A9310E0A981BA81EE27A10FBE1FE3
:10063600EC91E03049F0A981BA81EE27A10FBE1FE7
:10064600AC91A4DF1F5FEFCF188192C0E0EEE7B94F
:10065600E7E8E6B9089523971A9310E00E94270465
:10066600C9F40E940C04A6EEB2E0D9DF369A349B98
:10067600FECF15B1E12FF0E0FA93EA93DE0113966F
:100686000E94BD03DE011196CADFA4E6B0E00E9417
:100696007F04E4CF1881249608951A9310E0042C61
:1006A6000528A9F50E940C04103061F4AFEEB2E003
:1006B6000E941404ACE0B3E00E94730411F40E949B
:1006C6003B041BC0113061F4A2E2B3E00E941404A3
:1006D600ACE3B3E00E94730411F40E943B040DC026
:1006E6001230A1F4A6E5B3E00E941404AFE6B3E02D
:1006F6000E94730411F40E943B04E12FF0E031964E
:10070600DF01E3E0F0E00E94A7041E2FC8CF199195
:1007160008951A930A9300E010E00030E4E01E0703
:1007260078F4E199FECFE12FF070E370EFBBE02F94
:10073600EEBBE0E0EDBBE29AE19A0F5F1F4FEDCF13
:10074600099119910895BA93AA931A93E199FECF44
:100756000E947804E09A1DB3E12F188109C0AA937C
:10076600E199FECF0E947804E881EDBBE29AE19A16
:1007760023960895BA93AA93A991B991E991F9910B
:1007860030962AF4E095F09531966DE26D93E894F3
:1007960080E197E20DD088EE93E00AD084E69927AF
:1007A60007D08AE005D06E2F10D066276C93089587
:1007B6006627E817F90720F06395E81BF90BC9F7D8
:1007C600662311F416F008956894605D6D9308959C
:1007D600BA93AA93B981A881109631F0FC81EB8176
:1007E6006A8161931197E9F7EB81FC81259608955B
:1007F600BA93AA93A991B991EE27FF276D91662323
:1008060011F03196FBCF0895E1E0F0E0E415F5052F
:100816000895A1E00E94C002E1E0EA93A1E00C94F1
:10082600FA020E941203E1E0EA93A2E00C94FA02B3
:10083600E2E0F0E0E415F50508950E94C00280E4C8
:1008460096E00197F1F70895E3E0F0E0E415F50589
:100856000895E4E0F0E0E415F5050895E5E9F3E030
:10086600FA93EA93E0E0EA93A0E2B0E00C94EB039B
:10087600AAEFB0E00C947F04E5BBE3B3EF701E2F44
:100886001F300895E02FA5E8B3E0F0E00E948F0442
:10089600AE0FBF1FEE27A30FBE1FEC91F0E0089529
:1008A600A5E9B3E00C94FB03E02FA5E8B3E0F0E084
:1008B6000E948F04AE0FBF1FEE27A30FBE1F089521
:1008C600AA93E8B3EF70AE2FE881E07FEA2BE8BB8E
:1008D6000895C198C29A83E08A95F1F7C29808955F
:1008E6000E941203042C05280895EA81F070E37033
:1008F600EFBBE981EEBB0895109639F0A89580ED1F
:1009060097E00197F1F71197C9F70895F195E195E9
:10091600F0400895EE0FFF1FEE0FFF1FEE0FFF1FB3
:1009260008950024112490E1AA0FBB1F001C111C7E
:100936000E1A1F0A18F40E0E1F1E01C0A1609A950A
:1009460099F7FD01D0010895E894B7FF04C0A0957A
:10095600B09511966894F7FDD9DFE3DFFD010EF43B
:10096600D5DF08955A934A933A932A931A930A9392
:1009760008955D814C813B812A8119810881089502
:00000001FF
