:0A0000000C94BB030C94F8060C945A
:10000A0000000C9400000C9400000C94E6060C947A
:10001A0000000C9400000C9400000C9400000C9456
:10002A0000000C9400000C9400000C9400000C9446
:10003A0000000C9400000C9400000C9400000C9436
:10004A0000000C9400000C9400001027E8036400E0
:10005A000A00010000100001100001000000010068
:10006A0000053738394F34353644313233434C3052
:10007A005245220226022A022E02320236023A028F
:10008A000000000000000000000000000000000066
:10009A0000000000FFFF53756E004D6F6E0054752F
:1000AA0065005765640054687500467269005361BB
:1000BA007400313A205375626D6974205374756403
:1000CA00656E7420436F646500323A205375626D21
:1000DA006974205769746820436172640054696DB9
:1000EA006520666F72207375626D6974206973206A
:1000FA0066696E697368656400456E746572207915
:10010A006F75722073747564656E7420636F6465AD
:10011A003A004272696E6720796F75722063617264
:10012A0064206E656172206465766963653A00349D
:10013A003000496E76616C696420436172640044E0
:10014A0075706C69636174652053747564656E7447
:10015A0020436F64650025303278253032780053A9
:10016A00747564656E74206164646564207769746B
:10017A00682049443A004E756D626572206F6620A8
:10018A0073747564656E7473203A20002573002FAA
:10019A000050726573732043616E63656C20546FFF
:1001AA0020476F204261636B00537461727420545C
:1001BA0072616E7366657272696E672E2E2E0055B5
:1001CA0073617274205472616E736D69742046692A
:1001DA006E697368656400313A20536561726368B9
:1001EA002053747564656E7400323A2044656C65F8
:1001FA0074652053747564656E7400456E74657217
:10020A002053747564656E7420436F646520466F6D
:10021A0072205365617263683A00456E7465722094
:10022A0053747564656E7420436F646520466F72FB
:10023A002044656C6574653A00456E746572205396
:10024A00656372657420436F646520286F7220634A
:10025A00616E63656C290031203A20436C656172D6
:10026A0020454550524F4D00202020207072657362
:10027A00732063616E63656C20746F206261636BC7
:10028A00005365742054696D6572286D696E7574C2
:10029A006573293A2000253032783A253032783A87
:1002AA00253032782020003230253032782F253020
:1002BA0032782F253032782020253373004C6F672F
:1002CA006F7574202E2E2E00476F696E6720546F4B
:1002DA002041646D696E205061676520496E203245
:1002EA002053656300496E636F72726563742053AD
:1002FA00747564656E7420436F646520466F726D11
:10030A00617400596F752057696C6C204261636B88
:10031A00204D656E7520496E2032205365636F6EDD
:10032A0064004475706C6963617465205374756404
:10033A00656E7420436F646520456E7465726564EA
:10034A000053747564656E7420436F646520537539
:10035A00636365737366756C6C7920416464656464
:10036A0000596F75204D7573742046697273742035
:10037A004C6F67696E00596F752057696C6C20471E
:10038A006F2041646D696E20506167652032205389
:10039A0065630053747564656E7420436F646520E9
:1003AA00466F756E64004F7073202C205374756409
:1003BA00656E7420436F6465204E6F7420466F75B6
:1003CA006E64005761697420466F722044656C65DB
:1003DA0074652E2E2E0053747564656E7420436FF7
:1003EA006465205761732044656C657465640054C4
:1003FA00696D65722073746172746564004C6F670D
:10040A00696E205375636365737366756C6C7900E6
:10041A00576169742E2E2E004F7073202C2073653D
:10042A006372657420697320696E636F72726563A3
:10043A007400436C656172696E6720454550524F7E
:10044A004D202E2E2E0054656D7065726174757282
:10045A00652843293A00313A20417474656E646113
:10046A006E636520496E697469616C697A61746941
:10047A006F6E00323A2053747564656E74204D6154
:10048A006E6167656D656E7400333A2056696577EB
:10049A002050726573656E742053747564656E744A
:1004AA00732000343A2054656D70657261747572F8
:1004BA0065204D6F6E69746F72696E6700353A20F8
:1004CA0052657472696576652053747564656E74D5
:1004DA00204461746100363A205472616666696329
:1004EA00204D6F6E69746F72696E6700373A204CDF
:1004FA006F67696E20576974682041646D696E0080
:10050A00383A204C6F676F757400393A2053657416
:10051A002054696D65720044697374616E63653A4B
:10052A0020004572726F72004E6F204F62737461C1
:10053A00636C650020636D2000436F756E743A200A
:10054A00000001002D4E414E00494E4600000600B3
:10055A00040066001000DE076C0004002202A000FE
:10056A0004002602A40004002A02A80004002E02A5
:10057A00AC0004003202B00004003602B4000400E9
:10058A003A02B8000E000E087C0017003E02BC00BA
:10059A0014005502D3001C006902E7001900850205
:1005AA0003011C009E02E7001D00BA021C010300A1
:1005BA00D70239010D00DA023C011700E7024901AE
:1005CA001700FE02690116001503800102002B03C1
:1005DA001A0102002D03940102002F039901180049
:1005EA0031039B0116004903B30118005F03C901D7
:1005FA0012007703E10112008903F3011F009B0334
:10060A0005021F00BA0324021E00D9034302110087
:10061A00F7036102190008047202150021048B0213
:10062A000B003604C7021D004104D20202005E0418
:10063A0094010200600494010300620439011E005F
:10064A006504EF021F0083040D031F00A2042C039C
:10065A001F00C1040D032000E0044B031F00000526
:10066A000D0315001F056B031D00340580030200EE
:10067A0051059401020053059401130055059D0389
:10068A001F0068050D031D008705B0031F00A405A0
:10069A000D030200C30594010200C505940113006D
:1006AA00C7059D031300DA05CD031900ED05E00324
:1006BA001F0006060D031D002506B0031F00420693
:1006CA000D0303006106AE0203006406AE020E00CB
:1006DA006706F90302007506940102007706940181
:1006EA0013007906070408008C061A041A009406F7
:1006FA0022041F00AE060D031400CD063C041000B0
:10070A00E10650040200F10694011D00F30660049C
:10071A00160010077D041A00260793041A004007E2
:10072A00AD0419005A07C70416007307E004140041
:10073A008907F6040A009D070A050D00A707140594
:10074A00020030089E000B00B40721050600BF070F
:10075A002C050C00C50732050500D1073E05080027
:10076A00D6074305010032084C050000F894EE272D
:10077A00ECBBF1E0FBBFEBBFE5BF8DE0A2E0BB271E
:10078A00ED938A95E9F780E098E0A0E6ED9301976A
:10079A00E9F7E8E5F5E085919591009761F0A59173
:1007AA00B59105901590BF01F00105900D92019742
:1007BA00E1F7FB01F0CFEFE5EDBFE8E0EEBFC2E203
:1007CA00D2E00C94E8036B9784E1A0E0B0E0EAE899
:1007DA00F0E00E947614E0EFE7BBEFEFE8BBE8B386
:1007EA00EF70E8BBE2E0E5BFE0E4EBBF8F9A9798D1
:1007FA00A3E3B0E00E94300C0E94B70C0E941B0BCE
:10080A000E94DB0D7894A1E00E94070B552019F491
:10081A000E94960BD4C2E1E0E51571F40E946310C0
:10082A00AEE3B2E00E946B10A5E5B2E00E944E0B67
:10083A00E1E0E515E9F3C3C2E2E0E515B1F4992078
:10084A0031F40E946310A9E6B2E00E9472100E947D
:10085A006310A5E8B2E00E946B100E947A10E2E0F1
:10086A00E515E9F30E948210AAC2E3E0E51509F052
:10087A00B4C00E948A10E3E0E51509F0ADC09920E2
:10088A0039F40E946310AEE9B2E00E947210A4C06B
:10089A000E946310AAEBB2E00E946B100E949410AF
:1008AA000E94270C4E2FED3049F0E3E0E51531F4B4
:1008BA000E949910E251F84F4083F2CFE3E0E51528
:1008CA0019F00E948A1088C00E949D10E7EDF2E09C
:1008DA000E94A21031F40E949910E830A0E0FA07B1
:1008EA0051F00E946310AAEDB2E00E944E0B979A53
:1008FA000E94A9106EC00E943D0CE13040F0979A08
:10090A000E946310A7EEB2E00E94AF1062C00E947C
:10091A00B21000E010E00830E0E01E0774F40E9414
:10092A00B8100E94BE10AEEEB7E0A00FB11FAC9196
:10093A000E94160C0F5F1F4FEECF0E94C3100E9439
:10094A00D4100E94D9100E94E61000E010E0043092
:10095A00E0E01E077CF40E94B81038960E94BE1090
:10096A00ACE1B8E0A00FB11FAC910E94160C0F5F6A
:10097A001F4FEDCF0E94EB100E94D410E98D0E9408
:10098A000011EE8D0E9400110E94E61004E010E0B2
:10099A000830E0E01E075CF40E94B81038960E9406
:1009AA00BE10F8010E9406110F5F1F4FF1CF0E947F
:1009BA000C11A52FAF5F0E94160C0E946310AEEFB8
:1009CA00B2E00E946B100E941111A8EBBBE00E94DA
:1009DA0082120E948A104FCFF2C1E4E0E51519F4A1
:1009EA000E94650BECC1E5E0E51509F082C00E94A2
:1009FA006310A5E1B3E00E946B100E94B2100E943E
:100A0A008A10E52F0E9415110E941111A8EEB3E079
:100A1A000E94821200E010E0E52FD801F0E0AE1744
:100A2A00BF070CF05CC00E948A1020E030E028303A
:100A3A00E0E03E0784F4F901E251F84FFF93EF93A7
:100A4A000E941C11DF010E940A0CAF91BF91EC9326
:100A5A002F5F3F4FECCF0E9423110E9463100E9428
:100A6A0011110E948A1020E030E02830E0E03E07B1
:100A7A007CF4F901E251F84FFF93EF930E941C11A5
:100A8A000E942A11AF91BF91EC932F5F3F4FEDCF98
:100A9A000E9423110E942E110E943311EEEEF7E0FC
:100AAA000E944011ABE2B3E00E944C11E0EFF7E084
:100ABA000E944011ADE2B3E00E944C11E2EFF7E070
:100ACA000E944011AFE2B3E00E944C11E4EFF7E05C
:100ADA000E9440110E944F110F5F1F4F9DCF0E942D
:100AEA006310A1E3B3E00E944E0BE5E0E515E9F3DC
:100AFA0066C1E6E0E51509F088C00E946310A9E422
:100B0A00B3E00E944E0B0E94B21000E010E0E52F05
:100B1A00D801F0E0AE17BF070CF062C020E030E069
:100B2A002830E0E03E075CF40E941C11DF010E94BD
:100B3A000A0CAE2F0E94210C2F5F3F4FF1CFADE080
:100B4A000E94210C20E030E02230E0E03E0754F41D
:100B5A000E941C110E942A11AE2F0E94210C2F5FA5
:100B6A003F4FF2CFAAE30E94210C22E030E024306A
:100B7A00E0E03E0754F40E941C110E942A11AE2F95
:100B8A000E94210C2F5F3F4FF2CFA0E20E94210C5E
:100B9A0024E030E02630E0E03E0754F40E941C11C5
:100BAA000E942A11AE2F0E94210C2F5F3F4FF2CFD5
:100BBA00AFE20E94210C26E030E02830E0E03E0758
:100BCA0054F40E941C110E942A11AE2F0E94210C7B
:100BDA002F5F3F4FF2CF0E9453110F5F1F4F97CFE6
:100BEA0020E030E02830E0E03E0734F4ADE30E9434
:100BFA00210C2F5F3F4FF6CF0E9453110E946310C2
:100C0A00AFE5B3E00E947210DAC0E7E0E51569F4D7
:100C1A000E946310A7E7B3E00E946B10A9E8B3E053
:100C2A0038D5E7E0E515E9F3CAC0E8E0E51571F45F
:100C3A000E946310ABE9B3E00E946B100E947A1025
:100C4A00E8E0E515E9F30E948210B9C0E9E0E5158C
:100C5A0071F40E946310AAEBB3E00E946B100E9429
:100C6A007A10E9E0E515E9F30E948210A8C0EAE0EB
:100C7A00E51521F40E940D0D5524A1C0EBE0E51500
:100C8A0021F50E946310A9EDB3E00E946B100E9447
:100C9A007A10EBE0E51511F4662009F001C0F9CFEE
:100CAA00E1E0E61579F40E9482100E946310A7EF32
:100CBA00B3E00E946B10A8E0B4E0EBD4EBE0E515DA
:100CCA00E9F302C00E9482107AC0EEE0E515A1F4B1
:100CDA000E946310ACE096D4E92D0E941511A1E29E
:100CEA00B4E0D7D40E9411110E949410EEE0E515E9
:100CFA00E9F30E94941063C0EDE0E51509F05FC0C6
:100D0A00A1E080D4FE01FA93EA93E0E0EA93A4E139
:100D1A00B0E00E944A0EEDE0E51509F050C00E94CD
:100D2A00C310E0EAF2E0FA93EA930E94D910EEA126
:100D3A000E9400118CE00E9421106096E1E00E945E
:100D4A005D11ACE1B8E0A5D40E94EB10E1EBF2E052
:100D5A00FA93EA93E88D0E940011ED8D0E9400112A
:100D6A00EAA10E940011EFA1F0E03197AEE0B8E0ED
:100D7A00EE0FFF1FAE0FBF1F0E944C146627772786
:100D8A000E94631480E10E94211064960E946111FE
:100D9A00DE0112960E945A0EE03061F00E942E1176
:100DAA00ACE1B8E076D4FE01FA93EA93ACE1B8E09C
:100DBA000E946E0EA8EEB3E00E948212ACCF26CD3E
:100DCA00FFCFEA93EFB7EA938394ECE3E81511F4C3
:100DDA009A948824E0E0E4BD992009F4E9BFE991F6
:100DEA00EFBFE99118950A921A92FA926A937A9346
:100DFA008A939A93AA93BA93EA93FA93EFB7EA93E8
:100E0A0028970E946814EFEE0E94661111F000E024
:100E1A0012C0EFED0E94661111F001E00CC0EFEB79
:100E2A000E94661111F002E006C0EFE7E8BBE6B3E4
:100E3A00EF701E2F03E01E3011F430E009C01D30A0
:100E4A0011F431E005C01B3011F432E001C033E087
:100E5A00E8B3EF70E8BB552009F079C00E946C1125
:100E6A00EC91F0E0F097E130A0E0FA0719F4E1E044
:100E7A005E2E47C0E430A0E0FA0719F4E4E05E2EE3
:100E8A0040C0E330A0E0FA0719F4E5E05E2E39C06D
:100E9A00E530A0E0FA0719F4E6E05E2E32C0E2304F
:100EAA00A0E0FA0719F4E7E05E2E2BC0E630A0E0D6
:100EBA00FA0719F4EAE05E2E24C0E730A0E0FA0748
:100ECA0019F4EBE05E2E1DC0E930A0E0FA0719F430
:100EDA00EEE05E2E16C0E830A0E0FA0791F4F8942E
:100EEA00E1E0E61571F40E946310A6E3B4E00E9403
:100EFA006B10A1E4B4E00E94781166247894EBE0C8
:100F0A005E2E0E946C11AC91AC3451F4E0E0E41511
:100F1A0020F4E42DF0E0319701C0E4E04E2E16C033
:100F2A000E946C11AC91A23551F4E42DF0E0319697
:100F3A00DF01E5E0F0E00E943E144E2E07C00E9459
:100F4A006C11AC91AF3411F4EDE05E2E4AC3E1E0CE
:100F5A00E515E1F40E946C11EC91F0E0E334A0E0B5
:100F6A00FA0711F4552411C0E133A0E0FA0729F475
:100F7A000E948A10E2E05E2E08C0E233A0E0FA077F
:100F8A0021F40E948A10E3E05E2E2BC3E2E0E5150D
:100F9A0009F0FCC00E946C11AC91A33421F40E94A8
:100FAA008A10E1E05E2E0E946C11EC91F0E0FA9753
:100FBA007CF40E9499107F9750F40E9499100E9425
:100FCA007B110E947F110E948311AC9127D3DDC04F
:100FDA000E946C11AC91A43461F40E9499105E2FA6
:100FEA00513030F00E948811AEE5B4E00E949211AF
:100FFA00CCC00E946C11AC91AF3481F40E9497115D
:10100A000E9499100E949E1130F4A0E6B4E041D3E8
:10101A000E94A311F5CF0E94A911B7C00E946C11BA
:10102A00AC91A53409F0AAC0F8940E949D10E2E69A
:10103A00F4E00E94A21031F40E949910E830A0E076
:10104A00FA0761F0979A0E946310A5E6B4E00E943D
:10105A006B10A3E8B4E00E94AF108CC009D4E13051
:10106A0060F0979A0E946310A2EAB4E00E946B10A3
:10107A00A1ECB4E00E94AF107DC00E94AD112E2FEA
:10108A00E0E0EC87ED87AC85BD8518975CF40E949B
:10109A00B1110E94B711E251F84FA081C2D30E9448
:1010AA00A311F1CFFE013A96FA93EA93FE013D9617
:1010BA00FA93EA93ADB7BEB74F9381D54F910E9489
:1010CA0061110E94D410EE850E940011EB890E94E2
:1010DA0000110E94E610E0E0EC87ED87AC85BD8543
:1010EA00149764F40E94B11138960E94B711E45E15
:1010FA00F74FA08196D30E94A311F0CFFE01369636
:10110A00FA93EA93FE013996FA93EA93FE013C9622
:10111A00FA93EA93DE011F9663D50E9461110E9439
:10112A00D410EB850E940011E8890E9400110E94E8
:10113A00E610E4E0F0E0EC87FD87AC85BD85189702
:10114A0054F40E94B11138960E94B7110E940611F8
:10115A000E94A311F2CF0E940C11A22FAF5F61D39C
:10116A000E946310A0EEB4E00E946B10A0E0B5E00C
:10117A000E9478110E948A10789405C00E946C110E
:10118A00AC91A33411F4E1E05E2E2BC2E3E0E51545
:10119A0051F40E946C11AC91A33421F40E948A107C
:1011AA00E1E05E2E1EC2E4E0E51539F40E946C11FE
:1011BA00AC91A33409F4552414C2E5E0E51539F4D9
:1011CA000E946C11AC91A33409F455240AC2E7E0D9
:1011DA00E51571F50E946C11AC91A33411F45524F4
:1011EA0026C00E946C11AC91A13311F4E8E01EC034
:1011FA000E946C11AC91A23319F4E1E0E61509F0F2
:10120A0002C0E9E013C00E946C11AC91A23311F440
:10121A00662009F00CC00E946310AFE1B5E00E949D
:10122A006B10A4E3B5E00E947811EBE05E2ED9C101
:10123A00E8E0E51509F06DC00E946C11AC91A33489
:10124A0019F40E948A1062C00E946C11EC91F0E0BD
:10125A00FA977CF40E9499107F9750F40E94991093
:10126A000E947B110E947F110E948311AC91D6D1FA
:10127A004FC00E946C11AC91A43461F40E94991081
:10128A005E2F513030F00E948811A1E5B5E00E942E
:10129A0092113EC00E946C11AC91AF3481F40E944D
:1012AA0097110E9499100E949E1130F4A3E5B5E0AF
:1012BA00F0D10E94A311F5CF0E94A91129C00E9462
:1012CA006C11AC91A534E9F40E94C01148F00E9457
:1012DA006310A5E5B5E00E946B10A8E6B5E008C06A
:1012EA000E946310A7E8B5E00E946B10A4EAB5E07B
:1012FA00D0D10E944F110E948A10E7E05E2E2196FB
:10130A0007C00E946C11AC91A33411F4E7E05E2E81
:10131A0068C1E9E0E51509F072C00E946C11AC9150
:10132A00A33429F40E948A10E7E05E2E67C00E9467
:10133A006C11EC91F0E0FA977CF40E9499107F9777
:10134A0050F40E9499100E947B110E947F110E9402
:10135A008311AC9163D152C00E946C11AC91A43438
:10136A0061F40E9499105E2F513030F00E9488116A
:10137A00A3ECB5E00E94921141C00E946C11AC919D
:10138A00AF3481F40E9497110E9499100E949E1115
:10139A0030F4A5ECB5E07DD10E94A311F5CF0E94EF
:1013AA00A9112CC00E946C11AC91A53439F50E9488
:1013BA00C011A0F00E946310A7ECB5E00E946B1068
:1013CA00AAEDB5E066D1A88195D20E946310ADEE70
:1013DA00B5E00E946B10A6E0B6E008C00E94631058
:1013EA00A5E2B6E00E946B10A2E4B6E052D10E94D8
:1013FA004F110E948A10E7E05E2E2196F2C0EAE0C1
:10140A00E51539F40E946C11AC91A33409F4552402
:10141A00E8C0EDE0E51539F40E946C11AC91A334F3
:10142A0009F45524DEC0EEE0E51509F043C00E9438
:10143A006C11AC91A33419F40E948A1039C00E942D
:10144A006C11AC91A23581F4E4E19E1660F4939498
:10145A00E92D0E941511E5E10E945D110E9411110A
:10146A00A1E6B6E016D125C00E946C11AC91AC344D
:10147A0081F4E1E0E91560F49A94E92D0E941511CE
:10148A00E5E10E945D110E941111A4E6B6E001D1C6
:10149A0010C00E946C11AC91A53459F40E946310DB
:1014AA00A7E6B6E0F6D00E948A100E944F11AED38A
:1014BA00552497C0EBE0E51519F4E1E0E61509F4C7
:1014CA0071C00E946C11AC91A33421F40E948A105D
:1014DA00552467C00E946C11EC91F0E0FA977CF4F5
:1014EA000E9499107F9750F40E9499100E947B11D4
:1014FA000E947F110E948311AC9190D052C00E9429
:10150A006C11AC91A43461F40E9499105E2F513091
:10151A0030F00E948811A5E7B6E00E94921141C0FE
:10152A000E946C11AC91AF3481F40E9497110E9411
:10153A0099100E949E1130F4A7E7B6E0AAD00E9443
:10154A00A311F5CF0E94A9112CC00E946C11AC9175
:10155A00A53439F52297AEEEB7E0DBD2E883F983FA
:10156A00A881B981A436EFE0BE0769F40E9463102E
:10157A00A9E7B6E00E946B10ACE8B6E00E947811C9
:10158A00E1E06E2E0AC00E946310A4E9B6E00E9450
:10159A006B10AEEAB6E00E9478110E948A105524B8
:1015AA0022961FC0EBE0E51511F4662009F419C074
:1015BA000E946C11EC91F0E0E334A0E0FA0711F418
:1015CA0055240CC0E133A0E0FA0741F4F8940E94D4
:1015DA006310ADECB6E05DD0FED078940E948A101C
:1015EA0055240E946F142E96E991EFBFF991E99163
:1015FA00B991A9919991899179916991F9901990E3
:10160A00099018950E94C711D8980E94D01180E8B5
:10161A0092E00197F1F70E94D711C0C20E94C71148
:10162A00D89A0E94D0110E94D711B8C2EFEFEABB34
:10163A00DA9880E09AEF0197F1F7A3E30E94E511A7
:10164A00A2E30E94E511A8E20E94E5110E9482101D
:10165A00A1E0D8DF80E09AEF0197F1F7A6E00E94B7
:10166A00E5110895AA932497E0E8E883E0ECE9837A
:10167A00E4E9EA83E4EDEB83EC81F0E03197DE0103
:10168A00AE0FBF1FEC91AD81AE0FA1500E94E511C4
:10169A00A5C2BA93AA931A9310E0A981BA81EE2738
:1016AA00A10FBE1FEC91E03049F0A981BA81EE2763
:1016BA00A10FBE1FAC91B2DF1F5FEFCF1881BAC076
:1016CA0023971A9310E0D398E3EEE7B9E7E8E6B96F
:1016DA000E946310A1EEB6E0DCDFE4E0E515E9F470
:1016EA00369A349BFECFE5B11E1791F015B1E12F62
:1016FA00F0E0FA93EA93DE0113960E941C0EE1E1F0
:10170A000E945D11DE011196C4DFA1EFB6E0C1DFD0
:10171A00A4EFB1E00E948212E0CFE0E0E6B91881BE
:10172A0019C2552009F056C00E946310442071F472
:10173A00A3EFB6E00E946B10A0E1B7E0AADF442055
:10174A0011F4552009F001C0FACF43C0E1E0E415D5
:10175A0079F4A6E2B7E00E946B10A0E4B7E099DF43
:10176A00E1E0E41511F4552009F001C0F9CF31C0C8
:10177A00E2E0E41579F4AAE5B7E00E946B10A3E76A
:10178A00B7E087DFE2E0E41511F4552009F001C063
:10179A00F9CF1FC0E3E0E41579F4A9E8B7E00E94A5
:1017AA006B10ADE9B7E075DFE3E0E41511F45520FD
:1017BA0009F001C0F9CF0DC0E4E0E41551F4A7EA3D
:1017CA00B7E067DFE4E0E41511F4552009F001C041
:1017DA00F9CFA7CF08951A930A9300E010E00030DA
:1017EA00E4E01E0778F4E199FECFE12FF070E37090
:1017FA00EFBBE02FEEBBE0E0EDBBE29AE19A0F5FB0
:10180A001F4FEDCF099119910895BA93AA931A938C
:10181A00E199FECF0E94E811E09A1DB3E12F1881E9
:10182A0009C0AA93E199FECF0E94E811E881EDBBB5
:10183A00E29AE19A23960895AA935D9BFECFE881E6
:10184A00ECB9ACC15F9903C0E3E0E51509F001C04A
:10185A00F9CFECB10895BA93AA93E881E9B9E9817D
:10186A00F070E0BDE8E1EAB9E6E0E0BD229608954D
:10187A002A970E946A140E94AD111E2F00E00117D8
:10188A00A0F5FE013496FA93EA93E0E0EA93AAE01F
:10189A00B0E00E944A0E30E0383078F4E32FF0E0EE
:1018AA00DE011496EA0FFB1FFF93EF930E94EF11DC
:1018BA00AF91BF91EC933F5FEFCFE32FF0E0DE01F2
:1018CA001496AE0FBF1FE0E0EC93FE013496FA9334
:1018DA00EA930E949D10A8E00E94940EE03019F449
:1018EA00E02FEF5F03C00F5FCACFE0E00E947114E0
:1018FA002E960895AA930E946A140E94AD111E2F73
:10190A000C81101730F130E0383050F40E94EF119A
:10191A000E94FA11FA93EA93A22F83DF3F5FF4CF72
:10192A0030E03830A0F4A32FBB27E02FF0E0319647
:10193A000E941814AE0FBF1F189667DF0E94FA1193
:10194A003896FA93EA93A22F6CDF3F5FEACF0F5FD4
:10195A00D8CF0E940C11A12FA15063DF0E947114ED
:10196A000C94EB0E8D9A8E980895959A80EE91E0DC
:10197A000197F1F7959808952897E0E0EC83ED83B5
:10198A00EE83EF830E94031230F4869B01C003C0EA
:10199A000E940F12F7CF0E94031219F4EFEFFFEF24
:1019AA0033C1E0E0EFBDE3E0EEBDE0E0F0E0FDBD15
:1019BA00ECBDEC83ED83EE83EF830E94031270F497
:1019CA00869B0CC0ECB5FDB5E136AAEEFA0718F015
:1019DA00EEEFFFEF19C10E940F12EFCFECB5FDB584
:1019EA00662777270E945E14E0E0EEBD0E94591434
:1019FA00A136EAEEBE07E0E08E07E0E09E0718F0A7
:101A0A00EEEFFFEF01C10E9454140E942114FCC0A2
:101A1A0060970E9468144FEF5FEF0E946310A4EB77
:101A2A00B7E037DEEAE0E51509F06FC09EDFA4DF14
:101A3A008F01EFEFFFEFE017F10729F40E9463101F
:101A4A00AFEBB7E05CC0EEEFFFEFE017F10729F468
:101A5A000E946310A5ECB7E052C0F8016627772709
:101A6A000E94F212A6E9B3E48BE09DE30E9475138B
:101A7A00DF01CB01E0E0F0E060E070E40E94C31314
:101A8A00A0E0B0E080E09FE30E9425130E94BB1211
:101A9A009F014217530781F0A9013A932A93DE0165
:101AAA0018960E941C0EEBE00E945D11DE0116964C
:101ABA00F0DDA1EDB7E0EDDD2630E0E03E070CF405
:101ACA007394E0913008F0913108A72DB0E0EA173D
:101ADA00FB07B1F0E72DF0E0E0933008F09331080E
:101AEA000E942E11E72DF0E0FA93EA93DE01189690
:101AFA000E941C0EA6EDB7E0CCDDDE011696C9DD0C
:101B0A00A4EFB1E00E9482128DCF0E946F146696F4
:101B1A000895BA93AA931A930A9300E010E0AA814F
:101B2A00BB81EC91E03099F0AFE1A09FF001A19F59
:101B3A00F00D0F01AA81BB81EC91F0E0E00DF11DDF
:101B4A008F01EA81FB813196EA83FB83E8CFF801B2
:101B5A001981088124960895E0E0E1B9E7E4E0B943
:101B6A00E4E0E6BF0895E4EAE6BFE6B7E078E9F321
:101B7A000895AA93E881E3B9E4E8E6BFE6B7E07816
:101B8A00E9F30CC0AA93E881E295E07FEE0FEE0F2D
:101B9A00E468E6BFE6B7E078E9F3E3B12196089591
:101BAA00E4E9E6BFE6B7E4FDFDCF0895D5DF0E947C
:101BBA001C12A7E0DEDFA0E00E9421120895BA936A
:101BCA00AA930E941C12A0E00E9421120E942512D0
:101BDA00A0E0D8DFAC81BD81EC93E2DF26960895C0
:101BEA00BA93AA930E941C12A3E00E9421120E9497
:101BFA002512A1E0C7DFAC81BD81EC93A0E0C2DF72
:101C0A00AE81BF81EC93CCDF28960895E0E0E9BF6E
:101C1A00E8E0E2BDE0E0E4BDE5BDE5B5E560E5BDCF
:101C2A00E2B5E570E9F7E0E4E8BFE9BF0895BA93E1
:101C3A00AA93A991B991E991F99130962AF4E0957C
:101C4A00F09531966DE26D93E89480E197E20DD0BC
:101C5A0088EE93E00AD084E6992707D08AE005D077
:101C6A006E2F10D066276C9308956627E817F90738
:101C7A0020F06395E81BF90BC9F7662311F416F0F7
:101C8A0008956894605D6D930895BA93AA93B98193
:101C9A00A881109631F0FC81EB816A8161931197DA
:101CAA00E9F7EB81FC810C94EB0EBA93AA93E991C4
:101CBA00F991A991B9916D917191671721F46623F0
:101CCA00D1F7EE270895671BE1F3E1E008F4E2504B
:101CDA000895BA93AA93E991F991A991B991CD017D
:101CEA0061916D936623E1F7FC010895BA93AA9373
:101CFA00A991B991EE27FF276D91662311F03196CC
:101D0A00FBCF0895BA93AA93AA27BB27E991F99121
:101D1A000590002011F01196FBCFFD010895AA93BA
:101D2A00662777278991E991F991A991B991882331
:101D3A0049F08A956D917191671721F46623B9F775
:101D4A00EE270895671BE1F3E1E008F4E2500895F5
:101D5A00BA93AA931A930A93AA81BB8112960E94F4
:101D6A004C14309759F1AA81BB8114960E944C14E5
:101D7A008F01309761F00230E0E01E0798F0F80119
:101D8A0031978F01AA81BB811496ED93FC93AA81A6
:101D9A00BB811296ED91FD913196FE93EE933197A8
:101DAA00AC81A083AA81BB810E944C14FF232AF034
:101DBA00ED91FD913196FE93EE9306C0AA81BB8107
:101DCA00EFEFFFEFED93FC931981088125960895B3
:101DDA00BA93AA9326970E94681410E0AC85BD8531
:101DEA00E0E0F0E0ED93FC93EA89FB893196EA8B17
:101DFA00FB8B3197E4912E2FE03009F415C1E12FC6
:101E0A00E03039F4253211F411E002C00E94371291
:101E1A000AC1E130A9F4253219F40E94371202C12D
:101E2A0012E040E000E02D3211F401E0FCC02B3258
:101E3A0011F44BE2F8C0203211F440E2F4C002C0BF
:101E4A00E23039F450E013E0203311F40068EBC0BB
:101E5A0003C0E33009F0E7C0203310F02A3308F05A
:101E6A0007C0AAE05A9F502DE22FE0535E0FDBC055
:101E7A00E22FE33649F40E943E12E889F989A481E7
:101E8A00AA930E944412CEC0E33741F40E943E1244
:101E9A000E944A120E947B0E1E2F0AC0E03761F48C
:101EAA000E943E120E944A120E94870E1E2F08604C
:101EBA0002600F7730E034C0E43611F0E93611F4ED
:101ECA00046002C0E53731F4E4E5F0E0EE83FF8315
:101EDA0015E00CC0E83511F4086003C0E83709F0D2
:101EEA00A1C0EEE5F0E0EE83FF8314E002FF14C028
:101EFA000E943E120E945412AB85AA233AF4EA8544
:101F0A00FB850E940C14EA87FB874DE2403011F0F2
:101F1A001F5F01C00B7F04C00E943E120E94541230
:101F2A0000FD11C0151778F407FF08C002FF04C0AE
:101F3A000B7F242F115001C020E301C020E20E9430
:101F4A0037125150EFCF312F01FF17C03030A1F0B7
:101F5A0003FF06C0EE81FF812591EE83FF8305C052
:101F6A00AE81BF812D91AE83BF830E94371250305C
:101F7A0009F051503150EACF4BC020E3EE81FF8186
:101F8A000E945014E887F987EE81FF813296EE832A
:101F9A00FF83E885F985AA85BB85AE17BF0750F090
:101FAA002F5FA885B985EA85FB85EA1BFB0BEA87C3
:101FBA00FB87EFCF2A3328F003FF02C0295F01C055
:101FCA00295D04FD1AC0213320F4A885B98511972B
:101FDA0009F409C0531710F000FF01C013C020E232
:101FEA0007FF0BC020E3006102FF07C00B7F4A9383
:101FFA000E944412503009F051500E94371250305A
:10200A0009F051503150A885B985129708F0B5CF1B
:10201A0000FF08C0503031F05150E0E2EA930E94CC
:10202A004412F8CF10E0E0CEAC85BD850E944C1476
:10203A000E946F1464960895FF92F82E26970E94C4
:10204A006A140E945C12309719F4EFEFFFEF31C067
:10205A00DE0116960E9408148D010E945C12EE831E
:10206A00FF83E0E0E887E9870E94631221C0FF92BC
:10207A00F82E26970E946A1420E030E00E947B1214
:10208A00309719F4EFEFFFEF14C00E945C123097FB
:10209A0079F0DE0116960E9408148D010E947B12C7
:1020AA00EE83FF830E945C12E887F9870E9463121D
:1020BA00F9010E9471142A96FF900895A1E00E94E6
:1020CA00070BE1E0EA93A1E00C94370B0E944E0B58
:1020DA00E1E0EA93A2E00C94370B0E944E0BA0EDCC
:1020EA00B7E00E94821255240895AFE00E94070BC0
:1020FA0080E89CE00197F1F70895ACE00E94070B95
:10210A0080E89CE00197F1F70895EEEEF7E0FA9384
:10211A00EA93E0E0EA93A0E2B0E00C944A0E80E889
:10212A009CE00197F1F70895AEEEB7E00C947B0EB0
:10213A00EEEEF7E0FA93EA930895FA93EA93A2E0AF
:10214A000E94940EE0300895A0EDB7E00E9482123A
:10215A00979808950E944E0BF7CFA0E0B0E00E9436
:10216A000A0C5E2F0895E52FF0E031960E941814AC
:10217A000895E00FF11FFA93EA930895FE01789605
:10218A00FA93EA93FE017B96FA93EA93DE015E964E
:10219A000E94E40DECE1F8E0FA93EA930895E0E690
:1021AA00F1E0FA93EA930895EC8DFF2766277727E3
:1021BA000E946314E9A1FF27662777270E94631408
:1021CA00089588E00E9421102C960895FE017496C5
:1021DA00FA93EA93FE017796FA93EA93FE017A96C6
:1021EA00FA93EA93DE015D960E94F50DECE1F8E0C0
:1021FA00FA93EA930895FF27662777270E946314C4
:10220A0008953497E45EF74FA0810C94160CE0E031
:10221A00F0E0FA93EA930895AEEEB7E00C944E0B11
:10222A00F0E0FA93EA93AEEEB7E00C941C0EF801D4
:10223A0031960E941814E20FF31F0895AEEEB7E02C
:10224A00A20FB31FE0E0EC9308953896DF010C94D7
:10225A000A0CE1E0EA93A2E00C94370BECE1F8E017
:10226A00FA93EA93E3E0F0E0FA93EA93E6E9F1E01D
:10227A00FA93EA930895662777270E94631484E005
:10228A000E943C102A96ACE1B8E00C944E0B0E94D6
:10229A004E0BE4CFA0EDB7E00C948212ADE00E94A1
:1022AA00210CADE00E94210CA4EFB1E00C94821243
:1022BA00EA93A1E00C94370BECE1F8E0FA93EA9385
:1022CA000895E8BBE6B3EF701E2F1F300895E02F84
:1022DA00AEEDB7E0F0E00E941C14AE0FBF1FEE2770
:1022EA00A30FBE1F08950E944E0BD4CFE251F84FA0
:1022FA000F01EDCFEC91D001EC9316CFE151F84FDD
:10230A00A0E0A083E4CFE52FF0E03197E251F84F47
:10231A00A0E0A083A0E10C94070B0E944E0BA0E161
:10232A000C94070BA0EC0E94070BE0E0EC87ED870A
:10233A000895AC85BD85AE17BF070895EC85FD8568
:10234A003196EC87FD870895A0EC0E94070BDDCE3D
:10235A00A0E0B0E00C940A0CE22FF0E031960E9463
:10236A0018140895AC85BD85EA0FFB1FFA93EA930A
:10237A00EE85FF85089521970E943D0CE883A88188
:10238A00A1300895AA93EBB3EF70AE2FE881E07FF6
:10239A00EA2BEBBB0895D998DA9A8BE28A95F1F782
:1023AA00DA980895EBB3EF70AE2FE881E295E07FFB
:1023BA00EA2BEBBBDA9A8BE28A95F1F7DA98089561
:1023CA000E94070BACCEEA81F070E370EFBBE981A3
:1023DA00EEBB0895A32FBB27E02FF0E031960E94B1
:1023EA001814AE0FBF1F0C940A0C2E2FA32FBB2755
:1023FA00E0E1E09FF001EA0FFB1F0895AC81BD8187
:10240A008E819F81A03CE7E2BE07E9E08E07E0E00B
:10241A009E070895EC81FD816E817F81EF5FFF4FFA
:10242A006F4F7F4FEC83FD836E837F8308950E94F5
:10243A00B80DA0ED0C94BE0D0E94BE0D0C94D50DE6
:10244A000E94B80DA1ED0E94BE0DA1E00E94C70D29
:10245A00A881B981EC93A1E00E94C70DAA81BB8132
:10246A00EC9308952A93AD85BE85EF85F889099581
:10247A000895E889F9893497E88BF98B0895AD8531
:10248A00BE85EF85F88909950895A889B9891496B2
:10249A000E944C14EE83FF83AE81BF810895A88900
:1024AA00B98914960E944C14EA87FB870895DE01C5
:1024BA001C960E9408140E944C140895DE011A9674
:1024CA000E9408140E944C14FA93EA931A930A93EE
:1024DA00EDEAFEE0FA93EA93DE011A960E94ED0E07
:1024EA009F01AE81BF81E0E0EC930895DE011E9664
:1024FA000E9408140E944C140895109639F0A89569
:10250A0080ED97E00197F1F71197C9F708955523E0
:10251A0042F4503811F4E0FF04C03196691F791F64
:10252A006BF050E8572711F45F93C8C05F3F31F052
:10253A00660F000C57956795752F08955F930020D5
:10254A000AF0C8C0C1C050E8192E1522880F991F79
:10255A009527550F879550E8072E0522660F771F96
:10256A007527550F67950895689401C0E8945F939D
:10257A00F2DF703818F07F3F08F4A0C056E1571B0D
:10258A00AAF4519558300EF4593030F0EFEFFFEFBE
:10259A006FEF7FE777F91AC077275523B9F0EE0F67
:1025AA00FF1F661F771F5A95D1F710C0772758303B
:1025BA0028F0EF2FF62F672F5850F9CF552331F017
:1025CA0076956795F795E7955A95D1F700200AF41D
:1025DA0022D15F910895689401C0E89430976040D1
:1025EA007040B1F0002426F0772312F4009413D13E
:1025FA00172E7EE1112032F07A95EE0FFF1F661F2B
:10260A00111CF9CFEF2FF62F612D5F938ADF5F91AF
:10261A0008954F93AF01FD01DA01AB01BC01CA0174
:10262A00402D012C142E4F910895EA0FFB1F681FAD
:10263A000895E095F0956095EF5FFF4F6F4F08950D
:10264A005F9381DF903839F1703821F1572F591B88
:10265A002BF112F4DEDFFACF583118F0AA27BB2784
:10266A008827583028F0AB2FB82F88275850F9CF31
:10267A00552329F08695B795A7955A95D9F7502DE0
:10268A00512572F0D2DF38F46795F795E79573957F
:10269A0013F420C0BEDF45DF5F910895D8F7FBCF62
:1026AA00EA1BFB0B680B51F010F40094C2DF66239F
:1026BA0092F3EE0FFF1F661F7A95CBF7EE27FF27DF
:1026CA00662777275F910895EFEFFFEF6FE77FEFB8
:1026DA005F910895EFEFFFEF6FE77FE75F9108954E
:1026EA005F9331DF703851F3903841F30124089435
:1026FA00791F23F41CF300203AF3ECCF0F921F93B7
:10270A002F933F934F93112722279927689FA00160
:10271A008F9F302D410D591F6B9F300D411D591F41
:10272A008E9F27D0BF9F25D06A9F23D0BE9F1DD0E2
:10273A00AF9F1BD0AE9F110D291F391F491F591F6B
:10274A00E32FF42F652F522F4F913F912F911F9115
:10275A000F9066232AF0550FEE1FFF1F661F02C057
:10276A0073954BF2D4DE5F910895100D211D391F28
:10277A0002C0200D311D491F591F08955F93E3DEE2
:10278A00703821F411200AF49FCFA4CF903809F4AD
:10279A0095CF01240894970B1BF4D4F30020F3CFB0
:1027AA00792F1F932F933F934F9311241127222799
:1027BA0033274427552790E2AE17BF0786074107FC
:1027CA0030F0AE1BBF0B860B410B089401C08894F6
:1027DA00551F221F331F111CAA1FBB1F881F441F0E
:1027EA009A9551F7F901612D4F913F912F911F91C0
:1027FA00662332F0550FEE1FFF1F661F7A9543F2CC
:10280A0086DE5F9108950024AF0DB01D0895F195FD
:10281A00E195F0400895F09560957095E195FF4F28
:10282A006F4F7F4F0895EE0FFF1FEE0FFF1FEE0F42
:10283A00FF1FEE0FFF1F089576956795F795E795A9
:10284A0008956F2F660F660B762F089500241124C2
:10285A0090E1AA0FBB1F001C111C0E1A1F0A18F4C4
:10286A000E0E1F1E01C0A1609A9599F7FD01D001B5
:10287A000895E894B7FF04C0A095B095119668949E
:10288A00F7FDC5DFE3DFFD010EF4C1DF0895ED9129
:10289A00FC91119708950590F491E02D0895E8812F
:1028AA00F9816A817B810895A881B9818A819B8196
:1028BA000895E883F9836A837B8308957A936A93F8
:1028CA00FA93EA9308955A934A933A932A931A9356
:1028DA000A9308955D814C813B812A81198108817F
:1028EA000895AC0FBD1F05900D928A95E1F70895E2
:00000001FF
