:0A0000000C94F1000C9484010C94A0
:10000A0000000C9400000C9400000C9400000C9466
:10001A0000000C9400000C9400000C9400000C9456
:10002A0000000C9400000C9400000C9400000C9446
:10003A0000000C9400000C9400000C9400000C9436
:10004A0000000C9400000C940000000000003738F7
:10005A00394F34353644313233434C305245313AD4
:10006A007375626D69742073747564656E74206348
:10007A006F64650070726573732063616E63656C8B
:10008A0020746F206261636B00456E74657220791B
:10009A006F75722073747564656E7420636F64651E
:1000AA003A004E756D626572206F662073747564CE
:1000BA00656E7473203A2000507265737320636111
:1000CA006E63656C20746F20676F206261636B00DA
:1000DA0054656D702843293A00313A204174746599
:1000EA006E64616E636520496E697469616C697AD0
:1000FA006174696F6E00323A2053747564656E7468
:10010A00204D616E6167656D656E7400333A2056E5
:10011A006965772050726573656E742053747564CF
:10012A00656E74732000343A2054656D706572618F
:10013A0074757265204D6F6E69746F72696E6700AF
:10014A00353A205265747269657665205374756410
:10015A00656E74204461746100363A205472616697
:10016A00666963204D6F6E69746F72696E6700000D
:10017A0001002D4E414E00494E4600000400040085
:10018A005400100071035800160060026800150040
:10019A0076027E0019008B0293001600A402AC00BE
:1001AA001800BA02C2000900D202DA001D00DB02FE
:1001BA00E3001600F80200011A000E0316011A00E5
:1001CA0028033001190042034A0116005B03630148
:1001DA000100A1037A010000F894EE27ECBBF1E0DC
:1001EA00FBBFEBBFE5BF8DE0A2E0BB27ED938A958D
:1001FA00E9F780E098E0A0E6ED930197E9F7E6E8F1
:10020A00F1E085919591009761F0A591B5910590DE
:10021A001590BF01F00105900D920197E1F7FB01DE
:10022A00F0CFEFE5EDBFE8E0EEBFC0E6D2E00C9418
:10023A001E01E0EFE4BBEFEFE5BBE5B3EF70E5BB12
:10024A00E2E0E5BFE0E4EBBF44D17894A1E024D139
:10025A008DD1042C052811F4B0D14FC00E948D0312
:10026A0069F40E949203A0E6B2E00E949A03A6E70C
:10027A00B2E064D10E948D03E9F33FC00E94A1035A
:10028A0081F40E949203ABE8B2E00E949A03AFE0C5
:10029A000E94A6030E94A103E9F3ACE00E94A60310
:1002AA002CC00E94AD0311F466D127C00E94B2038C
:1002BA0021F50E949203A4EAB2E040D110E017159A
:1002CA00B0F4E1E8F3E0FA93EA93A8EC1A9FF0019C
:1002DA000E94B7030E9458030E949203A1E8B3E068
:1002EA002DD1ACE2B1E00E9402041F5FE8CFAAEB75
:1002FA00B2E024D10E94B203E9F3ABCFFFCF0A9256
:10030A001A92FA926A937A938A939A93AA93BA93CD
:10031A00EA93FA93EFB7EA930E945304EFEE0E942E
:10032A00BE0311F000E012C0EFED0E94BE0311F00F
:10033A0001E00CC0EFEB0E94BE0311F002E006C020
:10034A00EFE7E5BBE3B3EF701E2F03E01E3011F4B5
:10035A0030E009C01D3011F431E005C01B3011F442
:10036A0032E001C033E0E5B3EF70E5BB042C0528A9
:10037A00D9F40E94C403F097E130A0E0FA0721F40F
:10038A00E1E0F0E02F010FC0E430A0E0FA0721F429
:10039A00E3E0F0E02F0107C0E330A0E0FA0719F428
:1003AA00E4E0F0E02F0167C00E948D0389F40E9407
:1003BA00C403E334A0E0FA0719F44424552407C01F
:1003CA00E133A0E0FA0719F4E2E0F0E02F0153C0AC
:1003DA000E94A103D9F50E94C403FA97CCF40E94A3
:1003EA00D2037F97A0F40E94D203EF57FC4F0F016C
:1003FA000E94D603EC91D001EC930E94D203EE57EF
:10040A00FC4FA0E0A0830E94D603AC914ED01DC041
:10041A000E94D603AC91A53481F4E1E8F3E0FA93A3
:10042A00EA93E72DA8ECEA9FF0010E94B7030E9425
:10043A00710373944424552408C00E94D603AC91D6
:10044A00A33419F4E1E0F0E02F0115C00E94AD03D6
:10045A0041F40E94D603AC91A33411F444245524E8
:10046A000AC00E94B20339F40E94D603AC91A334A5
:10047A0011F4442455240E9458042496E991EFBFAC
:10048A00F991E991B991A991999189917991699192
:10049A00F9901990099018950E94E203C0980E9459
:1004AA00EB0385E38A95F1F705C00E94E203C09A3F
:1004BA000E94EB03E8B3EF70AE2FE881E295E07F8C
:1004CA00EA2BE8BBC29A83E08A95F1F7C298219693
:1004DA000895EFEFE7BBC29880EA9FE00197F1F732
:1004EA00A3E30E94A603A2E30E94A603A8E20E9435
:1004FA00A603ACE00E94A603A1E0CEDF80EA9FE05B
:10050A000197F1F7A6E00E94A6030895AA932497FB
:10051A00E0E8E883E0ECE983E4E9EA83E4EDEB83ED
:10052A00EC81F0E03197DE01AE0FBF1FEC91AD8197
:10053A00AE0FA1500E94A60326960895BA93AA93D5
:10054A001A9310E0A981BA81EE27A10FBE1FEC9180
:10055A00E03049F0A981BA81EE27A10FBE1FAC9104
:10056A00A4DF1F5FEFCF188123960895E0EEE7B965
:10057A00E7E8E6B9089523971A9310E00E94AD03BD
:10058A00C9F40E949203A2EDB2E0D8DF369A349BF6
:10059A00FECF15B1E12FF0E0FA93EA93DE0113964C
:1005AA000E941E03DE011196C9DFA4E6B0E00E9494
:1005BA000204E4CF1881249608951A9310E0042CBB
:1005CA000528A9F50E949203103061F4ABEDB2E060
:1005DA000E949A03A8EFB2E00E94F20311F40E946B
:1005EA00F7031BC0113061F4AEE0B3E00E949A0336
:1005FA00A8E2B3E00E94F20311F40E94F7030DC0CF
:10060A001230A1F4A2E4B3E00E949A03ABE5B3E08E
:10061A000E94F20311F40E94F703E12FF0E03196F1
:10062A00DF01E3E0F0E00E9428041E2FC8CF1991F1
:10063A000895BA93AA93A991B991E991F99130963B
:10064A002AF4E095F09531966DE26D93E89480E195
:10065A0097E20DD088EE93E00AD084E6992707D076
:10066A008AE005D06E2F10D066276C93089566270E
:10067A00E817F90720F06395E81BF90BC9F7662319
:10068A0011F416F008956894605D6D930895BA9315
:10069A00AA93A991B991EE27FF276D91662311F0CC
:1006AA003196FBCF0895BA93AA930E945304088502
:1006BA0019852E813F810E94FB0369F01F930F93D6
:1006CA000F5F1F4FD9012F5F3F4F0E943604AF9132
:1006DA00BF91EC93F0CF18C0BA93AA930E94530427
:1006EA000E811F81288539850E94FB0369F01F93BB
:1006FA000F930F5F1F4FD9012F5F3F4FEC91AF91BF
:10070A00BF910E944204F0CF0E9458042A9608958D
:10071A00E1E0F0E0E415F5050895A1E00E94510238
:10072A00E1E0EA93A1E00C948B020E94A302E1E0CB
:10073A00EA93A2E00C948B02E2E0F0E0E415F505FE
:10074A0008950E94510280E496E00197F1F7089516
:10075A00E3E0F0E0E415F5050895E4E0F0E0E415DF
:10076A00F5050895E050F040FA93EA93A9E0B0E065
:10077A000895E5BBE3B3EF701E2F1F300895E02FF5
:10078A00A1E7B3E0F0E00E941004AE0FBF1FEE270E
:10079A00A30FBE1FEC91F0E00895A1E8B3E00C941A
:1007AA004C03E02FA1E7B3E0F0E00E941004AE0F83
:1007BA00BF1FEE27A30FBE1F0895AA93E8B3EF70D9
:1007CA00AE2FE881E07FEA2BE8BB0895C198C29A70
:1007DA0083E08A95F1F7C29808950E94A302042C37
:1007EA0005280895AAEFB0E00C940204EC81FD817B
:1007FA003197EC83FD8331960895109639F0A895C8
:10080A0080ED97E00197F1F71197C9F70895F195EF
:10081A00E195F0400895EE0FFF1FEE0FFF1F0895B8
:10082A000024112490E1AA0FBB1F001C111C0E1AF0
:10083A001F0A18F40E0E1F1E01C0A1609A9599F79F
:10084A00FD01D0010895E894B7FF04C0A095B095C2
:10085A0011966894F7FDDBDFE3DFFD010EF4D7DFC5
:10086A000895E199FECFFF93FFB7F894AEBBBFBBE3
:10087A00E09AEDB3FFBFFF910895E19B02C0A895EE
:10088A00FCCF9FB7F894AEBBBFBBE09A8DB3E81715
:10089A0019F0EDBBE29AE19A9FBF08953A932A9321
:1008AA001A930A9308953B812A8119810881089530
:00000001FF
