:040000000C94F70263
:100004000C948D040C9400000C9400000C940000DB
:100014000C9400000C9400000C9400000C9400005C
:100024000C9400000C9400000C9400000C9400004C
:100034000C9400000C9400000C9400000C9400003C
:100044000C9400000C9400000C9400000C9400002C
:100054000000000000003738394F3435364431325F
:1000640033434C305245640FFFFF31203A2053751F
:10007400626D69742053747564656E7420436F6493
:10008400650032203A205375626D69742057697493
:1000940068204361726400456E74657220796F75DF
:1000A400722073747564656E7420636F64653A00BE
:1000B4004272696E6720796F757220636172642081
:1000C4006E656172206465766963653A0053747580
:1000D40064656E7420616464656420776974682063
:1000E40049443A004E756D626572206F66207374E0
:1000F4007564656E7473203A2000507265737320C2
:1001040043616E63656C20546F20476F20426163C6
:100114006B005374617274205472616E73666572FD
:1001240072696E672E2E2E0055736172742054729C
:10013400616E736D69742046696E697368656400E5
:10014400313A205365617263682053747564656E37
:100154007400323A2044656C657465205374756488
:10016400656E7400456E7465722053747564656EB3
:100174007420436F646520466F7220536561726317
:10018400683A00456E7465722053747564656E74C4
:1001940020436F646520466F722044656C65746506
:1001A4003A00456E7465722053656372657420432A
:1001B4006F646520286F722063616E63656C29002B
:1001C40031203A20436C65617220454550524F4DB1
:1001D400002020202070726573732063616E636554
:1001E4006C20746F206261636B004C6F676F757471
:1001F400202E2E2E00476F696E6720546F204164B5
:100204006D696E205061676520496E203220536508
:100214006300343000496E636F72726563742053F7
:10022400747564656E7420436F646520466F726DE7
:10023400617400596F752057696C6C204261636B5F
:10024400204D656E7520496E2032205365636F6EB4
:1002540064004475706C69636174652053747564DB
:10026400656E7420436F646520456E7465726564C1
:100274000053747564656E7420436F646520537510
:10028400636365737366756C6C792041646465643B
:1002940000596F75204D757374204669727374200C
:1002A4004C6F67696E00596F752057696C6C2047F5
:1002B4006F2041646D696E20506167652032205360
:1002C40065630053747564656E7420436F646520C0
:1002D400466F756E64004F7073202C2053747564E0
:1002E400656E7420436F6465204E6F7420466F758D
:1002F4006E64005761697420466F722044656C65B2
:1003040074652E2E2E0053747564656E7420436FCD
:100314006465205761732044656C65746564004CA2
:100324006F67696E205375636365737366756C6C70
:100334007900576169742E2E2E004F7073202C2083
:1003440073656372657420697320696E636F72727A
:1003540065637400436C656172696E67204545503E
:10036400524F4D202E2E2E0074656D70657261748F
:100374007572652843293A00313A20417474656ED8
:1003840064616E636520496E697469616C697A6140
:1003940074696F6E00323A2053747564656E74200C
:1003A4004D616E6167656D656E7400333A20566900
:1003B40065772050726573656E7420537475646537
:1003C4006E74732000343A2054656D7065726174E4
:1003D400757265204D6F6E69746F72696E67003552
:1003E4003A20526574726965766520537475646544
:1003F4006E74204461746100363A205472616666FA
:100404006963204D6F6E69746F72696E6700373A65
:10041400204C6F67696E20576974682041646D6968
:100424006E00383A204C6F676F75740044697374BA
:10043400616E63653A20004572726F72004E6F20E0
:100444004F62737461636C650020636D2000436FB9
:10045400756E743A200001002D4E414E00494E46FF
:10046400000006000400540010005F075A00180042
:1004740060026E0015007802860019008D029B0050
:100484001D00A602B4001700C302D1001600DA0250
:10049400E8001800F002FE00160008031601180018
:1004A4001E032C01120036034401120048035601B6
:1004B4001F005A0368011F00790387011E00980377
:1004C400A6011100B603C4011900C703D5010B002E
:1004D400E003EE011D00EB03F90102000804FC0037
:1004E40003000A0416021E000D0419021F002B0447
:1004F40037021F004A0456021F0069043702200015
:10050400880475021F00A80437021500C704950269
:100514001D00DC04AA020200F904FC001300FB0421
:10052400C7021F000E0537021D002D05DA021F0049
:100534004A05370202006905FC0013006B05C70277
:1005440013007E05F702190091050A031F00AA058E
:1005540037021D00C905DA021F00E6053702020052
:100564000506FC0013000706230308001A063603D9
:100574001A0022063E031F003C06370214005B06E5
:10058400580310006F066C0302007F06FC001D0078
:1005940081067C0316009E0699031A00B406AF0375
:1005A4001A00CE06C9031900E806E3031600010782
:1005B400FC031400170712040A002B072604020088
:1005C4008F076C000B0035073004060040073B041E
:1005D4000C0046074104050052074D040800570764
:1005E4005204010091075A040000F894EE27ECBB72
:1005F400F1E0FBBFEBBFE5BF8DE0A2E0BB27ED93CD
:100604008A95E9F780E098E0A0E6ED930197E9F791
:10061400E6E6F4E085919591009761F0A591B59196
:1006240005901590BF01F00105900D920197E1F737
:10063400FB01F0CFEFE5EDBFE8E0EEBFC0E6D2E0AE
:100644000C942403E0EFE4BBEFEFE5BBE5B3EF70FC
:10065400E5BBE2E0E5BFE0E4EBBF8F9A9798A3E344
:10066400B0E00E94EA080E9470099FD47894A1E047
:1006740088D4042C052811F415D54BC10E94D00A46
:1006840069F40E94D50AA0E6B2E00E94DD0AA8E758
:10069400B2E0C0D40E94D00AE9F33BC10E94E40A4C
:1006A40061F40E94D50AADE8B2E00E94DD0A0E941E
:1006B400E90A0E94E40AE9F329C10E94F10AA9F5B2
:1006C4000E94F10A89F50E94D50AA6EAB2E00E94C6
:1006D400DD0A0E94F60A73D54E2FED3071F00E94A8
:1006E400FB0A3B9718F40E94F10A09F006C00E9425
:1006F400FB0AE159F84F4083EECF0E94F10A21F43E
:100704000E94FB0A3B9708F00FC00E94D50AA3EC95
:10071400B2E00E94DD0A0E94FF0AA8EBBBE00E943F
:10072400C80B0E94030BCCCFF4C00E940D0B11F434
:1007340088D4EFC00E94120B09F051C00E94D50A60
:10074400AAEDB2E00E94DD0AA0E0B0E01AD55E2F67
:100754000E94030BE52FF0E0FA93EA93AFE6B7E0CB
:100764000E946D0A0E94FF0AA8EEB3E00E94C80B23
:1007740000E010E0E52FD801F0E0AE17BF0734F534
:100784000E94030B20E030E02830E0E03E076CF4E8
:10079400F901E159F84FFF93EF930E94170BAF91C2
:1007A400BF91EC932F5F3F4FEFCFAFE6B7E0A20FBF
:1007B400B31FE0E0EC930E94D50A0E94FF0AA8EE62
:1007C400B3E00E94C80B0F5F1F4FD4CF0E94D50A1D
:1007D400A0EFB2E01FD40E94120BE9F39AC0E6E046
:1007E400F0E0E415F505C1F50E94D50AA8E0B3E0F0
:1007F40011D40E94200B5E2F00E010E0E52FD801F9
:10080400F0E0AE17BF0794F420E030E02830E0E0D9
:100814003E073CF40E94170BAE2FCAD42F5F3F4F04
:10082400F5CF0E94240B0F5F1F4FE8CF20E030E08C
:100834002830E0E03E072CF4ADE3BAD42F5F3F4FFD
:10084400F7CF0E94240B0E94D50AAEE1B3E00E94C8
:100854002E0B442455245DC00E94340B69F40E947D
:10086400D50AA6E3B3E00E94DD0AA8E4B3E0D2D33C
:100874000E94340BE9F34DC00E94390B61F40E94CD
:10088400D50AAAE5B3E00E94DD0A0E94E90A0E94A3
:10089400390BE9F33BC00E943E0B61F40E94D50A78
:1008A400A9E7B3E00E94DD0A0E94E90A0E943E0B18
:1008B400E9F32CC00E94430B21F466D5442455244B
:1008C40028C00E94480B29F50E94D50AA8E9B3E084
:1008D4000E94DD0A0E94E90A0E94480B11F4992043
:1008E40009F001C0F9CFE1E0E91581F4ACE00E9420
:1008F4004D0B0E94D50AA6EBB3E00E94DD0AA7ECDB
:10090400B3E088D30E94480BE9F303C0ACE00E9433
:100914004D0BAFCEFFCF0A921A92FA926A937A9352
:100924008A939A93AA93BA93EA93FA93EFB7EA93C2
:1009340022970E94840DEFEE0E94500B11F000E00C
:1009440012C0EFED0E94500B11F001E00CC0EFEB70
:100954000E94500B11F002E006C0EFE7E5BBE3B3E1
:10096400EF701E2F03E01E3011F430E009C01D307B
:1009740011F431E005C01B3011F432E001C033E062
:10098400E5B3EF70E5BB042C052809F070C00E94A4
:10099400560BEC91F0E0F097E130A0E0FA0721F477
:1009A400E1E0F0E02F0147C0E430A0E0FA0721F4D1
:1009B400E4E0F0E02F013FC0E330A0E0FA0721F4C7
:1009C400E5E0F0E02F0137C0E530A0E0FA0721F4BC
:1009D400E6E0F0E02F012FC0E230A0E0FA0721F4B6
:1009E400E7E0F0E02F0127C0E630A0E0FA0721F4A9
:1009F400EAE0F0E02F011FC0E730A0E0FA0721F49D
:100A0400EBE0F0E02F0117C0E830A0E0FA0799F41A
:100A1400F894E1E0E91579F40E94D50AA0EEB3E078
:100A24000E94DD0AABEEB3E00E942E0B9924789469
:100A3400EBE0F0E02F010E94560BAC91AC3449F48A
:100A4400E0E0E71520F4E72DF0E0319701C0E3E0A2
:100A54007E2E0E94560BAC91A23541F4E72DF0E0B6
:100A64003196A3E0B0E00E946B0D7E2E79C20E9405
:100A7400D00AF9F40E94560BEC91F0E0E334A0E0C4
:100A8400FA0719F44424552413C0E133A0E0FA070B
:100A940031F40E94030BE2E0F0E02F0109C0E233DD
:100AA400A0E0FA0729F40E94030BE3E0F0E02F0131
:100AB40057C20E94E40A09F0A4C00E94560BAC91EC
:100AC400A33429F40E94030BE1E0F0E02F010E941B
:100AD400560BEC91F0E0FA977CF40E94FB0A7F97A6
:100AE40050F40E94FB0A0E94620B0E94660B0E9453
:100AF4006A0BAC9152D284C00E94560BAC91A434C0
:100B040061F40E94FB0A5E2F513030F00E946F0B9B
:100B1400A8E0B4E00E94790B73C00E94560BAC911C
:100B2400A53409F065C0F894EFE6F7E0FA93EA9388
:100B3400EAE0F4E0FA93EA93A2E00E94B70AE03014
:100B440031F40E94FB0AE830A0E0FA0769F0979AB2
:100B54000E94D50AADE0B4E00E94DD0AABE2B4E045
:100B64000E942E0B979840C040D3E13068F0979ACA
:100B74000E94D50AAAE4B4E00E94DD0AA9E6B4E022
:100B84000E942E0B979830C00E94200B2E2FE0E07D
:100B9400EE83EF83AE81BF811897ACF4E22F0E94FD
:100BA4007E0BAE81BF81EA0FFB1FFA93EA93E885BF
:100BB400F985E159F84FA081F0D2EE81FF81319699
:100BC400EE83FF83E7CFE0E0F0E0FA93EA93A22F0D
:100BD400AF5FE3D20E94D50AA8E8B4E00E94DD0A20
:100BE400A8EAB4E00E942E0B0E94030B789405C07F
:100BF4000E94560BAC91A33419F4E1E0F0E02F010C
:100C0400AFC10E94F10A59F40E94560BAC91A3346F
:100C140029F40E94030BE1E0F0E02F01A1C10E943E
:100C24000D0B41F40E94560BAC91A33411F44424EF
:100C3400552496C10E94120B41F40E94560BAC91AC
:100C4400A33411F4442455248BC10E94340B91F530
:100C54000E94560BAC91A33419F44424552429C0A2
:100C64000E94560BAC91A13319F4E8E0F0E020C0E7
:100C74000E94560BAC91A23319F4E1E0E91509F096
:100C840003C0E9E0F0E014C00E94560BAC91A2331B
:100C940011F4992009F00DC00E94D50AA7ECB4E024
:100CA4000E94DD0AACEDB4E00E942E0BEBE0F0E014
:100CB4002F0156C10E94390B09F05CC00E94560BEB
:100CC400AC91A33419F40E94030B50C00E94560B3C
:100CD400EC91F0E0FA977CF40E94FB0A7F9750F4C1
:100CE4000E94FB0A0E94620B0E94660B0E946A0B20
:100CF400AC9153D13EC00E94560BAC91A43461F424
:100D04000E94FB0A5E2F513030F00E946F0BA9EF56
:100D1400B4E00E94790B2DC00E94560BAC91A5340F
:100D240001F50E94830B48F00E94D50AABEFB4E0B2
:100D34000E94DD0AAEE0B5E008C00E94D50AADE22B
:100D4400B5E00E94DD0AAAE4B5E064D1A0EDB7E005
:100D54000E94C80B0E94030BE7E0F0E02F012196EC
:100D640008C00E94560BAC91A33419F4E7E0F0E0FC
:100D74002F01F6C00E943E0B09F061C00E94560B81
:100D8400AC91A33431F40E94030BE7E0F0E02F01AF
:100D940055C00E94560BEC91F0E0FA977CF40E9447
:100DA400FB0A7F9750F40E94FB0A0E94620B0E9488
:100DB400660B0E946A0BAC91F0D040C00E94560BA7
:100DC400AC91A43461F40E94FB0A5E2F513030F0E0
:100DD4000E946F0BA9E6B5E00E94790B2FC00E9418
:100DE400560BAC91A53451F50E94830BA0F00E94E0
:100DF400D50AABE6B5E00E94DD0AAEE7B5E00AD15C
:100E0400A8813DD20E94D50AA1E9B5E00E94DD0A7D
:100E1400AAEAB5E008C00E94D50AA9ECB5E00E9490
:100E2400DD0AA6EEB5E0F6D0A0EDB7E00E94C80B4F
:100E34000E94030BE7E0F0E02F01219691C00E948D
:100E4400430B41F40E94560BAC91A33411F4442497
:100E5400552486C00E94480B19F4E1E0E91509F411
:100E64005EC00E94560BAC91A33429F40E94030B7C
:100E74004424552453C00E94560BEC91F0E0FA9799
:100E84007CF40E94FB0A7F9750F40E94FB0A0E94A4
:100E9400620B0E94660B0E946A0BAC917ED03EC02E
:100EA4000E94560BAC91A43461F40E94FB0A5E2F9D
:100EB400513030F00E946F0BA5E0B6E00E94790B30
:100EC4002DC00E94560BAC91A53441F52297AFE694
:100ED400B7E0DED2E883F983A881B981A436EFE0D4
:100EE400BE0769F40E94D50AA7E0B6E00E94DD0AB5
:100EF400AAE1B6E00E942E0BE1E09E2E0AC00E94F9
:100F0400D50AA2E2B6E00E94DD0AACE3B6E00E9494
:100F14002E0B0E94030B44245524229621C00E94C8
:100F2400480B11F4992009F41BC00E94560BEC9154
:100F3400F0E0E334A0E0FA0719F4442455240CC08B
:100F4400E133A0E0FA0741F4F8940E94D50AABE536
:100F5400B6E060D0FCD078940E94030B442455245E
:100F64000E948B0D2896E991EFBFF991E991B9910F
:100F7400A9919991899179916991F9901990099020
:100F840018950E948A0BC0980E94930B80E892E007
:100F94000197F1F70E949A0B10C10E948A0BC09A24
:100FA4000E94930B0E949A0B08C1EFEFE7BBC29813
:100FB40080E09AEF0197F1F7A3E30E944D0BA2E3BF
:100FC4000E944D0BA8E20E944D0BACE00E944D0B19
:100FD400A1E0D7DF80E09AEF0197F1F7A6E00E9445
:100FE4004D0B0895AA932497E0E8E883E0ECE983A5
:100FF400E4E9EA83E4EDEB83EC81F0E03197DE0190
:10100400AE0FBF1FEC91AD81AE0FA1500E944D0BEE
:1010140026960895BA93AA931A9310E0A981BA81E7
:10102400EE27A10FBE1FEC91E03049F0A981BA81EF
:10103400EE27A10FBE1FAC91B0DF1F5FEFCF188169
:10104400B5C023971A9310E0E0EEE7B9E7E8E6B9F4
:101054000E94D50AAFE6B6E0DDDF0E940D0BF1F485
:10106400369A349BFECFE5B11E1799F015B1E12FE6
:10107400F0E0FA93EA93DE0113960E946D0AE1E12F
:10108400EA93A1E0AFDFDE011196C4DFAFE7B6E07B
:10109400C1DFA4EFB1E00E94C80BDFCFE0E0E6B906
:1010A400188117C2042C052809F050C00E94D50AE3
:1010B400772081F4A1E8B6E00E94DD0AAEE9B6E04B
:1010C400A9DF772021F400240414050409F001C0E9
:1010D400F8CF3BC0E1E0E71589F4A4EBB6E00E9449
:1010E400DD0AAEECB6E096DFE1E0E71521F400247A
:1010F4000414050409F001C0F7CF27C0E2E0E715A6
:1011040089F4A8EEB6E00E94DD0AA1E0B7E082DF30
:10111400E2E0E71521F400240414050409F001C0F9
:10112400F7CF13C0E3E0E71581F4A7E1B7E00E942D
:10113400DD0AABE2B7E06EDFE3E0E71521F400245B
:101144000414050409F001C0F7CFACCF08951A9335
:101154000A9300E010E00030E4E01E0778F4E1991F
:10116400FECFE12FF070E370EFBBE02FEEBBE0E0C9
:10117400EDBBE29AE19A0F5F1F4FEDCF09911991F0
:101184000895BA93AA931A93E199FECF0E94A80BEB
:10119400E09A1DB3E12F188109C0AA93E199FECF0B
:1011A4000E94A80BE881EDBBE29AE19A2396089588
:1011B400AA935D9BFECFE881ECB9219608955F99CF
:1011C40003C00E94F10A09F001C0F9CFECB10895FF
:1011D400BA93AA93E881E9B9E981F070E0BDE8E146
:1011E400EAB9E6E0E0BD229608952A970E94860DAA
:1011F4000E94200B1E2F00E00117E0F5FE0134963B
:10120400FA93EA93E0E0EA93AAE0B0E00E949B0A32
:1012140030E03830A8F4E32FF0E0DE011496EA0F52
:10122400FB1FFF93EF93A32FBB27E02F0E947E0B9E
:10123400AE0FBF1FA6DFAF91BF91EC933F5FE9CF25
:10124400E32FF0E0DE011496AE0FBF1FE0E0EC9355
:10125400FE013496FA93EA93EFE6F7E0FA93EA9301
:10126400A8E00E94B70AE03019F4E02FEF5F03C052
:101274000F5FC2CFE0E00E948D0D2E960895AA93D1
:101284000E94860D0E94200B1E2F0C811017D8F08F
:1012940030E03830B0F4A32FBB27E02F0E947E0B40
:1012A400AE0FBF1F6EDF2E2FA32FBB27E8E0E09FFA
:1012B400F001EA0FFB1FFA93EA93A22F6EDF3F5F60
:1012C400E8CF0F5FE3CFE0E0F0E0FA93EA93A12FD9
:1012D400A15063DF0E948D0D0C94A90A8D9A8E98FB
:1012E4000895959A88E28A95F1F795980895289734
:1012F400E0E0EC83ED83EE83EF830E94AF0B30F4E8
:10130400869B01C003C00E94BB0BF7CF0E94AF0BAA
:1013140019F4EFEFFFEF36C0E0E0EFBDE3E0EEBD20
:10132400E0E0F0E0FDBDECBDEC83ED83EE83EF8304
:101334000E94AF0B70F4869B0CC0ECB5FDB5E13692
:10134400AAEEFA0718F0EEEFFFEF1CC00E94BB0BE9
:10135400EFCFECB5FDB5662777270E947F0DE0E05F
:10136400EEBD0E947A0DA136EAEEBE07E0E08E07DC
:10137400E0E09E0718F0EEEFFFEF04C00E94750D49
:101384000E94610D2896089560970E94840D4FEF86
:101394005FEF0E94D50AA5E3B7E03CDE0E94430B51
:1013A40009F072C09EDFA3DF8F01EFEFFFEFE017BC
:1013B400F10729F40E94D50AA0E4B7E05FC0EEEF7C
:1013C400FFEFE017F10729F40E94D50AA6E4B7E07D
:1013D40055C0F801662777270E94380CA6E9B3E4C4
:1013E4008BE09DE30E94BB0CDF01CB01E0E0F0E069
:1013F40060E070E40E94090DA0E0B0E080E09FE3AB
:101404000E946B0C0E94010C9F014217530789F044
:10141400A9013A932A93DE0118960E946D0AEBE023
:10142400EA93A1E0DFDDDE011696F4DDA2E5B7E084
:10143400F1DD2630E0E03E070CF46394E0918F0781
:10144400F0919007A62DB0E0EA17FB07C1F0E62D56
:10145400F0E0E0938F07F0939007E1E0EA93A2E0D5
:10146400C1DDE62DF0E0FA93EA93DE0118960E94BE
:101474006D0AA7E5B7E0CEDDDE011696CBDDA4E666
:10148400B0E00E94C80B8ACF0E948B0D6696089527
:10149400BA93AA931A930A9300E010E0AA81BB813D
:1014A400EC91E03099F0AFE1A09FF001A19FF00D25
:1014B4000F01AA81BB81EC91F0E0E00DF11D8F01D9
:1014C400EA81FB813196EA83FB83E8CFF801198135
:1014D400088124960895BA93AA93A991B991E991A0
:1014E400F99130962AF4E095F09531966DE26D937A
:1014F400E89480E197E20DD088EE93E00AD084E688
:10150400992707D08AE005D06E2F10D066276C93F8
:1015140008956627E817F90720F06395E81BF90B8F
:10152400C9F7662311F416F008956894605D6D930D
:101534000895BA93AA93B981A881109631F0FC81D9
:10154400EB816A8161931197E9F7EB81FC81259620
:101554000895BA93AA93A991B991EE27FF276D91A3
:10156400662311F03196FBCF0895AA936627772757
:101574008991E991F991A991B991882349F08A95C2
:101584006D917191671721F46623B9F7EE270895D9
:10159400671BE1F3E1E008F4E2500895E1E0F0E0D4
:1015A400E415F5050895A1E00E94C307E1E0EA937C
:1015B400A1E00C94F4070E940C08E1E0EA93A2E095
:1015C4000C94F407E2E0F0E0E415F5050895AFE0CB
:1015D4000E94C30780E89CE00197F1F70895E3E0D7
:1015E400F0E0E415F505089580E89CE00197F1F733
:1015F4000895AFE6B7E00C94AB0AAFE6B7E00C94FD
:101604000C08EFE6F7E0FA93EA93E0E0EA93A0E24D
:10161400B0E00C949B0AE4E0F0E0E415F5050895CD
:10162400E5E0F0E0E415F5050895F80131960E942F
:101634005A0DE20FF31FDF010C94C308A0E0B0E0E1
:101644000C94C308ADE00E94DA08ADE00E94DA0809
:10165400A4EFB1E00C94C80B0E940C08A0EDB7E015
:101664000C94C80BE7E0F0E0E415F5050895E8E014
:10167400F0E0E415F5050895E9E0F0E0E415F5057A
:101684000895EAE0F0E0E415F5050895EBE0F0E0F4
:10169400E415F50508950E94C307A6CFE5BBE3B39F
:1016A400EF701E2F1F300895E02FAFE5B7E0F0E094
:1016B4000E945C0DAE0FBF1FEE27A30FBE1F08953F
:1016C400E159F84F0F01F0CFEC91D001EC9391CF99
:1016D400E059F84FA0E0A083E7CFE52FF0E0319781
:1016E400E159F84FA0E0A083A0E10C94C3070E9445
:1016F4000C08A0E10C94C307F0E031960E945A0D47
:10170400089521970E94F708E883A881A1300895DD
:10171400AA93E8B3EF70AE2FE881E07FEA2BE8BB31
:101724000895C198C29A8BE28A95F1F7C2980895F8
:10173400E8B3EF70AE2FE881E295E07FEA2BE8BBD7
:10174400C29A8BE28A95F1F7C2980895EA81F07003
:10175400E370EFBBE981EEBB0895AC81BD818E815E
:101764009F81A03CE7E2BE07E9E08E07E0E09E0728
:101774000895EC81FD816E817F81EF5FFF4F6F4F94
:101784007F4FEC83FD836E837F830895109639F039
:10179400A89580ED97E00197F1F71197C9F708959F
:1017A400552342F4503811F4E0FF04C03196691F08
:1017B400791F6BF050E8572711F45F93C8C05F3F5F
:1017C40031F0660F000C57956795752F08955F9358
:1017D40000200AF0C8C0C1C050E8192E1522880F95
:1017E400991F9527550F879550E8072E0522660FF8
:1017F400771F7527550F67950895689401C0E8947D
:101804005F93F2DF703818F07F3F08F4A0C056E110
:10181400571BAAF4519558300EF4593030F0EFEFBD
:10182400FFEF6FEF7FE777F91AC077275523B9F0F9
:10183400EE0FFF1F661F771F5A95D1F710C0772749
:10184400583028F0EF2FF62F672F5850F9CF552333
:1018540031F076956795F795E7955A95D1F700207D
:101864000AF41ED15F910895689401C0E8943097FA
:1018740060407040B1F0002426F0772312F4009405
:101884000FD1172E7EE1112032F07A95EE0FFF1F53
:10189400661F111CF9CFEF2FF62F612D5F938ADF9E
:1018A4005F9108954F93AF01FD01DA01AB01BC01D3
:1018B400CA01402D012C142E4F910895EA0FFB1FED
:1018C400681F0895E095F0956095EF5FFF4F6F4FA7
:1018D40008955F9381DF903839F1703821F1572FE3
:1018E400591B2BF112F4DEDFFACF583118F0AA2776
:1018F400BB278827583028F0AB2FB82F882758509B
:10190400F9CF552329F08695B795A7955A95D9F718
:10191400502D512572F0D2DF38F46795F795E7958D
:10192400739513F420C0BEDF45DF5F910895D8F7A7
:10193400FBCFEA1BFB0B680B51F010F40094C2DFE1
:10194400662392F3EE0FFF1F661F7A95CBF7EE27FF
:10195400FF27662777275F910895EFEFFFEF6FE783
:101964007FEF5F910895EFEFFFEF6FE77FE75F9100
:1019740008955F9331DF703851F3903841F30124B7
:101984000894791F23F41CF300203AF3ECCF0F9250
:101994001F932F933F934F93112722279927689FD3
:1019A400A0018F9F302D410D591F6B9F300D411D9C
:1019B400591F8E9F27D0BF9F25D06A9F23D0BE9FDB
:1019C4001DD0AF9F1BD0AE9F110D291F391F491F7A
:1019D400591FE32FF42F652F522F4F913F912F91D1
:1019E4001F910F9066232AF0550FEE1FFF1F661FED
:1019F40002C073954BF2D4DE5F910895100D211D42
:101A0400391F02C0200D311D491F591F08955F93CE
:101A1400E3DE703821F411200AF49FCFA4CF90386C
:101A240009F495CF01240894970B1BF4D4F30020F8
:101A3400F3CF792F1F932F933F934F9311241127A3
:101A4400222733274427552790E2AE17BF0786077E
:101A5400410730F0AE1BBF0B860B410B089401C04D
:101A64008894551F221F331F111CAA1FBB1F881FD8
:101A7400441F9A9551F7F901612D4F913F912F9190
:101A84001F91662332F0550FEE1FFF1F661F7A95D4
:101A940043F286DE5F910895F195E195F040089553
:101AA400F09560957095E195FF4F6F4F7F4F0895C6
:101AB400EE0FFF1FEE0FFF1FEE0FFF1F0895769529
:101AC4006795F795E79508956F2F660F660B762F48
:101AD4000895E894F7FF02C0DFDF6894EA23FB234C
:101AE4000EF4DADF0895E881F9816A817B81089533
:101AF400A881B9818A819B810895E883F9836A83E7
:101B04007B8308955A934A933A932A931A930A9398
:101B140008955D814C813B812A8119810881089552
:00000001FF
