:0E0000000C9442020C946A030C9400000C94C1
:10000E0000000C9400000C9400000C9400000C9462
:10001E0000000C9400000C9400000C9400000C9452
:10002E0000000C9400000C9400000C9400000C9442
:10003E0000000C9400000C9400000C9400000C9432
:10004E0000000C940000000000003738394F3435A2
:10005E003644313233434C305245FFFF31203A2083
:10006E005375626D69742053747564656E742043A4
:10007E006F646500202020207072657373206361A9
:10008E006E63656C20746F206261636B00456E74E5
:10009E00657220796F75722073747564656E742045
:1000AE00636F64653A004E756D626572206F6620EF
:1000BE0073747564656E7473203A200050726573A4
:1000CE00732043616E63656C20546F20476F20422E
:1000DE0061636B005374617274205472616E736647
:1000EE00657272696E672E2E2E00557361727420C2
:1000FE005472616E736D69742046696E69736865BA
:10010E006400313A205365617263682053747564DC
:10011E00656E7400323A2044656C657465205374C4
:10012E007564656E7400456E7465722053747564E3
:10013E00656E7420436F646520466F72205365614F
:10014E007263683A00456E74657220537475646507
:10015E006E7420436F646520466F722044656C6533
:10016E0074653A00436C656172696E67204545504F
:10017E00524F4D202E2E2E00343000496E636F727A
:10018E00726563742053747564656E7420436F6476
:10019E006520466F726D617400596F752057696CDA
:1001AE006C204261636B204D656E7520496E203266
:1001BE00205365636F6E64004475706C696361747F
:1001CE00652053747564656E7420436F64652045B5
:1001DE006E74657265640053747564656E74204345
:1001EE006F6465205375636365737366756C6C79A4
:1001FE002041646465640053747564656E742043B5
:10020E006F646520466F756E6400596F752057696F
:10021E006C6C204261636B204D656E7520496E20BB
:10022E0035205365636F6E64004F7073202C20531E
:10023E00747564656E7420436F6465204E6F742010
:10024E00466F756E64005761697420466F72204464
:10025E00656C6574652E2E2E0053747564656E7410
:10026E0020436F6465205761732044656C65746527
:10027E00640074656D7065726174757265284329CA
:10028E003A00313A20417474656E64616E63652084
:10029E00496E697469616C697A6174696F6E003256
:1002AE003A2053747564656E74204D616E61676596
:1002BE006D656E7400333A2056696577205072650D
:1002CE0073656E742053747564656E747320003498
:1002DE003A2054656D7065726174757265204D6F4C
:1002EE006E69746F72696E6700353A20526574726A
:1002FE00696576652053747564656E742044617407
:10030E006100363A2054726166666963204D6F6EE5
:10031E0069746F72696E670044697374616E6365A8
:10032E003A20004572726F72004E6F204F627374E6
:10033E0061636C650020636D2000436F756E743AC7
:10034E00200001002D4E414E00494E460000040093
:10035E0004005400100019065800180060026A00CC
:10036E00190078028200190091029B001600AA0261
:10037E00B4001800C002CA001600D802E20018002D
:10038E00EE02F800120006031001120018032201FB
:10039E001F002A0334011F00490353011400680390
:1003AE00720102007C03C80003007E0386011E005A
:1003BE00810389011F009F03A7011F00BE03C60111
:1003CE001F00DD03A7012000FC03E5011F001C0434
:1003DE00A70102003B04C80013003D0405021F00E4
:1003EE00500418021D006F0437021F008C041802FF
:1003FE000200AB04C8001300AD0405021300C004D4
:10040E0054021900D30467021F00EC04A7011D005B
:10041E000B0537021F002805A701100047058002B3
:10042E0002005705C8001D005905900216007605FA
:10043E00AD021A008C05C3021A00A605DD021900D2
:10044E00C005F7021600D905100302004906680020
:10045E000B00EF0526030600FA0531030C0000061B
:10046E00370305000C06430308001106480301007C
:10047E004B0650030000F894EE27ECBBF1E0FBBFF7
:10048E00EBBFE5BF8DE0A2E0BB27ED938A95E9F7C0
:10049E0080E098E0A0E6ED930197E9F7ECE5F3E054
:1004AE0085919591009761F0A591B5910590159064
:1004BE00BF01F00105900D920197E1F7FB01F0CF1E
:1004CE00EFE5EDBFE8E0EEBFC0E6D2E00C946F02C0
:1004DE00E0EFE4BBEFEFE5BBE5B3EF70E5BBE2E0C9
:1004EE00E5BFE0E4EBBF8F9A9798A3E3B0E045D465
:1004FE00CAD44ED37894A1E037D3042C052811F436
:10050E00C4D3DFC00E94870869F40E948C08A0E65D
:10051E00B2E00E949408A8E7B2E06ED30E9487086A
:10052E00E9F3CFC00E949B0871F40E948C08A1E9E8
:10053E00B2E00E9494080E94A0080E949B08E9F372
:10054E000E94A808BEC00E94B00811F46CD3B9C0B6
:10055E000E94B50809F049C00E948C08AAEAB2E0D0
:10056E000E949408A0E0B0E0EAD35E2F0E94BA0881
:10057E00E52FF0E0FA93EA93A9E2B6E00E94240890
:10058E000E94C40800E010E0E52FD801F0E0AE179D
:10059E00BF0714F50E94BA0820E030E02830E0E0F2
:1005AE003E076CF4F901E75DF94FFF93EF930E945C
:1005BE00CC08AF91BF91EC932F5F3F4FEFCFA9E2E5
:1005CE00B6E0A20FB31FE0E0EC930E948C080E94ED
:1005DE00C4080F5F1F4FD8CF0E948C08A0ECB2E06A
:1005EE000BD30E94B508E9F36CC0E5E0F0E0E4152A
:1005FE00F50579F50E948C08A8EDB2E0FDD20E94B7
:10060E00D5085E2F00E010E0E52FD801F0E0AE1720
:10061E00BF07C4F420E030E02830E0E03E073CF4B1
:10062E000E94CC08AE2FA2D32F5F3F4FF5CFADE087
:10063E009DD3ADE09BD3A4EFB1E00E9476090F5F8E
:10064E001F4FE2CF0E948C08AEEEB2E00E94D90896
:10065E0036C00E94DF0869F40E948C08A6E0B3E061
:10066E000E949408A8E1B3E0C7D20E94DF08E9F324
:10067E0028C00E94E40871F40E948C08AAE2B3E03C
:10068E000E9494080E94A0080E94E408E9F30E94C8
:10069E00A80817C00E94E90871F40E948C08A9E40A
:1006AE00B3E00E9494080E94A0080E94E908E9F3B2
:1006BE000E94A80806C00E94EE0819F43AD44424F9
:1006CE0055241BCFFFCF0A921A92FA926A937A930D
:1006DE008A939A93AA93BA93EA93FA93EFB7EA930B
:1006EE0022970E94490BEFEE0E94F30811F000E0F2
:1006FE0012C0EFED0E94F30811F001E00CC0EFEB19
:10070E000E94F30811F002E006C0EFE7E5BBE3B389
:10071E00EF701E2F03E01E3011F430E009C01D30C3
:10072E0011F431E005C01B3011F432E001C033E0AA
:10073E00E5B3EF70E5BB042C052809F060C00E94FC
:10074E00F908EC91F0E0F097E130A0E0FA0721F41F
:10075E00E1E0F0E02F0136C0E430A0E0FA0721F42A
:10076E00E3E0F0E02F012EC0E330A0E0FA0721F421
:10077E00E4E0F0E02F0126C0E530A0E0FA0721F416
:10078E00E5E0F0E02F011EC0E230A0E0FA0721F410
:10079E00E6E0F0E02F0116C0E630A0E0FA0721F403
:1007AE00E9E0F0E02F010EC0E930A0E0FA0751F4C5
:1007BE00F8940E948C08A8E6B3E01ED2A6D27894D4
:1007CE00442455240E94F908AC91AC3449F4E0E07D
:1007DE00E71520F4E72DF0E0319701C0E2E07E2E20
:1007EE000E94F908AC91A23549F4E72DF0E031965C
:1007FE00DF01E3E0F0E00E942C0B7E2EA4C10E94EC
:10080E008708A9F40E94F908EC91F0E0E334A0E027
:10081E00FA0719F44424552409C0E133A0E0FA077D
:10082E0029F40E94BA08E2E0F0E02F018CC10E9488
:10083E009B0809F09AC00E94F908EC91F0E0FA9733
:10084E007CF40E9405097F9750F40E9405090E94CE
:10085E0009090E940D090E941109AC9191D184C021
:10086E000E94F908AC91A43461F40E9405095E2F30
:10087E00513030F00E941609ACE7B3E00E94200917
:10088E0073C00E94F908AC91A53409F065C0F894C4
:10089E00E9E2F6E0FA93EA93EEE7F3E0FA93EA93ED
:1008AE00A2E00E946E08E03031F40E940509E830A3
:1008BE00A0E0FA0769F0979A0E948C08A1E8B3E0CD
:1008CE000E949408AFE9B3E00E94D908979840C0FF
:1008DE0061D2E13068F0979A0E948C08AEEBB3E0DB
:1008EE000E949408ADEDB3E00E94D908979830C0ED
:1008FE000E94D5082E2FE0E0EE83EF83AE81BF81FC
:10090E001897ACF4E22F0E942509AE81BF81EA0F41
:10091E00FB1FFA93EA93E885F985E75DF94FA0810D
:10092E001AD2EE81FF813196EE83FF83E7CFE0E0AE
:10093E00F0E0FA93EA93A22FAF5F0DD20E948C08DB
:10094E00ACEFB3E00E949408ACE1B4E00E94D90889
:10095E000E94BA08789405C00E94F908AC91A3349D
:10096E0019F4E1E0F0E02F01EEC00E94B00841F46E
:10097E000E94F908AC91A33411F444245524E3C029
:10098E000E94B50841F40E94F908AC91A33411F409
:10099E0044245524D8C00E94DF08C9F40E94F908E7
:1009AE00AC91A33419F44424552410C00E94F908C4
:1009BE00AC91A13319F4E7E0F0E007C00E94F9080A
:1009CE00AC91A23319F4E8E0F0E02F01BCC00E9414
:1009DE00E40809F054C00E94F908EC91F0E0FA978F
:1009EE007CF40E9405097F9750F40E9405090E942D
:1009FE0009090E940D090E941109AC91C1D03EC097
:100A0E000E94F908AC91A43461F40E9405095E2F8E
:100A1E00513030F00E941609ABE3B4E00E94200979
:100A2E002DC00E94F908AC91A53401F50E942A0947
:100A3E0048F00E948C08ADE3B4E00E949408A0E553
:100A4E00B4E008C00E948C08AFE6B4E00E9494089F
:100A5E00ACE8B4E0D1D0A8E8B3E10E9476090E94D8
:100A6E00BA08E6E0F0E02F01219608C00E94F908CE
:100A7E00AC91A33419F4E6E0F0E02F0164C00E94BB
:100A8E00E90809F056C00E94F908EC91F0E0FA97D7
:100A9E007CF40E9405097F9750F40E9405090E947C
:100AAE0009090E940D090E941109AC9169D040C03C
:100ABE000E94F908AC91A43461F40E9405095E2FDE
:100ACE00513030F00E941609ABEAB4E00E942009C2
:100ADE002FC00E94F908AC91A53451F50E942A0945
:100AEE00A0F00E948C08ADEAB4E00E949408A0EC3D
:100AFE00B4E082D0A88198D10E948C08A3EDB4E016
:100B0E000E949408ACEEB4E008C00E948C08ABE0E2
:100B1E00B5E00E949408A8E2B5E06ED0A0EDB7E073
:100B2E000E9476090E94BA08E6E0F0E02F012196B5
:100B3E000AC00E94EE0839F40E94F908AC91A33461
:100B4E0011F4442455240E94500B2896E991EFBFCE
:100B5E00F991E991B991A9919991899179916991B7
:100B6E00F9901990099018950E943109C0980E9429
:100B7E003A0980E892E00197F1F70E944109FBC023
:100B8E000E943109C09A0E943A090E944109F3C09D
:100B9E00EFEFE7BBC29880E09AEF0197F1F7A3E37E
:100BAE000E944F09A2E30E944F09A8E20E944F093A
:100BBE000E94A808A1E0D8DF80E09AEF0197F1F734
:100BCE00A6E00E944F090895AA932497E0E8E883CF
:100BDE00E0ECE983E4E9EA83E4EDEB83EC81F0E019
:100BEE003197DE01AE0FBF1FEC91AD81AE0FA1505C
:100BFE000E944F0926960895BA93AA931A9310E06D
:100C0E00A981BA81EE27A10FBE1FEC91E03049F009
:100C1E00A981BA81EE27A10FBE1FAC91B1DF1F5F74
:100C2E00EFCF1881A1C023971A9310E0E0EEE7B939
:100C3E00E7E8E6B90E948C08A7E4B5E0DDDF0E9484
:100C4E00B008F1F4369A349BFECFE5B11E1799F039
:100C5E0015B1E12FF0E0FA93EA93DE0113960E94AC
:100C6E002408E1E1EA93A1E0AFDFDE011196C4DFD3
:100C7E00A7E5B5E0C1DFA4EFB1E00E947609DFCFB2
:100C8E00E0E0E6B9188124960895042C0528E1F5D4
:100C9E000E948C08772081F4A9E5B5E00E949408A3
:100CAE00A6E7B5E0A9DF772021F40024041405049B
:100CBE0009F001C0F8CF27C0E1E0E71589F4ACE8F0
:100CCE00B5E00E949408A6EAB5E096DFE1E0E715EC
:100CDE0021F400240414050409F001C0F7CF13C059
:100CEE00E2E0E71581F4A0ECB5E00E949408A9EDCE
:100CFE00B5E082DFE2E0E71521F4002404140504D8
:100D0E0009F001C0F7CFC1CF08951A930A9300E0FE
:100D1E0010E00030E4E01E0778F4E199FECFE12FF9
:100D2E00F070E370EFBBE02FEEBBE0E0EDBBE29ABC
:100D3E00E19A0F5F1F4FEDCF099119910895BA9364
:100D4E00AA931A93E199FECF0E945609E09A1DB319
:100D5E00E12F188109C0AA93E199FECF0E9456098E
:100D6E00E881EDBBE29AE19A23960895AA935D9BE2
:100D7E00FECFE881ECB921960895BA93AA93E88143
:100D8E00E9B9E981F070E0BDE8E1EAB9E6E0E0BD7D
:100D9E00229608952A970E944B0B0E94D5081E2F6B
:100DAE0000E00117E0F5FE013496FA93EA93E0E0D5
:100DBE00EA93AAE0B0E00E94520830E03830A8F47E
:100DCE00E32FF0E0DE011496EA0FFB1FFF93EF9383
:100DDE00A32FBB27E02F0E942509AE0FBF1FAFDF49
:100DEE00AF91BF91EC933F5FE9CFE32FF0E0DE01CF
:100DFE001496AE0FBF1FE0E0EC93FE013496FA930B
:100E0E00EA93E9E2F6E0FA93EA93A8E00E946E080C
:100E1E00E03019F4E02FEF5F03C00F5FC2CFE0E0C8
:100E2E000E94520B2E960895AA930E944B0B0E947D
:100E3E00D5081E2F0C811017D8F030E03830B0F4E2
:100E4E00A32FBB27E02F0E942509AE0FBF1F77DF10
:100E5E002E2FA32FBB27E8E0E09FF001EA0FFB1F28
:100E6E00FA93EA93A22F77DF3F5FE8CF0F5FE3CFCE
:100E7E00E0E0F0E0FA93EA93A12FA1506CDF0E941C
:100E8E00520B0C9460088D9A8E980895959A88E26C
:100E9E008A95F1F7959808952897E0E0EC83ED8315
:100EAE00EE83EF830E945D0930F4869B01C003C080
:100EBE000E946909F7CF0E945D0919F4EFEFFFEF69
:100ECE0036C0E0E0EFBDE3E0EEBDE0E0F0E0FDBDFA
:100EDE00ECBDEC83ED83EE83EF830E945D0970F42D
:100EEE00869B0CC0ECB5FDB5E136AAEEFA0718F0FC
:100EFE00EEEFFFEF1CC00E946909EFCFECB5FDB518
:100F0E00662777270E94440BE0E0EEBD0E943F0B60
:100F1E00A136EAEEBE07E0E08E07E0E09E0718F08D
:100F2E00EEEFFFEF04C00E943A0B0E940F0B2896C3
:100F3E00089560970E94490B4FEF5FEF0E948C0857
:100F4E00AFEEB5E059DE0E94EE0809F072C09EDFEA
:100F5E00A3DF8F01EFEFFFEFE017F10729F40E94F7
:100F6E008C08AAEFB5E05FC0EEEFFFEFE017F107D8
:100F7E0029F40E948C08A0E0B6E055C0F80166275F
:100F8E0077270E94E609A6E9B3E48BE09DE30E9471
:100F9E00690ADF01CB01E0E0F0E060E070E40E945E
:100FAE00B70AA0E0B0E080E09FE30E94190A0E9419
:100FBE00AF099F014217530789F0A9013A932A936B
:100FCE00DE0118960E942408EBE0EA93A1E0FCDD16
:100FDE00DE01169611DEACE0B6E00EDE2630E0E065
:100FEE003E070CF46394E0914906F0914A06A62D53
:100FFE00B0E0EA17FB07C1F0E62DF0E0E0934906FA
:10100E00F0934A06E1E0EA93A2E0DEDDE62DF0E0A1
:10101E00FA93EA93DE0118960E942408A1E1B6E045
:10102E00EBDDDE011696E8DDA4E6B0E00E9476095F
:10103E008ACF0E94500B66960895BA93AA93A991EF
:10104E00B991E991F99130962AF4E095F09531969F
:10105E006DE26D93E89480E197E20DD088EE93E017
:10106E000AD084E6992707D08AE005D06E2F10D0DB
:10107E0066276C9308956627E817F90720F06395A5
:10108E00E81BF90BC9F7662311F416F0089568945E
:10109E00605D6D930895BA93AA93B981A881109655
:1010AE0031F0FC81EB816A8161931197E9F7EB8155
:1010BE00FC8125960895BA93AA93A991B991EE272A
:1010CE00FF276D91662311F03196FBCF0895AA93F9
:1010DE00662777278991E991F991A991B99188238A
:1010EE0049F08A956D917191671721F46623B9F7CE
:1010FE00EE270895671BE1F3E1E008F4E25008954E
:10110E00E1E0F0E0E415F5050895A1E00E94BB05CD
:10111E00E1E0EA93A1E00C94EB050E940306E1E006
:10112E00EA93A2E00C94EB05E2E0F0E0E415F5059D
:10113E000895AFE00E94BB0580E89CE00197F1F7AF
:10114E000895ACE00E94BB0580E89CE00197F1F7A2
:10115E000895E3E0F0E0E415F5050895E4E0F0E02D
:10116E00E415F5050895E9E2F6E0FA93EA93E0E076
:10117E00EA93A0E2B0E00C945208A9E2B6E00E9415
:10118E000306A8EEB3E00C947609F80131960E949E
:10119E00080BE20FF31FDF010C94A606A0E0B0E0EF
:1011AE000C94A6060E940306A0EDB7E00C947609F7
:1011BE00E6E0F0E0E415F5050895E7E0F0E0E4156B
:1011CE00F5050895E8E0F0E0E415F5050895E9E089
:1011DE00F0E0E415F5050895E5BBE3B3EF701E2FBF
:1011EE001F300895E02FA9E1B6E0F0E00E940A0B4F
:1011FE00AE0FBF1FEE27A30FBE1F0895A9E2B6E0E4
:10120E000C946208E75DF94F0F01ECCFEC91D00121
:10121E00EC93F4CFE65DF94FA0E0A083E3CFE52F8A
:10122E00F0E03197E75DF94FA0E0A083A0E10C94C8
:10123E00BB050E940306A0E10C94BB05F0E03196BD
:10124E000E94080B089521970E94D106E883A88179
:10125E00A1300895AA93E8B3EF70AE2FE881E07F36
:10126E00EA2BE8BB0895C198C29A8BE28A95F1F7F2
:10127E00C2980895E8B3EF70AE2FE881E295E07F53
:10128E00EA2BE8BBC29A8BE28A95F1F7C2980895D1
:10129E000E94BB0580E89CE00197F1F70895EA8172
:1012AE00F070E370EFBBE981EEBB0895AC81BD81B8
:1012BE008E819F81A03CE7E2BE07E9E08E07E0E069
:1012CE009E070895EC81FD816E817F81EF5FFF4F58
:1012DE006F4F7F4FEC83FD836E837F83089510964F
:1012EE0039F0A89580ED97E00197F1F71197C9F7BE
:1012FE000895552342F4503811F4E0FF04C031969E
:10130E00691F791F6BF050E8572711F45F93C8C01F
:10131E005F3F31F0660F000C57956795752F089556
:10132E005F9300200AF0C8C0C1C050E8192E1522E4
:10133E00880F991F9527550F879550E8072E052280
:10134E00660F771F7527550F67950895689401C02E
:10135E00E8945F93F2DF703818F07F3F08F4A0C076
:10136E0056E1571BAAF4519558300EF4593030F00F
:10137E00EFEFFFEF6FEF7FE777F91AC0772755236F
:10138E00B9F0EE0FFF1F661F771F5A95D1F710C0E9
:10139E007727583028F0EF2FF62F672F5850F9CFB8
:1013AE00552331F076956795F795E7955A95D1F7D0
:1013BE0000200AF41ED15F910895689401C0E8944C
:1013CE00309760407040B1F0002426F0772312F47D
:1013DE0000940FD1172E7EE1112032F07A95EE0F88
:1013EE00FF1F661F111CF9CFEF2FF62F612D5F9394
:1013FE008ADF5F9108954F93AF01FD01DA01AB01D2
:10140E00BC01CA01402D012C142E4F910895EA0FF4
:10141E00FB1F681F0895E095F0956095EF5FFF4FF5
:10142E006F4F08955F9381DF903839F1703821F155
:10143E00572F591B2BF112F4DEDFFACF583118F06B
:10144E00AA27BB278827583028F0AB2FB82F88271C
:10145E005850F9CF552329F08695B795A7955A95EB
:10146E00D9F7502D512572F0D2DF38F46795F795E4
:10147E00E795739513F420C0BEDF45DF5F910895A5
:10148E00D8F7FBCFEA1BFB0B680B51F010F400945E
:10149E00C2DF662392F3EE0FFF1F661F7A95CBF71E
:1014AE00EE27FF27662777275F910895EFEFFFEF6F
:1014BE006FE77FEF5F910895EFEFFFEF6FE77FE745
:1014CE005F9108955F9331DF703851F3903841F397
:1014DE0001240894791F23F41CF300203AF3ECCF77
:1014EE000F921F932F933F934F93112722279927E4
:1014FE00689FA0018F9F302D410D591F6B9F300D9E
:10150E00411D591F8E9F27D0BF9F25D06A9F23D084
:10151E00BE9F1DD0AF9F1BD0AE9F110D291F391F2F
:10152E00491F591FE32FF42F652F522F4F913F91D3
:10153E002F911F910F9066232AF0550FEE1FFF1F5C
:10154E00661F02C073954BF2D4DE5F910895100DA5
:10155E00211D391F02C0200D311D491F591F08952D
:10156E005F93E3DE703821F411200AF49FCFA4CFED
:10157E00903809F495CF01240894970B1BF4D4F3FB
:10158E000020F3CF792F1F932F933F934F93112466
:10159E001127222733274427552790E2AE17BF077E
:1015AE008607410730F0AE1BBF0B860B410B08942C
:1015BE0001C08894551F221F331F111CAA1FBB1F69
:1015CE00881F441F9A9551F7F901612D4F913F9154
:1015DE002F911F91662332F0550FEE1FFF1F661FCE
:1015EE007A9543F286DE5F910895F195E195F0408C
:1015FE000895F09560957095E195FF4F6F4F7F4F71
:10160E000895EE0FFF1FEE0FFF1FEE0FFF1F089541
:10161E0076956795F795E79508956F2F660F660B8C
:10162E00762F08950024112490E1AA0FBB1F001CF1
:10163E00111C0E1A1F0A18F40E0E1F1E01C0A160F7
:10164E009A9599F7FD01D0010895E894B7FF04C06B
:10165E00A095B09511966894F7FDC7DFE3DFFD0105
:10166E000EF4C3DF0895E881F9816A817B810895C4
:10167E00A881B9818A819B810895E883F9836A8361
:10168E007B8308955A934A933A932A931A930A9313
:10169E0008955D814C813B812A81198108810895CD
:00000001FF
