:020000000C945E
:1000020011030C94E6040C9400000C9400000C9470
:1000120000000C9400000C9400000C9400000C945E
:1000220000000C9400000C9400000C9400000C944E
:1000320000000C9400000C9400000C9400000C943E
:1000420000000C9400000C9400000C9400000C942E
:1000520000000000000000003738394F34353644C4
:10006200313233434C305245640FFFFF313A205353
:1000720075626D69742053747564656E7420436F84
:10008200646500323A205375626D69742057697451
:1000920068204361726400456E74657220796F75E1
:1000A200722073747564656E7420636F64653A00C0
:1000B2004272696E6720796F757220636172642083
:1000C2006E656172206465766963653A003430005A
:1000D200496E76616C696420436172640044757094
:1000E2006C69636174652053747564656E74204332
:1000F2006F64650053747564656E74206164646531
:100102006420776974682049443A004E756D6265CF
:1001120072206F662073747564656E7473203A2062
:100122000050726573732043616E63656C20546F77
:1001320020476F204261636B0053746172742054D4
:1001420072616E7366657272696E672E2E2E00552D
:1001520073617274205472616E736D6974204669A2
:100162006E697368656400313A2053656172636831
:100172002053747564656E7400323A2044656C6570
:1001820074652053747564656E7400456E7465728F
:100192002053747564656E7420436F646520466FE6
:1001A20072205365617263683A00456E746572200D
:1001B20053747564656E7420436F646520466F7274
:1001C2002044656C6574653A00456E74657220530F
:1001D200656372657420436F646520286F722063C3
:1001E200616E63656C290031203A20436C6561724F
:1001F20020454550524F4D002020202070726573DB
:10020200732063616E63656C20746F206261636B3F
:10021200004C6F676F7574202E2E2E00476F696E2B
:100222006720546F2041646D696E205061676520BC
:10023200496E20322053656300496E636F727265A6
:1002420063742053747564656E7420436F64652013
:10025200466F726D617400596F752057696C6C201E
:100262004261636B204D656E7520496E20322053CA
:1002720065636F6E64004475706C696361746520B8
:1002820053747564656E7420436F646520456E74A3
:10029200657265640053747564656E7420436F649F
:1002A20065205375636365737366756C6C79204161
:1002B2006464656400596F75204D757374204669D6
:1002C200727374204C6F67696E00596F752057699D
:1002D2006C6C20476F2041646D696E2050616765C8
:1002E2002032205365630053747564656E74204335
:1002F2006F646520466F756E64004F7073202C200A
:1003020053747564656E7420436F6465204E6F7418
:1003120020466F756E64005761697420466F7220C3
:1003220044656C6574652E2E2E0053747564656E7B
:100332007420436F6465205761732044656C657453
:100342006564004C6F67696E2053756363657373F0
:1003520066756C6C7900576169742E2E2E004F7091
:1003620073202C2073656372657420697320696E33
:10037200636F727265637400436C656172696E6764
:1003820020454550524F4D202E2E2E0074656D7023
:10039200657261747572652843293A00313A2041C9
:1003A2007474656E64616E636520496E6974696117
:1003B2006C697A6174696F6E00323A2053747564A5
:1003C200656E74204D616E6167656D656E74003394
:1003D2003A20566965772050726573656E742053B2
:1003E200747564656E74732000343A2054656D70C0
:1003F20065726174757265204D6F6E69746F726992
:100402006E6700353A2052657472696576652053CD
:10041200747564656E74204461746100363A2054C8
:10042200726166666963204D6F6E69746F72696E80
:100432006700373A204C6F67696E205769746820ED
:1004420041646D696E00383A204C6F676F757400B5
:1004520044697374616E63653A20004572726F720B
:10046200004E6F204F62737461636C650020636D90
:100472002000436F756E743A200001002D4E414EEC
:1004820000494E4600000600040054001000840794
:100492005A00170060026E001400770285001900EE
:1004A2008B0299001D00A402B2000300C102CF001A
:1004B2000D00C402D2001700D102DF001700E802CB
:1004C200F6001600FF020D011800150323011600A5
:1004D2002D033B0118004303510112005B03690124
:1004E20012006D037B011F007F038D011F009E031D
:1004F200AC011E00BD03CB011100DB03E9011900B1
:10050200EC03FA010B00050413021D0010041E0285
:1005120002002D04210103002F04CF001E0032042B
:100522003B021F00500459021F006F0478021F0093
:100532008E0459022000AD0497021F00CD04590217
:100542001500EC04B7021D000105CC0202001E05D5
:10055200210113002005E9021F00330559021D0085
:100562005205FC021F006F05590202008E0521018F
:1005720013009005E9021300A30519031900B6053B
:100582002C031F00CF0559021D00EE05FC021F00BF
:100592000B06590202002A06210113002C0645030C
:1005A20008003F0658031A00470660031F00610651
:1005B2005902140080067A03100094068E0302008A
:1005C200A40621011D00A6069E031600C306BB0356
:1005D2001A00D906D1031A00F306EB0319000D071E
:1005E2000504160026071E0414003C0734040A0002
:1005F200500748040200B4076C000B005A0752046B
:10060200060065075D040C006B07630405007707AD
:100612006F0408007C0774040100B6077C04000024
:10062200F894EE27ECBBF1E0FBBFEBBFE5BF8DE03A
:10063200A2E0BB27ED938A95E9F780E098E0A0E677
:10064200ED930197E9F7E8E8F4E085919591009739
:1006520061F0A591B59105901590BF01F00105904B
:100662000D920197E1F7FB01F0CFEFE5EDBFE8E076
:10067200EEBFC0E6D2E00C943E03E0EFE4BBEFEF46
:10068200E5BBE5B3EF70E5BBE2E0E5BFE0E4EBBF5D
:100692008F9A9798A3E3B0E00E9451090E94D30970
:1006A200ECD47894A1E0D5D4042C052811F462D5B9
:1006B2008AC10E94330B69F40E94380BA0E6B2E0B3
:1006C2000E94400BA7E7B2E00DD50E94330BE9F37D
:1006D2007AC10E94470B61F40E94380BABE8B2E08A
:1006E2000E94400B0E944C0B0E94470BE9F368C129
:1006F2000E94540B09F072C00E94540B09F06DC0A5
:100702000E94380BA4EAB2E00E94400B0E94590BEF
:100712000E9448094E2FED3049F00E94540B31F4EB
:100722000E945E0BEC56F84F4083F2CF0E94540BAE
:1007320029F00E94620B0E94670B4FC00E94620B5D
:10074200E1ECF2E00E946D0B31F40E945E0BE830A6
:10075200A0E0FA0749F00E94380BA4ECB2E0C2D440
:10076200979A0E94740B34C0A8D5E13040F0979A52
:100772000E94380BA1EDB2E00E947A0B29C00E94C0
:100782007D0B00E010E00830E0E01E0784F4E52F66
:100792000E94830BE00FF11FFA93EA93A4E9B7E0FA
:1007A200A00FB11FAC9161D50F5F1F4FECCF0E941C
:1007B200880BA52FAF5F59D50E94380BA8EEB2E087
:1007C2000E94400B0E948D0BA8EBBBE00E94470CDD
:1007D2000E94620B0E94670B8FCFF5C00E94910BA3
:1007E20011F497D4F0C00E94960B09F053C00E94F6
:1007F200380BAFEFB2E00E94400B0E947D0B0E94CB
:10080200620B0E94670BE52FF0E0FA93EA93A4E9EA
:10081200B7E00E94D00A0E948D0BA8EEB3E00E94BE
:10082200470C00E010E0E52FD801F0E0AE17BF075B
:1008320044F50E94620B0E94670B20E030E02830F2
:10084200E0E03E076CF4F901EC56F84FFF93EF93AA
:100852000E949B0BAF91BF91EC932F5F3F4FEFCF65
:10086200A4E9B7E0A20FB31FE0E0EC930E94380BBB
:100872000E948D0BA8EEB3E00E94470C0F5F1F4F42
:10088200D2CF0E94380BA5E1B3E02CD40E94960B84
:10089200E9F399C0E6E0F0E0E415F505B9F50E9448
:1008A200380BADE2B3E01ED40E947D0B00E010E0F5
:1008B200E52FD801F0E0AE17BF0794F420E030E056
:1008C2002830E0E03E073CF40E949B0BAE2FD8D4C8
:1008D2002F5F3F4FF5CF0E94A40B0F5F1F4FE8CF52
:1008E20020E030E02830E0E03E072CF4ADE3C8D44D
:1008F2002F5F3F4FF7CF0E94A40B0E94380BA3E457
:10090200B3E00E94AE0B442455245DC00E94B40B98
:1009120069F40E94380BABE5B3E00E94400BADE6F0
:10092200B3E0E0D30E94B40BE9F34DC00E94B90BCF
:1009320061F40E94380BAFE7B3E00E94400B0E94C3
:100942004C0B0E94B90BE9F33BC00E94BE0B61F451
:100952000E94380BAEE9B3E00E94400B0E944C0BA0
:100962000E94BE0BE9F32CC00E94C30B21F470D588
:100972004424552428C00E94C80B29F50E94380B34
:10098200ADEBB3E00E94400B0E944C0B0E94C80BDF
:1009920011F4992009F001C0F9CFE1E0E91581F4E1
:1009A200ACE00E94CD0B0E94380BABEDB3E00E948D
:1009B200400BACEEB3E096D30E94C80BE9F303C040
:1009C200ACE00E94CD0B70CEFFCF0A921A92FA923F
:1009D2006A937A938A939A93AA93BA93EA93FA932D
:1009E200EFB7EA9322970E94030EEFEE0E94D00B1C
:1009F20011F000E012C0EFED0E94D00B11F001E007
:100A02000CC0EFEB0E94D00B11F002E006C0EFE742
:100A1200E5BBE3B3EF701E2F03E01E3011F430E0AC
:100A220009C01D3011F431E005C01B3011F432E071
:100A320001C033E0E5B3EF70E5BB042C052809F0F3
:100A420070C00E94D60BEC91F0E0F097E130A0E08C
:100A5200FA0721F4E1E0F0E02F0147C0E430A0E022
:100A6200FA0721F4E4E0F0E02F013FC0E330A0E018
:100A7200FA0721F4E5E0F0E02F0137C0E530A0E00D
:100A8200FA0721F4E6E0F0E02F012FC0E230A0E007
:100A9200FA0721F4E7E0F0E02F0127C0E630A0E0FA
:100AA200FA0721F4EAE0F0E02F011FC0E730A0E0EE
:100AB200FA0721F4EBE0F0E02F0117C0E830A0E0E4
:100AC200FA0799F4F894E1E0E91579F40E94380BF9
:100AD200A5E0B4E00E94400BA0E1B4E00E94AE0B9E
:100AE20099247894EBE0F0E02F010E94D60BAC91B0
:100AF200AC3449F4E0E0E71520F4E72DF0E031975B
:100B020001C0E3E07E2E0E94D60BAC91A23541F4E7
:100B1200E72DF0E03196A3E0B0E00E94EA0D7E2ED0
:100B220087C20E94330B19F50E94D60BEC91F0E0BC
:100B3200E334A0E0FA0719F44424552417C0E13342
:100B4200A0E0FA0741F40E94620B0E94670BE2E008
:100B5200F0E02F010BC0E233A0E0FA0739F40E9463
:100B6200620B0E94670BE3E0F0E02F0161C20E947A
:100B7200470B09F09EC00E94D60BAC91A33439F406
:100B82000E94620B0E94670BE1E0F0E02F010E94DD
:100B9200D60BEC91F0E0FA977CF40E945E0B7F9703
:100BA20050F40E945E0B0E94E20B0E94E60B0E9430
:100BB200EA0BAC915AD27CC00E94D60BAC91A43401
:100BC20061F40E945E0B5E2F513030F00E94EF0BF9
:100BD200ADE2B4E00E94F90B6BC00E94D60BAC915F
:100BE200A53409F05DC0F8940E94620BEFE2F4E0D4
:100BF2000E946D0B31F40E945E0BE830A0E0FA0710
:100C020061F0979A0E94380BA2E3B4E00E94400B75
:100C1200A0E5B4E00E947A0B3DC04FD3E13060F012
:100C2200979A0E94380BAFE6B4E00E94400BAEE800
:100C3200B4E00E947A0B2EC00E94FE0B2E2FE0E041
:100C4200EE83EF83AE81BF811897ACF4E22F0E944E
:100C5200830BAE81BF81EA0FFB1FFA93EA93E8850B
:100C6200F985EC56F84FA08100D3EE81FF813196D1
:100C7200EE83FF83E7CF0E94880BA22FAF5FF5D2EE
:100C82000E94380BADEAB4E00E94400BADECB4E038
:100C92000E94AE0B0E94620B0E94670B789405C003
:100CA2000E94D60BAC91A33419F4E1E0F0E02F01DD
:100CB200BFC10E94540B69F40E94D60BAC91A334BD
:100CC20039F40E94620B0E94670BE1E0F0E02F0111
:100CD200AFC10E94910B41F40E94D60BAC91A33498
:100CE20011F444245524A4C10E94960B41F40E949D
:100CF200D60BAC91A33411F44424552499C10E941B
:100D0200B40B91F50E94D60BAC91A33419F4442490
:100D1200552429C00E94D60BAC91A13319F4E8E006
:100D2200F0E020C00E94D60BAC91A23319F4E1E0AE
:100D3200E91509F003C0E9E0F0E014C00E94D60B07
:100D4200AC91A23311F4992009F00DC00E94380B26
:100D5200ACEEB4E00E94400BA1E0B5E00E94AE0B05
:100D6200EBE0F0E02F0164C10E94B90B09F060C012
:100D72000E94D60BAC91A33429F40E94620B0E940C
:100D8200670B52C00E94D60BEC91F0E0FA977CF40C
:100D92000E945E0B7F9750F40E945E0B0E94E20B52
:100DA2000E94E60B0E94EA0BAC915FD140C00E9408
:100DB200D60BAC91A43461F40E945E0B5E2F5130CD
:100DC20030F00E94EF0BAEE1B5E00E94F90B2FC0AC
:100DD2000E94D60BAC91A53411F50E94020C48F08A
:100DE2000E94380BA0E2B5E00E94400BA3E3B5E0FD
:100DF20008C00E94380BA2E5B5E00E94400BAFE6A6
:100E0200B5E070D1A0EDB7E00E94470C0E94620BE2
:100E12000E94670BE7E0F0E02F01219608C00E94D4
:100E2200D60BAC91A33419F4E7E0F0E02F0100C136
:100E32000E94BE0B09F065C00E94D60BAC91A33490
:100E420041F40E94620B0E94670BE7E0F0E02F0181
:100E520057C00E94D60BEC91F0E0FA977CF40E9406
:100E62005E0B7F9750F40E945E0B0E94E20B0E9481
:100E7200E60B0E94EA0BAC91F8D042C00E94D60B5E
:100E8200AC91A43461F40E945E0B5E2F513030F0BD
:100E92000E94EF0BAEE8B5E00E94F90B31C00E9450
:100EA200D60BAC91A53461F50E94020CA0F00E9411
:100EB200380BA0E9B5E00E94400BA3EAB5E012D1DD
:100EC200A88143D20E94380BA6EBB5E00E94400BEA
:100ED200AFECB5E008C00E94380BAEEEB5E00E9460
:100EE200400BABE0B6E0FED0A0EDB7E00E94470CAD
:100EF2000E94620B0E94670BE7E0F0E02F0121964F
:100F020097C00E94C30B41F40E94D60BAC91A3344C
:100F120011F4442455248CC00E94C80B19F4E1E05A
:100F2200E91509F462C00E94D60BAC91A33439F4DE
:100F32000E94620B0E94670B4424552455C00E94F4
:100F4200D60BEC91F0E0FA977CF40E945E0B7F974F
:100F520050F40E945E0B0E94E20B0E94E60B0E947C
:100F6200EA0BAC9182D040C00E94D60BAC91A43463
:100F720061F40E945E0B5E2F513030F00E94EF0B45
:100F8200AAE2B6E00E94F90B2FC00E94D60BAC91E8
:100F9200A53451F52297A4E9B7E0DED2E883F983BC
:100FA200A881B981A436EFE0BE0769F40E94380B2C
:100FB200ACE2B6E00E94400BAFE3B6E00E94AE0B9B
:100FC200E1E09E2E0AC00E94380BA7E4B6E00E9420
:100FD200400BA1E6B6E00E94AE0B0E94620B0E949B
:100FE200670B44245524229623C00E94C80B11F497
:100FF200992009F41DC00E94D60BEC91F0E0E33475
:10100200A0E0FA0719F4442455240CC0E133A0E00F
:10101200FA0741F4F8940E94380BA0E8B6E062D0D7
:10102200FED078940E94620B0E94670B44245524E0
:101032000E940A0E2896E991EFBFF991E991B991C0
:10104200A9919991899179916991F9901990099051
:1010520018950E94090CC0980E94120C80E892E038
:101062000197F1F70E94190C10C10E94090CC09A55
:101072000E94120C0E94190C08C1EFEFE7BBC29844
:1010820080E09AEF0197F1F7A3E30E94CD0BA2E370
:101092000E94CD0BA8E20E94CD0BACE00E94CD0BCA
:1010A200A1E0D7DF80E09AEF0197F1F7A6E00E9476
:1010B200CD0B0895AA932497E0E8E883E0ECE98356
:1010C200E4E9EA83E4EDEB83EC81F0E03197DE01C1
:1010D200AE0FBF1FEC91AD81AE0FA1500E94CD0BA0
:1010E20026960895BA93AA931A9310E0A981BA8119
:1010F200EE27A10FBE1FEC91E03049F0A981BA8121
:10110200EE27A10FBE1FAC91B0DF1F5FEFCF18819A
:10111200B5C023971A9310E0E0EEE7B9E7E8E6B925
:101122000E94380BA4E9B6E0DDDF0E94910BF1F4D6
:10113200369A349BFECFE5B11E1799F015B1E12F17
:10114200F0E0FA93EA93DE0113960E94D00AE1E1FD
:10115200EA93A1E0AFDFDE011196C4DFA4EAB6E0B4
:10116200C1DFA4EFB1E00E94470CDFCFE0E0E6B9B7
:10117200188113C2042C052809F050C00E94380BB4
:10118200772081F4A6EAB6E00E94400BA3ECB6E019
:10119200A9DF772021F400240414050409F001C01A
:1011A200F8CF3BC0E1E0E71589F4A9EDB6E00E9473
:1011B200400BA3EFB6E096DFE1E0E71521F400244F
:1011C2000414050409F001C0F7CF27C0E2E0E715D7
:1011D20089F4ADE0B7E00E94400BA6E2B7E082DFFF
:1011E200E2E0E71521F400240414050409F001C02B
:1011F200F7CF13C0E3E0E71581F4ACE3B7E00E9458
:10120200400BA0E5B7E06EDFE3E0E71521F4002430
:101212000414050409F001C0F7CFACCF08951A9366
:101222000A9300E010E00030E4E01E0778F4E19950
:10123200FECFE12FF070E370EFBBE02FEEBBE0E0FA
:10124200EDBBE29AE19A0F5F1F4FEDCF0991199121
:101252000895BA93AA931A93E199FECF0E94270C9C
:10126200E09A1DB3E12F188109C0AA93E199FECF3C
:101272000E94270CE881EDBBE29AE19A2396089539
:10128200AA935D9BFECFE881ECB9219608955F9900
:1012920003C00E94540B09F001C0F9CFECB10895CC
:1012A200BA93AA93E881E9B9E981F070E0BDE8E177
:1012B200EAB9E6E0E0BD229608952A970E94050E5B
:1012C2000E94FE0B1E2F00E00117D0F5FE0134969E
:1012D200FA93EA93E0E0EA93AAE0B0E00E94FE0A01
:1012E20030E03830A8F4E32FF0E0DE011496EA0F84
:1012F200FB1FFF93EF93A32FBB27E02F0E94830BCB
:10130200AE0FBF1FA6DFAF91BF91EC933F5FE9CF56
:10131200E32FF0E0DE011496AE0FBF1FE0E0EC9386
:10132200FE013496FA93EA930E94620BA8E00E94AF
:101332001A0BE03019F4E02FEF5F03C00F5FC4CF48
:10134200E0E00E940C0E2E960895AA930E94050ECC
:101352000E94FE0B1E2F0C811017D8F030E038309F
:10136200B0F4A32FBB27E02F0E94830BAE0FBF1F49
:1013720070DF2E2FA32FBB27E8E0E09FF001EA0FDA
:10138200FB1FFA93EA93A22F70DF3F5FE8CF0F5F54
:10139200E3CF0E94880BA12FA15067DF0E940C0EA1
:1013A2000C940C0B8D9A8E980895959A88E28A95E2
:1013B200F1F7959808952897E0E0EC83ED83EE83AA
:1013C200EF830E942E0C30F4869B01C003C00E9462
:1013D2003A0CF7CF0E942E0C19F4EFEFFFEF36C054
:1013E200E0E0EFBDE3E0EEBDE0E0F0E0FDBDECBD2E
:1013F200EC83ED83EE83EF830E942E0C70F4869BC8
:101402000CC0ECB5FDB5E136AAEEFA0718F0EEEF26
:10141200FFEF1CC00E943A0CEFCFECB5FDB566277A
:1014220077270E94FE0DE0E0EEBD0E94F90DA13685
:10143200EAEEBE07E0E08E07E0E09E0718F0EEEF6E
:10144200FFEF04C00E94F40D0E94E00D289608955B
:1014520060970E94030E4FEF5FEF0E94380BAAE5E0
:10146200B7E040DE0E94C30B09F072C09EDFA3DF2B
:101472008F01EFEFFFEFE017F10729F40E94380B1D
:10148200A5E6B7E05FC0EEEFFFEFE017F10729F442
:101492000E94380BABE6B7E055C0F8016627772704
:1014A2000E94B70CA6E9B3E48BE09DE30E943A0DDB
:1014B200DF01CB01E0E0F0E060E070E40E94880D23
:1014C200A0E0B0E080E09FE30E94EA0C0E94800C62
:1014D2009F014217530789F0A9013A932A93DE012B
:1014E20018960E94D00AEBE0EA93A1E0E3DDDE0168
:1014F2001696F8DDA7E7B7E0F5DD2630E0E03E0717
:101502000CF46394E091B407F091B507A62DB0E016
:10151200EA17FB07C1F0E62DF0E0E093B407F09381
:10152200B507E1E0EA93A2E0C5DDE62DF0E0FA932B
:10153200EA93DE0118960E94D00AACE7B7E0D2DD4A
:10154200DE011696CFDDA4E6B0E00E94470C8ACFFA
:101552000E940A0E66960895BA93AA931A930A9362
:1015620000E010E0AA81BB81EC91E03099F0AFE19C
:10157200A09FF001A19FF00D0F01AA81BB81EC9108
:10158200F0E0E00DF11D8F01EA81FB813196EA83E3
:10159200FB83E8CFF8011981088124960895BA9354
:1015A200AA93A991B991E991F99130962AF4E0951B
:1015B200F09531966DE26D93E89480E197E20DD05B
:1015C20088EE93E00AD084E6992707D08AE005D016
:1015D2006E2F10D066276C9308956627E817F907D7
:1015E20020F06395E81BF90BC9F7662311F416F096
:1015F20008956894605D6D930895BA93AA93B98132
:10160200A881109631F0FC81EB816A816193119778
:10161200E9F7EB81FC8125960895BA93AA93A991E3
:10162200B991EE27FF276D91662311F03196FBCF1A
:101632000895AA93662777278991E991F991A9914B
:10164200B991882349F08A956D917191671721F4B8
:101652006623B9F7EE270895671BE1F3E1E008F48A
:10166200E2500895E1E0F0E0E415F5050895A1E007
:101672000E942A08E1E0EA93A1E00C945B080E9430
:101682007308E1E0EA93A2E00C945B08E2E0F0E088
:10169200E415F5050895AFE00E942A0880E89CE071
:1016A2000197F1F70895E3E0F0E0E415F5050895F8
:1016B20080E89CE00197F1F70895A4E9B7E00C9463
:1016C2000E0BE4E9F7E0FA93EA930895E0E0EA9377
:1016D200A0E2B0E00C94FE0AFA93EA93A2E00E9420
:1016E2001A0BE0300895A0EDB7E00E94470C9798DE
:1016F20008950E947308F7CFA0E0B0E00E942A0983
:101702005E2F0895F0E031960E94D90D0895E0E031
:10171200F0E0FA93EA930895A4E9B7E00C94730811
:10172200E4E0F0E0E415F5050895E5E0F0E0E41505
:10173200F5050895F80131960E94D90DE20FF31FC5
:10174200DF010C942A09ADE00E944109ADE00E943C
:101752004109A4EFB1E00C94470C0E947308A0ED7C
:10176200B7E00C94470CE7E0F0E0E415F5050895C6
:10177200E8E0F0E0E415F5050895E9E0F0E0E415AD
:10178200F5050895EAE0F0E0E415F5050895EBE0CB
:10179200F0E0E415F50508950E942A0889CFE5BB1B
:1017A200E3B3EF701E2F1F300895E02FA4E8B7E0D7
:1017B200F0E00E94DB0DAE0FBF1FEE27A30FBE1F8E
:1017C2000895EC56F84F0F01F0CFEC91D001EC9355
:1017D20074CFEB56F84FA0E0A083E7CFE52FF0E0FF
:1017E2003197EC56F84FA0E0A083A0E10C942A08B0
:1017F2000E947308A0E10C942A08A0E0B0E00C94C7
:101802002A0921970E945E09E883A881A1300895E0
:10181200AA93E8B3EF70AE2FE881E07FEA2BE8BB32
:101822000895C198C29A8BE28A95F1F7C2980895F9
:10183200E8B3EF70AE2FE881E295E07FEA2BE8BBD8
:10184200C29A8BE28A95F1F7C2980895EA81F07004
:10185200E370EFBBE981EEBB0895AC81BD818E815F
:101862009F81A03CE7E2BE07E9E08E07E0E09E0729
:101872000895EC81FD816E817F81EF5FFF4F6F4F95
:101882007F4FEC83FD836E837F830895109639F03A
:10189200A89580ED97E00197F1F71197C9F70895A0
:1018A200552342F4503811F4E0FF04C03196691F09
:1018B200791F6BF050E8572711F45F93C8C05F3F60
:1018C20031F0660F000C57956795752F08955F9359
:1018D20000200AF0C8C0C1C050E8192E1522880F96
:1018E200991F9527550F879550E8072E0522660FF9
:1018F200771F7527550F67950895689401C0E8947E
:101902005F93F2DF703818F07F3F08F4A0C056E111
:10191200571BAAF4519558300EF4593030F0EFEFBE
:10192200FFEF6FEF7FE777F91AC077275523B9F0FA
:10193200EE0FFF1F661F771F5A95D1F710C077274A
:10194200583028F0EF2FF62F672F5850F9CF552334
:1019520031F076956795F795E7955A95D1F700207E
:101962000AF41ED15F910895689401C0E8943097FB
:1019720060407040B1F0002426F0772312F4009406
:101982000FD1172E7EE1112032F07A95EE0FFF1F54
:10199200661F111CF9CFEF2FF62F612D5F938ADF9F
:1019A2005F9108954F93AF01FD01DA01AB01BC01D4
:1019B200CA01402D012C142E4F910895EA0FFB1FEE
:1019C200681F0895E095F0956095EF5FFF4F6F4FA8
:1019D20008955F9381DF903839F1703821F1572FE4
:1019E200591B2BF112F4DEDFFACF583118F0AA2777
:1019F200BB278827583028F0AB2FB82F882758509C
:101A0200F9CF552329F08695B795A7955A95D9F719
:101A1200502D512572F0D2DF38F46795F795E7958E
:101A2200739513F420C0BEDF45DF5F910895D8F7A8
:101A3200FBCFEA1BFB0B680B51F010F40094C2DFE2
:101A4200662392F3EE0FFF1F661F7A95CBF7EE2700
:101A5200FF27662777275F910895EFEFFFEF6FE784
:101A62007FEF5F910895EFEFFFEF6FE77FE75F9101
:101A720008955F9331DF703851F3903841F30124B8
:101A82000894791F23F41CF300203AF3ECCF0F9251
:101A92001F932F933F934F93112722279927689FD4
:101AA200A0018F9F302D410D591F6B9F300D411D9D
:101AB200591F8E9F27D0BF9F25D06A9F23D0BE9FDC
:101AC2001DD0AF9F1BD0AE9F110D291F391F491F7B
:101AD200591FE32FF42F652F522F4F913F912F91D2
:101AE2001F910F9066232AF0550FEE1FFF1F661FEE
:101AF20002C073954BF2D4DE5F910895100D211D43
:101B0200391F02C0200D311D491F591F08955F93CF
:101B1200E3DE703821F411200AF49FCFA4CF90386D
:101B220009F495CF01240894970B1BF4D4F30020F9
:101B3200F3CF792F1F932F933F934F9311241127A4
:101B4200222733274427552790E2AE17BF0786077F
:101B5200410730F0AE1BBF0B860B410B089401C04E
:101B62008894551F221F331F111CAA1FBB1F881FD9
:101B7200441F9A9551F7F901612D4F913F912F9191
:101B82001F91662332F0550FEE1FFF1F661F7A95D5
:101B920043F286DE5F910895F195E195F040089554
:101BA200F09560957095E195FF4F6F4F7F4F0895C7
:101BB200EE0FFF1FEE0FFF1FEE0FFF1F089576952A
:101BC2006795F795E79508956F2F660F660B762F49
:101BD2000895E894F7FF02C0DFDF6894EA23FB234D
:101BE2000EF4DADF0895E881F9816A817B81089534
:101BF200A881B9818A819B810895E883F9836A83E8
:101C02007B8308955A934A933A932A931A930A9399
:101C120008955D814C813B812A8119810881089553
:00000001FF
