:0A0000000C9445000C948A000C9447
:10000A0000000C9400000C9400000C9400000C9466
:10001A0000000C9400000C9400000C9400000C9456
:10002A0000000C9400000C9400000C9400000C9446
:10003A0000000C9400000C9400000C9400000C9436
:10004A0000000C9400000C9400003738394F343506
:10005A003644313233434C3052456E756D313A0075
:10006A0001002D4E414E00494E4600001000660226
:10007A005400060060026400010076026A00000073
:10008A00F894EE27ECBBF1E0FBBFEBBFE5BF8DE0D8
:10009A00A2E0BB27ED938A95E9F780E098E0A0E615
:1000AA00ED930197E9F7E6E7F0E0859195910097DE
:1000BA0061F0A591B59105901590BF01F0010590E9
:1000CA000D920197E1F7FB01F0CFEFE5EDBFE8E014
:1000DA00EEBFC0E6D2E00C947200E0EFE4BBEFEFB3
:1000EA00E5BBE5B3EF70E5BBE2E0E5BFE0E4EBBFFB
:1000FA007ED07894A1E05ED0E1E0EA93A1E094D0CA
:10010A00A0E6B2E0A9D0FFCFFFCF0A921A92FA92E4
:10011A006A937A938A939A93AA93BA93EA93FA93ED
:10012A00EFB7EA930E946B01EFEE0E94490111F0CA
:10013A0000E012C0EFED0E94490111F001E00CC08D
:10014A00EFEB0E94490111F002E006C0EFE7E5BBC0
:10015A00E3B3EF701E2F03E01E3011F430E009C044
:10016A001D3011F431E005C01B3011F432E001C03A
:10017A0033E0E5B3EF70E5BBE02FA6E6B2E0F0E0CE
:10018A000E946601AE0FBF1FEE27A30FBE1FAC91E0
:10019A001AD00E9470012496E991EFBFF991E99172
:1001AA00B991A9919991899179916991F990199047
:1001BA00099018950E944F01C0980E94580185E342
:1001CA008A95F1F705C00E944F01C09A0E94580112
:1001DA00E8B3EF70AE2FE881E295E07FEA2BE8BB47
:1001EA00C29A83E08A95F1F7C29821960895EFEFB3
:1001FA00E7BBC29880EA9FE00197F1F7A3E30E9468
:10020A005F01A2E30E945F01A8E20E945F01AEE0E3
:10021A000E945F01A1E0CEDF80EA9FE00197F1F73B
:10022A00A6E00E945F010895AA932497E0E8E88374
:10023A00E0ECE983E4E9EA83E4EDEB83EC81F0E0C6
:10024A003197DE01AE0FBF1FEC91AD81AE0FA15009
:10025A000E945F0126960895BA93AA931A9310E012
:10026A00A981BA81EE27A10FBE1FEC91E03049F0B7
:10027A00A981BA81EE27A10FBE1FAC91A4DF1F5F2F
:10028A00EFCF188123960895E5BBE3B3EF701E2FD5
:10029A001F300895AA93E8B3EF70AE2FE881E07F8C
:1002AA00EA2BE8BB0895C198C29A83E08A95F1F7D0
:1002BA00C29808950E94DF0080E496E00197F1F762
:1002CA000895EE0FFF1FEE0FFF1F08953A932A932A
:1002DA001A930A9308953B812A8119810881089506
:00000001FF
