:060000000C945B030C945C
:100006002C050C9400000C9400000C9400000C9439
:1000160000000C9400000C9400000C9400000C945A
:1000260000000C9400000C9400000C9400000C944A
:1000360000000C9400000C9400000C9400000C943A
:1000460000000C9400000C9400000C940000102793
:10005600E80364000A00010000100001100001001E
:100066000000000000003738394F3435364431324D
:1000760033434C305245640F6002640268026C02DE
:10008600700274027802FFFF53756E004D6F6E00AA
:1000960054756500576564005468750046726900BA
:1000A60053617400313A205375626D69742053743C
:1000B6007564656E7420436F646500323A2053752B
:1000C600626D6974205769746820436172640045E3
:1000D6006E74657220796F75722073747564656EBF
:1000E6007420636F64653A004272696E6720796FA7
:1000F60075722063617264206E6561722064657634
:100106006963653A00343000496E76616C69642033
:1001160043617264004475706C6963617465205351
:10012600747564656E7420436F64650053747564FA
:10013600656E74206164646564207769746820491B
:10014600443A004E756D626572206F662073747551
:1001560064656E7473203A20005072657373204391
:10016600616E63656C20546F20476F204261636B3C
:10017600005374617274205472616E736665727294
:10018600696E672E2E2E005573617274205472614B
:100196006E736D69742046696E69736865640031B3
:1001A6003A205365617263682053747564656E7492
:1001B60000323A2044656C65746520537475646535
:1001C6006E7400456E7465722053747564656E7442
:1001D60020436F646520466F7220536561726368C1
:1001E6003A00456E7465722053747564656E7420AA
:1001F600436F646520466F722044656C6574653A8A
:1002060000456E7465722053656372657420436F92
:10021600646520286F722063616E63656C29003106
:10022600203A20436C65617220454550524F4D007F
:100236002020202070726573732063616E63656C85
:1002460020746F206261636B004C6F676F7574205A
:100256002E2E2E00476F696E6720546F2041646D05
:10026600696E205061676520496E203220536563B0
:1002760000253032783A253032783A2530327820E7
:1002860020003230253032782F253032782F253035
:100296003278202025337300496E636F727265636E
:1002A600742053747564656E7420436F64652046CC
:1002B6006F726D617400596F752057696C6C2042BE
:1002C60061636B204D656E7520496E203220536543
:1002D600636F6E64004475706C6963617465205366
:1002E600747564656E7420436F646520456E74652D
:1002F6007265640053747564656E7420436F64653B
:10030600205375636365737366756C6C79204164FD
:1003160064656400596F75204D7573742046697263
:100326007374204C6F67696E00596F752057696C3E
:100336006C20476F2041646D696E205061676520AF
:1003460032205365630053747564656E7420436F81
:10035600646520466F756E64004F7073202C2053C1
:10036600747564656E7420436F6465204E6F7420E7
:10037600466F756E64005761697420466F7220443B
:10038600656C6574652E2E2E0053747564656E74E7
:1003960020436F6465205761732044656C657465FE
:1003A60064004C6F67696E2053756363657373668B
:1003B600756C6C7900576169742E2E2E004F707320
:1003C600202C2073656372657420697320696E63DF
:1003D6006F727265637400436C656172696E672043
:1003E600454550524F4D202E2E2E0054656D70659A
:1003F6007261747572652843293A00313A20417456
:1004060074656E64616E636520496E697469616CBA
:10041600697A6174696F6E00323A20537475646547
:100426006E74204D616E6167656D656E7400333A5A
:1004360020566965772050726573656E7420537413
:100446007564656E74732000343A2054656D70656A
:10045600726174757265204D6F6E69746F72696E24
:100466006700353A20526574726965766520537463
:100476007564656E74204461746100363A20547266
:100486006166666963204D6F6E69746F72696E6727
:1004960000373A204C6F67696E20576974682041AF
:1004A600646D696E00383A204C6F676F757400444E
:1004B600697374616E63653A20004572726F7200EB
:1004C6004E6F204F62737461636C650020636D200C
:1004D60000436F756E743A20000001002D4E414EA8
:1004E60000494E4600000600040066001000A00702
:1004F6006C00040060028E00040064029200040096
:100506006802960004006C029A00040070029E00C5
:1005160004007402A20004007802A6000E00D007B0
:100526007E0017007C02AA0014009302C100190085
:10053600A702D5001D00C002EE000300DD020B017C
:100546000D00E0020E011700ED021B011700040367
:10055600320116001B034901180031035F01160022
:100566004903770118005F038D0112007703A50187
:1005760012008903B7011F009B03C9011F00BA03BC
:10058600E8011E00D90307021100F703250219002E
:10059600080436020B0021044F021D002C045A02E7
:1005A600020049045D0103004B040B011E004E04CA
:1005B6009E021F006C04BC021F008B04DB021F009E
:1005C600AA04BC022000C904FA021F00E904BC0206
:1005D600150008051A031D001D052F0302003A0524
:1005E6005D0113003C054C031F004F05BC021D00B6
:1005F6006E055F031F008B05BC020200AA055D01A4
:100606001300AC054C031300BF057C031900D2058B
:100616008F031F00EB05BC021D000A065F031F00C7
:100626002706BC02020046065D0113004806A80321
:1006360008005B06BB031A006306C3031F007D06A2
:10064600BC0214009C06DD031000B006F103020094
:10065600C0065D011D00C20601041600DF061E0469
:100666001A00F50634041A000F074E04190029076C
:1006760068041600420781041400580797040A000C
:100686006C07AB040200F2078C000B007607B5047A
:1006960006008107C0040C008707C60405009307FF
:1006A600D20408009807D7040100F407E00400000C
:1006B600F894EE27ECBBF1E0FBBFEBBFE5BF8DE0A6
:1006C600A2E0BB27ED938A95E9F780E098E0A0E6E3
:1006D600ED930197E9F7ECEEF4E08591959100979B
:1006E60061F0A591B59105901590BF01F0010590B7
:1006F6000D920197E1F7FB01F0CFEFE5EDBFE8E0E2
:10070600EEBFC0E6D2E00C948803E0EFE7BBEFEF64
:10071600E8BBE8B3EF70E8BBE2E0E5BFE0E4EBBFBF
:100726008F9A9798A3E3B0E00E94EC090E946E0AA4
:100736003FD50E94930B7894A1E026D5042C05287A
:1007460019F40E94570983C10E94DB0D69F40E94C7
:10075600E00DACE7B2E00E94E80DA3E9B2E05CD59B
:100766000E94DB0DE9F373C10E94EF0D61F40E9454
:10077600E00DA7EAB2E00E94E80D0E94F40D0E9487
:10078600EF0DE9F361C10E94FC0D09F072C00E94F1
:10079600010E0E94FC0D09F06BC00E94E00DA0EC5A
:1007A600B2E00E94E80D0E940B0E0E94E3094E2F54
:1007B600ED3049F00E94FC0D31F40E94100EE05518
:1007C600F84F4083F2CF0E94FC0D19F00E94010EF3
:1007D6004FC00E94140EEDEDF2E00E94190E31F4A6
:1007E6000E94100EE830A0E0FA0749F00E94E00DE2
:1007F600A0EEB2E011D5979A0E94200E36C00E9454
:10080600F909E13040F0979A0E94E00DADEEB2E0B2
:100816000E94260E2AC00E94290E00E010E0083031
:10082600E0E01E078CF4E52F0E942F0EE00FF11F6B
:10083600FA93EA93A0EBB7E0A00FB11FAC910E9428
:10084600D2090F5F1F4FEBCF0E94340EA52FAF5F6B
:10085600A6D50E94E00DA4E0B3E00E94E80D0E9438
:10086600390EA8EBBBE00E94480F0E94010E91CF03
:10087600EEC00E943D0E11F4E6D4E9C00E94420E7D
:1008860009F04BC00E94E00DABE1B3E00E94E80D19
:100896000E94290E0E94010EE52FF0E0FA93EA93DA
:1008A600A0EBB7E00E94C30B0E94390E0E94470ED0
:1008B60000E010E0E52FD801F0E0AE17BF0724F501
:1008C6000E94010E20E030E02830E0E03E076CF4A4
:1008D600F901E055F84FFF93EF930E944B0EAF914D
:1008E600BF91EC932F5F3F4FEFCFA0EBB7E0A20F86
:1008F600B31FE0E0EC930E94E00D0E94390E0E94C7
:10090600470E0F5F1F4FD6CF0E94E00DA1E3B3E065
:1009160083D40E94420EE9F39AC0E6E0F0E0E415C3
:10092600F505B9F50E94E00DA9E4B3E075D40E947F
:10093600290E00E010E0E52FD801F0E0AE17BF0762
:1009460094F420E030E02830E0E03E073CF40E94DA
:100956004B0EAE2F2FD52F5F3F4FF5CF0E94540E73
:100966000F5F1F4FE8CF20E030E02830E0E03E0781
:100976002CF4ADE31FD52F5F3F4FF7CF0E94540EE7
:100986000E94E00DAFE5B3E00E945E0E44245524BC
:100996005EC00E94640E69F40E94E00DA7E7B3E012
:1009A6000E94E80DA9E8B3E037D40E94640EE9F38B
:1009B6004EC00E94690E61F40E94E00DABE9B3E0FF
:1009C6000E94E80D0E94F40D0E94690EE9F33CC0F6
:1009D6000E946E0E61F40E94E00DAAEBB3E00E9445
:1009E600E80D0E94F40D0E946E0EE9F32DC00E94E0
:1009F600730E29F40E94C30A4424552428C00E9479
:100A0600780E29F50E94E00DA9EDB3E00E94E80DED
:100A16000E94F40D0E94780E11F4992009F001C08D
:100A2600F9CFE1E0E91581F4ACE00E947D0E0E9469
:100A3600E00DA7EFB3E00E94E80DA8E0B4E0ECD328
:100A46000E94780EE9F303C0ACE00E947D0E76CEDC
:100A5600FFCF0A921A92FA926A937A938A939A939A
:100A6600AA93BA93EA93FA93EFB7EA9328970E9468
:100A76001511EFEE0E94800E11F000E012C0EFEDAE
:100A86000E94800E11F001E00CC0EFEB0E94800E78
:100A960011F002E006C0EFE7E8BBE6B3EF701E2FE9
:100AA60003E01E3011F430E009C01D3011F431E0CE
:100AB60005C01B3011F432E001C033E0E8B3EF703B
:100AC600E8BB042C052809F0DFC00E94860EEC91D5
:100AD600F0E0F097E130A0E0FA0721F4E1E0F0E081
:100AE6002F0147C0E430A0E0FA0721F4E4E0F0E08B
:100AF6002F013FC0E330A0E0FA0721F4E5E0F0E083
:100B06002F0137C0E530A0E0FA0721F4E6E0F0E077
:100B16002F012FC0E230A0E0FA0721F4E7E0F0E071
:100B26002F0127C0E630A0E0FA0721F4EAE0F0E062
:100B36002F011FC0E730A0E0FA0721F4EBE0F0E058
:100B46002F0117C0E830A0E0FA0799F4F894E1E025
:100B5600E91579F40E94E00DA1E2B4E00E94E80DE7
:100B6600ACE2B4E00E945E0E99247894EBE0F0E0EB
:100B76002F010E94860EAC91AC3451F4E0E0E715EB
:100B860020F4E72DF0E0319701C0E3E07E2E7BC034
:100B96000E94860EAC91A23549F4E72DF0E031961D
:100BA600A3E0B0E00E94EF107E2E6DC00E94860E7C
:100BB600AC91AF3409F067C0A1E0E6D2FE013C96E5
:100BC600FA93EA93FE013F96FA93EA93ADB7BEB75E
:100BD6004F93AFD54F91EEEDF7E0FA93EA93E7E73F
:100BE600F2E0FA93EA93E8890E94920EED890E9458
:100BF600920EE42F0E94920E8CE00E94A70D609642
:100C0600E1E00E94980EAEEDB7E006D3FE013896FD
:100C1600FA93EA93FE013B96FA93EA93FE013E9617
:100C2600FA93EA93DE01519695D5EEEDF7E0FA9345
:100C3600EA93E8E8F2E0FA93EA93EC850E94920ED2
:100C4600E9890E94920EEE890E94920EEB8DF0E0E9
:100C56003197A0EDB7E0EE0FFF1FAE0FBF1F0E944A
:100C6600F910662777270E94101180E10E94A70DD0
:100C76006496E1E0EA93A2E0B8D2AEEDB7E0CCD25A
:100C86000E94470E99CF6FC20E94DB0DF9F40E94B5
:100C9600860EEC91F0E0E334A0E0FA0719F4442460
:100CA600552413C0E133A0E0FA0731F40E94010E87
:100CB600E2E0F0E02F0109C0E233A0E0FA0729F4F0
:100CC6000E94010EE3E0F0E02F014DC20E94EF0DFD
:100CD60009F09AC00E94860EAC91A33429F40E94B2
:100CE600010EE1E0F0E02F010E94860EEC91F0E0AB
:100CF600FA977CF40E94100E7F9750F40E94100E13
:100D06000E949C0E0E94A00E0E94A40EAC9148D296
:100D16007AC00E94860EAC91A43461F40E94100E33
:100D26005E2F513030F00E94A90EA9E4B4E00E9473
:100D3600B30E69C00E94860EAC91A53409F05BC063
:100D4600F8940E94140EEBE4F4E00E94190E31F4BC
:100D56000E94100EE830A0E0FA0761F0979A0E9410
:100D6600E00DAEE4B4E00E94E80DACE6B4E00E940B
:100D7600260E3DC03BD3E13060F0979A0E94E00D0D
:100D8600ABE8B4E00E94E80DAAEAB4E00E94260EA1
:100D96002EC00E94B80E2E2FE0E0EE83EF83AE81C8
:100DA600BF811897ACF4E22F0E942F0EAE81BF814F
:100DB600EA0FFB1FFA93EA93E885F985E055F84FA9
:100DC600A081EDD2EE81FF813196EE83FF83E7CFDE
:100DD6000E94340EA22FAF5FE2D20E94E00DA9EC72
:100DE600B4E00E94E80DA9EEB4E00E945E0E0E94F7
:100DF600010E789405C00E94860EAC91A33419F4B6
:100E0600E1E0F0E02F01AFC10E94FC0D59F40E9411
:100E1600860EAC91A33429F40E94010EE1E0F0E0C5
:100E26002F01A1C10E943D0E41F40E94860EAC9195
:100E3600A33411F44424552496C10E94420E41F471
:100E46000E94860EAC91A33411F4442455248BC120
:100E56000E94640E91F50E94860EAC91A33419F49B
:100E66004424552429C00E94860EAC91A13319F45E
:100E7600E8E0F0E020C00E94860EAC91A23319F49F
:100E8600E1E0E91509F003C0E9E0F0E014C00E94D2
:100E9600860EAC91A23311F4992009F00DC00E9480
:100EA600E00DA8E0B5E00E94E80DADE1B5E00E94D6
:100EB6005E0EEBE0F0E02F0156C10E94690E09F0CC
:100EC6005CC00E94860EAC91A33419F40E94010EF8
:100ED60050C00E94860EEC91F0E0FA977CF40E94D6
:100EE600100E7F9750F40E94100E0E949C0E0E94D6
:100EF600A00E0E94A40EAC9153D13EC00E94860E55
:100F0600AC91A43461F40E94100E5E2F513030F083
:100F16000E94A90EAAE3B5E00E94B30E2DC00E945E
:100F2600860EAC91A53401F50E94BC0E48F00E94D5
:100F3600E00DACE3B5E00E94E80DAFE4B5E008C013
:100F46000E94E00DAEE6B5E00E94E80DABE8B5E024
:100F560063D1A0EDB7E00E94480F0E94010EE7E0C2
:100F6600F0E02F01219608C00E94860EAC91A334B2
:100F760019F4E7E0F0E02F01F6C00E946E0E09F0CA
:100F860061C00E94860EAC91A33431F40E94010E1A
:100F9600E7E0F0E02F0155C00E94860EEC91F0E0EC
:100FA600FA977CF40E94100E7F9750F40E94100E60
:100FB6000E949C0E0E94A00E0E94A40EAC91F0D03E
:100FC60040C00E94860EAC91A43461F40E94100EBB
:100FD6005E2F513030F00E94A90EAAEAB5E00E94B9
:100FE600B30E2FC00E94860EAC91A53451F50E9417
:100FF600BC0EA0F00E94E00DACEAB5E00E94E80D40
:10100600AFEBB5E009D1A88139D20E94E00DA2ED7F
:10101600B5E00E94E80DABEEB5E008C00E94E00D19
:10102600AAE0B6E00E94E80DA7E2B6E0F5D0A0ED92
:10103600B7E00E94480F0E94010EE7E0F0E02F01A2
:10104600219691C00E94730E41F40E94860EAC91C7
:10105600A33411F44424552486C00E94780E19F452
:10106600E1E0E91509F45EC00E94860EAC91A33456
:1010760029F40E94010E4424552453C00E94860E72
:10108600EC91F0E0FA977CF40E94100E7F9750F4F2
:101096000E94100E0E949C0E0E94A00E0E94A40E9A
:1010A600AC917ED03EC00E94860EAC91A43461F411
:1010B6000E94100E5E2F513030F00E94A90EA6E459
:1010C600B6E00E94B30E2DC00E94860EAC91A534E8
:1010D60041F52297A0EBB7E0D6D2E883F983A88141
:1010E600B981A436EFE0BE0769F40E94E00DA8E4DA
:1010F600B6E00E94E80DABE5B6E00E945E0EE1E0C8
:101106009E2E0AC00E94E00DA3E6B6E00E94E80DFE
:10111600ADE7B6E00E945E0E0E94010E44245524FF
:10112600229621C00E94780E11F4992009F41BC062
:101136000E94860EEC91F0E0E334A0E0FA0719F481
:10114600442455240CC0E133A0E0FA0741F4F89496
:101156000E94E00DACE9B6E05FD0FBD078940E9427
:10116600010E442455240E941C112E96E991EFBFCE
:10117600F991E991B991A991999189917991699199
:10118600F9901990099018950E94C30ED8980E945C
:10119600CC0E80E892E00197F1F70E94D30EB8C218
:1011A6000E94C30ED89A0E94CC0E0E94D30EB0C2E3
:1011B600EFEFEABBDA9880E09AEF0197F1F7A3E345
:1011C6000E947D0EA2E30E947D0EA8E20E947D0E83
:1011D600ACE00E947D0EA1E0D7DF80E09AEF019798
:1011E600F1F7A6E00E947D0E0895AA932497E0E801
:1011F600E883E0ECE983E4E9EA83E4EDEB83EC8160
:10120600F0E03197DE01AE0FBF1FEC91AD81AE0F5E
:10121600A1500E947D0E9CC2BA93AA931A9310E025
:10122600A981BA81EE27A10FBE1FEC91E03049F0EB
:10123600A981BA81EE27A10FBE1FAC91B1DF1F5F56
:10124600EFCF1881B5C023971A9310E0D398E3EE39
:10125600E7B9E7E8E6B90E94E00DA0EBB6E0DCDF0F
:101266000E943D0EE9F4369A349BFECFE5B11E1777
:1012760091F015B1E12FF0E0FA93EA93DE011396AF
:101286000E94C30BE1E10E94980EDE011196C4DFB5
:10129600A0ECB6E0C1DFA4EFB1E00E94480FE0CFBA
:1012A600E0E0E6B9188110C2042C052809F050C008
:1012B6000E94E00D772081F4A2ECB6E00E94E80DD2
:1012C600AFEDB6E0A9DF772021F40024041405046D
:1012D60009F001C0F8CF3BC0E1E0E71589F4A5EFBE
:1012E600B6E00E94E80DAFE0B7E096DFE1E0E71573
:1012F60021F400240414050409F001C0F7CF27C027
:10130600E2E0E71589F4A9E2B7E00E94E80DA2E45D
:10131600B7E082DFE2E0E71521F4002404140504B7
:1013260009F001C0F7CF13C0E3E0E71581F4A8E5A3
:10133600B7E00E94E80DACE6B7E06EDFE3E0E71544
:1013460021F400240414050409F001C0F7CFACCF42
:1013560008951A930A9300E010E00030E4E01E07B7
:1013660078F4E199FECFE12FF070E370EFBBE02F48
:10137600EEBBE0E0EDBBE29AE19A0F5F1F4FEDCFC7
:10138600099119910895BA93AA931A93E199FECFF8
:101396000E94E10EE09A1DB3E12F188109C0AA93BD
:1013A600E199FECF0E94E10EE881EDBBE29AE19A57
:1013B60023960895AA935D9BFECFE881ECB9A8C158
:1013C6005F9903C00E94FC0D09F001C0F9CFECB192
:1013D6000895BA93AA93E881E9B9E981F070E0BD6E
:1013E600E8E1EAB9E6E0E0BD229608952A970E9470
:1013F60017110E94B80E1E2F00E00117D0F5FE014E
:101406003496FA93EA93E0E0EA93AAE0B0E00E9409
:10141600F10B30E03830A8F4E32FF0E0DE0114964B
:10142600EA0FFB1FFF93EF93A32FBB27E02F0E942A
:101436002F0EAE0FBF1FA7DFAF91BF91EC933F5F9B
:10144600E9CFE32FF0E0DE011496AE0FBF1FE0E018
:10145600EC93FE013496FA93EA930E94140EA8E0E8
:101466000E941A0CE03019F4E02FEF5F03C00F5F03
:10147600C4CFE0E00E941E112E960895AA930E9402
:1014860017110E94B80E1E2F0C811017D8F030E0ED
:101496003830B0F4A32FBB27E02F0E942F0EAE0FDB
:1014A600BF1F71DF2E2FA32FBB27E8E0E09FF001BF
:1014B600EA0FFB1FFA93EA93A22F71DF3F5FE8CF93
:1014C6000F5FE3CF0E94340EA12FA15068DF0E9468
:1014D6001E110C94710C8D9A8E980895959A88E237
:1014E6008A95F1F7959808952897E0E0EC83ED83C7
:1014F600EE83EF830E94E80E30F4869B01C003C0A2
:101506000E94F40EF7CF0E94E80E19F4EFEFFFEFFA
:1015160035C1E0E0EFBDE3E0EEBDE0E0F0E0FDBDAB
:10152600ECBDEC83ED83EE83EF830E94E80E70F44E
:10153600869B0CC0ECB5FDB5E136AAEEFA0718F0AD
:10154600EEEFFFEF1BC10E94F40EEFCFECB5FDB539
:10155600662777270E940B11E0E0EEBD0E94061178
:10156600A136EAEEBE07E0E08E07E0E09E0718F03F
:10157600EEEFFFEF03C10E9401110E94E510FEC0CD
:1015860060970E9415114FEF5FEF0E94E00DA6E7EE
:10159600B7E042DE0E94730E09F071C09FDFA4DF40
:1015A6008F01EFEFFFEFE017F10729F40E94E00D3E
:1015B600A1E8B7E05EC0EEEFFFEFE017F10729F410
:1015C6000E94E00DA7E8B7E054C0F8016627772728
:1015D6000E94B80FA6E9B3E48BE09DE30E943B109E
:1015E600DF01CB01E0E0F0E060E070E40E948910EA
:1015F600A0E0B0E080E09FE30E94EB0F0E94810F25
:101606009F014217530781F0A9013A932A93DE01FD
:1016160018960E94C30BEBE00E94980EDE01169608
:10162600FBDDA3E9B7E0F8DD2630E0E03E070CF489
:101636006394E091F207F091F307A62DB0E0EA1764
:10164600FB07C1F0E62DF0E0E093F207F093F30715
:10165600E1E0EA93A2E0C9DDE62DF0E0FA93EA9331
:10166600DE0118960E94C30BA8E9B7E0D5DDDE01BE
:101676001696D2DDA4E6B0E00E94480F8BCF0E94FA
:101686001C1166960895BA93AA931A930A9300E0DA
:1016960010E0AA81BB81EC91E03099F0AFE1A09F08
:1016A600F001A19FF00D0F01AA81BB81EC91F0E042
:1016B600E00DF11D8F01EA81FB813196EA83FB8300
:1016C600E8CFF8011981088124960895E0E0E1B990
:1016D600E7E4E0B9E4E0E6BF0895E4EAE6BFE6B78A
:1016E600E078E9F30895AA93E881E3B9E4E8E6BF70
:1016F600E6B7E078E9F30CC0AA93E881E295E07FCB
:10170600EE0FEE0FE468E6BFE6B7E078E9F3E3B183
:1017160021960895E4E9E6BFE6B7E4FDFDCF089516
:10172600D5DF0E94010FA7E0DEDFA0E00E94060FD2
:101736000895BA93AA930E94010FA0E00E94060F93
:101746000E940A0FA0E0D8DFAC81BD81EC93E2DFF6
:1017560026960895BA93AA930E94010FA3E00E94C9
:10176600060F0E940A0FA1E0C7DFAC81BD81EC9392
:10177600A0E0C2DFAE81BF81EC93CCDF289608954E
:10178600BA93AA93A991B991E991F99130962AF45D
:10179600E095F09531966DE26D93E89480E197E2DD
:1017A6000DD088EE93E00AD084E6992707D08AE028
:1017B60005D06E2F10D066276C9308956627E8171C
:1017C600F90720F06395E81BF90BC9F7662311F4B6
:1017D60016F008956894605D6D930895BA93AA9380
:1017E600B981A881109631F0FC81EB816A81619301
:1017F6001197E9F7EB81FC810C94710CBA93AA93CB
:10180600A991B991EE27FF276D91662311F03196C4
:10181600FBCF0895BA93AA93AA27BB27E991F9911A
:101826000590002011F01196FBCFFD010895AA93B3
:10183600662777278991E991F991A991B99188232A
:1018460049F08A956D917191671721F46623B9F76E
:10185600EE270895671BE1F3E1E008F4E2500895EE
:10186600BA93AA931A930A93AA81BB8112960E94ED
:10187600F910309759F1AA81BB8114960E94F9108C
:101886008F01309761F00230E0E01E0798F0F80112
:1018960031978F01AA81BB811496ED93FC93AA819F
:1018A600BB811296ED91FD913196FE93EE933197A1
:1018B600AC81A083AA81BB810E94F910FF232AF084
:1018C600ED91FD913196FE93EE9306C0AA81BB8100
:1018D600EFEFFFEFED93FC931981088125960895AC
:1018E600BA93AA9326970E94151110E0AC85BD8580
:1018F600E0E0F0E0ED93FC93EA89FB893196EA8B10
:10190600FB8B3197E4912E2FE03009F415C1E12FBE
:10191600E03039F4253211F411E002C00E941C0FA8
:101926000AC1E130A9F4253219F40E941C0F02C144
:1019360012E040E000E02D3211F401E0FCC02B3251
:1019460011F44BE2F8C0203211F440E2F4C002C0B8
:10195600E23039F450E013E0203311F40068EBC0B4
:1019660003C0E33009F0E7C0203310F02A3308F053
:1019760007C0AAE05A9F502DE22FE0535E0FDBC04E
:10198600E22FE33649F40E94230FE889F989A481FE
:10199600AA930E94290FCEC0E33741F40E94230F79
:1019A6000E942F0F0E94010C1E2F0AC0E03761F41F
:1019B6000E94230F0E942F0F0E940D0C1E2F0860FD
:1019C60002600F7730E034C0E43611F0E93611F4E6
:1019D600046002C0E53731F4E4E5F0E0EE83FF830E
:1019E60015E00CC0E83511F4086003C0E83709F0CB
:1019F600A1C0EEE5F0E0EE83FF8314E002FF14C021
:101A06000E94230F0E94390FAB85AA233AF4EA8578
:101A1600FB850E94D210EA87FB874DE2403011F029
:101A26001F5F01C00B7F04C00E94230F0E94390F65
:101A360000FD11C0151778F407FF08C002FF04C0A7
:101A46000B7F242F115001C020E301C020E20E9429
:101A56001C0F5150EFCF312F01FF17C03030A1F0CE
:101A660003FF06C0EE81FF812591EE83FF8305C04B
:101A7600AE81BF812D91AE83BF830E941C0F503073
:101A860009F051503150EACF4BC020E3EE81FF817F
:101A96000E94FD10E887F987EE81FF813296EE837A
:101AA600FF83E885F985AA85BB85AE17BF0750F089
:101AB6002F5FA885B985EA85FB85EA1BFB0BEA87BC
:101AC600FB87EFCF2A3328F003FF02C0295F01C04E
:101AD600295D04FD1AC0213320F4A885B985119724
:101AE60009F409C0531710F000FF01C013C020E22B
:101AF60007FF0BC020E3006102FF07C00B7F4A937C
:101B06000E94290F503009F051500E941C0F50308E
:101B160009F051503150A885B985129708F0B5CF14
:101B260000FF08C0503031F05150E0E2EA930E94C5
:101B3600290FF8CF10E0E0CEAC85BD850E94F910E4
:101B46000E941C1164960895FF92F82E26970E9413
:101B560017110E94410F309719F4EFEFFFEF23C0E2
:101B6600DE0116960E94CE108D010E94410FEE8373
:101B7600FF83E0E0E887E987DE011A960E94CE102F
:101B86000E94F910FA93EA931A930A93E3E3FCE0AE
:101B9600FA93EA93DE011A96A3DE9F01AE81BF8116
:101BA600E0E0EC93F9010E941E112A96FF90089539
:101BB600E1E0F0E0E415F5050895A1E00E94C7080C
:101BC600E1E0EA93A1E00C94F8080E940F09E1E035
:101BD600EA93A2E00C94F808E2E0F0E0E415F505DB
:101BE6000895AFE00E94C70880E89CE00197F1F7EE
:101BF6000895E3E0F0E0E415F5050895E0EBF7E07D
:101C0600FA93EA93E0E0EA93A0E2B0E00C94F10BD9
:101C160080E89CE00197F1F70895A0EBB7E00C94FB
:101C2600010CE0EBF7E0FA93EA930895FA93EA934E
:101C3600A2E00E941A0CE0300895A0EDB7E00E94E1
:101C4600480F979808950E940F09F7CFA0E0B0E0DB
:101C56000E94C6095E2F0895F0E031960E94DE10BC
:101C66000895E0E0F0E0FA93EA930895A0EBB7E078
:101C76000C940F09E4E0F0E0E415F5050895E5E0BD
:101C8600F0E0E415F5050895A8EEB3E00C94480FCE
:101C9600F80131960E94DE10E20FF31FDF010C946B
:101CA600C609ADE00E94DD09ADE00E94DD09A4EFA2
:101CB600B1E00C94480F0E940F09A0EDB7E00C9418
:101CC600480FE7E0F0E0E415F5050895E8E0F0E0F8
:101CD600E415F5050895E9E0F0E0E415F505089545
:101CE600EAE0F0E0E415F5050895EBE0F0E0E41530
:101CF600F50508950E94C7088BCFE8BBE6B3EF70E1
:101D06001E2F1F300895E02FA0EAB7E0F0E00E94F2
:101D1600E010AE0FBF1FEE27A30FBE1F0895FF27CB
:101D2600662777270E9410110895EA93A1E00C9484
:101D3600F808E055F84F0F01E6CFEC91D001EC938F
:101D46006CCFEF54F84FA0E0A083DDCFE52FF0E095
:101D56003197E055F84FA0E0A083A0E10C94C708A6
:101D66000E940F09A0E10C94C708A0E0B0E00C9413
:101D7600C60921970E94F909E883A881A130089530
:101D8600AA93EBB3EF70AE2FE881E07FEA2BEBBBB3
:101D96000895D998DA9A8BE28A95F1F7DA98089538
:101DA600EBB3EF70AE2FE881E295E07FEA2BEBBB59
:101DB600DA9A8BE28A95F1F7DA980895EA81F0705B
:101DC600E370EFBBE981EEBB0895AC81BD818E81E6
:101DD6009F81A03CE7E2BE07E9E08E07E0E09E07B0
:101DE6000895EC81FD816E817F81EF5FFF4F6F4F1C
:101DF6007F4FEC83FD836E837F8308950E94700B73
:101E0600A0ED0C94760B0E94760B0C948D0B0E9421
:101E1600700BA1ED0E94760BA1E00E947F0BA881BA
:101E2600B981EC93A1E00E947F0BAA81BB81EC9360
:101E360008952A93AD85BE85EF85F889099508959D
:101E4600E889F9893497E88BF98B0895AD85BE85C5
:101E5600EF85F88909950895A889B98914960E948D
:101E6600F910EE83FF83AE81BF810895A889B989F1
:101E760014960E94F910EA87FB870895DE011C96E6
:101E86000E94CE100E94F9100895109639F0A89578
:101E960080ED97E00197F1F71197C9F7089555235B
:101EA60042F4503811F4E0FF04C03196691F791FDF
:101EB6006BF050E8572711F45F93C8C05F3F31F0CD
:101EC600660F000C57956795752F08955F93002050
:101ED6000AF0C8C0C1C050E8192E1522880F991FF4
:101EE6009527550F879550E8072E0522660F771F11
:101EF6007527550F67950895689401C0E8945F9318
:101F0600F2DF703818F07F3F08F4A0C056E1571B87
:101F1600AAF4519558300EF4593030F0EFEFFFEF38
:101F26006FEF7FE777F91AC077275523B9F0EE0FE1
:101F3600FF1F661F771F5A95D1F710C077275830B5
:101F460028F0EF2FF62F672F5850F9CF552331F091
:101F560076956795F795E7955A95D1F700200AF497
:101F660022D15F910895689401C0E894309760404B
:101F76007040B1F0002426F0772312F4009413D1B8
:101F8600172E7EE1112032F07A95EE0FFF1F661FA5
:101F9600111CF9CFEF2FF62F612D5F938ADF5F912A
:101FA60008954F93AF01FD01DA01AB01BC01CA01EF
:101FB600402D012C142E4F910895EA0FFB1F681F28
:101FC6000895E095F0956095EF5FFF4F6F4F089588
:101FD6005F9381DF903839F1703821F1572F591B03
:101FE6002BF112F4DEDFFACF583118F0AA27BB27FF
:101FF6008827583028F0AB2FB82F88275850F9CFAC
:10200600552329F08695B795A7955A95D9F7502D5A
:10201600512572F0D2DF38F46795F795E7957395F9
:1020260013F420C0BEDF45DF5F910895D8F7FBCFDC
:10203600EA1BFB0B680B51F010F40094C2DF662319
:1020460092F3EE0FFF1F661F7A95CBF7EE27FF2759
:10205600662777275F910895EFEFFFEF6FE77FEF32
:102066005F910895EFEFFFEF6FE77FE75F910895C8
:102076005F9331DF703851F3903841F301240894AF
:10208600791F23F41CF300203AF3ECCF0F921F9331
:102096002F933F934F93112722279927689FA001DB
:1020A6008F9F302D410D591F6B9F300D411D591FBC
:1020B6008E9F27D0BF9F25D06A9F23D0BE9F1DD05D
:1020C600AF9F1BD0AE9F110D291F391F491F591FE6
:1020D600E32FF42F652F522F4F913F912F911F9190
:1020E6000F9066232AF0550FEE1FFF1F661F02C0D2
:1020F60073954BF2D4DE5F910895100D211D391FA3
:1021060002C0200D311D491F591F08955F93E3DE5C
:10211600703821F411200AF49FCFA4CF903809F427
:1021260095CF01240894970B1BF4D4F30020F3CF2A
:10213600792F1F932F933F934F9311241127222713
:1021460033274427552790E2AE17BF078607410776
:1021560030F0AE1BBF0B860B410B089401C0889470
:10216600551F221F331F111CAA1FBB1F881F441F88
:102176009A9551F7F901612D4F913F912F911F913A
:10218600662332F0550FEE1FFF1F661F7A9543F246
:1021960086DE5F9108950024AF0DB01D0895F19578
:1021A600E195F0400895F09560957095E195FF4FA3
:1021B6006F4F7F4F0895EE0FFF1FEE0FFF1FEE0FBD
:1021C600FF1F089576956795F795E79508956F2F04
:1021D600660F660B762F0895E894F7FF02C0DFDFDF
:1021E6006894EA23FB230EF4DADF0895ED91FC915F
:1021F600119708950590F491E02D0895E881F981ED
:102206006A817B810895A881B9818A819B8108951D
:10221600E883F9836A837B8308957A936A93FA93B2
:10222600EA9308955A934A933A932A931A930A93F0
:1022360008955D814C813B812A8119810881089529
:00000001FF
