:0A0000000C94D3010C94E3020C945D
:10000A0000000C9400000C9400000C9400000C9466
:10001A0000000C9400000C9400000C9400000C9456
:10002A0000000C9400000C9400000C9400000C9446
:10003A0000000C9400000C9400000C9400000C9436
:10004A0000000C9400000C94000000003738394F6F
:10005A0034353644313233434C30524531203A201C
:10006A005375626D69742053747564656E742043A8
:10007A006F646500202020207072657373206361AD
:10008A006E63656C20746F206261636B00456E74E9
:10009A00657220796F75722073747564656E742049
:1000AA00636F64653A004E756D626572206F6620F3
:1000BA0073747564656E7473203A200050726573A8
:1000CA00732043616E63656C20546F20476F204232
:1000DA0061636B005374617274205472616E73664B
:1000EA00657272696E672E2E2E00557361727420C6
:1000FA005472616E736D69742066696E697368659E
:10010A00640031203A205365617263682053747524
:10011A0064656E740020202020507265737320433A
:10012A00616E63656C20546F204261636B00456E9B
:10013A007465722053747564656E7420436F6465C8
:10014A0020466F72205365617263683A00436C659A
:10015A006172696E6720454550524F4D202E2E2EF2
:10016A0000343000496E636F727265637420537590
:10017A007564656E7420436F646520466F726D61A5
:10018A007400596F752057696C6C204261636B204B
:10019A004D656E7520496E2035205365636F6E6418
:1001AA00004475706C696361746520537575646584
:1001BA006E7420436F646520456E746572656400D1
:1001CA0053747564656E7420436F64652053756358
:1001DA006365737366756C6C792041646465640049
:1001EA00596F752057696C6C204261636B204D65AD
:1001FA006E7520496E2032205365636F6E6400531A
:10020A00747564656E7420436F646520466F756EFD
:10021A0064004F7073202C2053747564656E7420CB
:10022A00436F6465204E6F7420466F756E64005488
:10023A00656D702843293A00313A20417474656E1D
:10024A0064616E636520496E697469616C697A617B
:10025A0074696F6E00323A2053747564656E742047
:10026A004D616E6167656D656E7400333A2056693B
:10027A0065772050726573656E7420537475646572
:10028A006E74732000343A2054656D70657261741F
:10029A00757265204D6F6E69746F72696E6700358D
:1002AA003A2052657472696576652053747564657F
:1002BA006E74204461746100363A20547261666635
:1002CA006963204D6F6E69746F72696E6700010011
:1002DA002D4E414E00494E460000020004005400D3
:1002EA0010002F05560018006002660019007802F7
:1002FA007E001900910297001600AA02B0001800A9
:10030A00C002C6001600D802DE001800EE02F40091
:10031A00130006030C01190019031F011F00320301
:10032A003801140051035701030065036B011E00D5
:10033A0068036E011F0086038C011F00A503AB0131
:10034A001F00C4038C012000E303CA011F00030439
:10035A00EA011300220409021F0035048C011D0062
:10036A0054041C021F0071048C0109009004390214
:10037A001D00990442021600B6045F021A00CC045A
:10038A0075021A00E6048F0219000005A902160078
:10039A001905C20201005F05D8020000F894EE2791
:1003AA00ECBBF1E0FBBFEBBFE5BF8DE0A2E0BB27F2
:1003BA00ED938A95E9F780E098E0A0E6ED9301973E
:1003CA00E9F7E4EEF2E085919591009761F0A59145
:1003DA00B59105901590BF01F00105900D92019716
:1003EA00E1F7FB01F0CFEFE5EDBFE8E0EEBFC0E6D5
:1003FA00D2E00C940002E0EFE4BBEFEFE5BBE5B31B
:10040A00EF70E5BBE2E0E5BFE0E4EBBF6BD2A3E34C
:10041A00B0E04FD37894A1E051D2B0D2042C052891
:10042A0011F4D3D2C9C00E942A0669F40E942F0689
:10043A00A0E6B2E00E943706A8E7B2E088D20E949E
:10044A002A06E9F3B9C00E943E0661F40E942F060B
:10045A00A1E9B2E00E9437060E9443060E943E06C6
:10046A00E9F3A7C00E944B0611F48DD2A5C00E94E1
:10047A00500609F047C00E942F06AAEAB2E00E947D
:10048A003706A0E0B0E0F7D25E2F0E945506E52FAE
:10049A00F0E00E945F060E94B3050E94640600E035
:1004AA0010E0E52FD801F0E0AE17BF0714F50E945F
:1004BA00550620E030E02830E0E03E076CF4F90110
:1004CA00E15CFA4FFF93EF930E946C06AF91BF91E4
:1004DA00EC932F5F3F4FEFCFAFE3B5E0A20FB31F0F
:1004EA00E0E0EC930E942F060E9464060F5F1F4F04
:1004FA00D8CF0E942F06A0ECB2E029D20E94500663
:10050A00E9F35AC0E5E0F0E0E415F505A1F50E942B
:10051A002F06A8EDB2E01BD20E9475065E2F00E0FE
:10052A0010E0E52FD801F0E0AE17BF07D4F420E0C1
:10053A0030E02830E0E03E073CF40E946C06AE2F23
:10054A00B1D22F5F3F4FF5CFADE0ACD2ADE0AAD22A
:10055A00ADE0A8D2A4EFB1E00E9401070F5F1F4FE0
:10056A00E0CF0E942F06AEEEB2E0F1D10E947906EA
:10057A004424552421C00E947D0669F40E942F0656
:10058A00A6E0B3E00E943706A9E1B3E0E0D10E94F9
:10059A007D06E9F311C00E94820671F40E942F06BB
:1005AA00A2E3B3E00E9437060E9443060E94820635
:1005BA00E9F3ACE00E94870631CFFFCF0A921A9284
:1005CA00FA926A937A938A939A93AA93BA93EA933A
:1005DA00FA93EFB7EA930E943707EFEE0E948E066E
:1005EA0011F000E012C0EFED0E948E0611F001E05A
:1005FA000CC0EFEB0E948E0611F002E006C0EFE796
:10060A00E5BBE3B3EF701E2F03E01E3011F430E0B8
:10061A0009C01D3011F431E005C01B3011F432E07D
:10062A0001C033E0E5B3EF70E5BB042C0528C1F542
:10063A000E949406F097E130A0E0FA0721F4E1E085
:10064A00F0E02F012CC0E430A0E0FA0721F4E3E047
:10065A00F0E02F0124C0E330A0E0FA0721F4E4E03F
:10066A00F0E02F011CC0E530A0E0FA0721F4E5E034
:10067A00F0E02F0114C0E230A0E0FA0721F4E6E02E
:10068A00F0E02F010CC0E930A0E0FA0741F4F89439
:10069A000E942F06A1E5B3E05AD1D3D17894FDC0C8
:1006AA000E942A0699F40E949406E334A0E0FA070D
:1006BA0019F44424552409C0E133A0E0FA0729F4C7
:1006CA000E945506E2E0F0E02F01E7C00E943E06D4
:1006DA0009F07AC00E949406FA975CF40E94A20676
:1006EA007F9730F40E94A2060E94A6060E94B806CE
:1006FA006AC00E94CA06A53409F05EC0EFE3F5E0BD
:10070A00FA93EA93E5E6F3E0FA93EA93A2E00E9409
:10071A001106E03031F40E94A206E830A0E0FA07A0
:10072A0061F00E942F06A8E6B3E00E943706A6E809
:10073A00B3E00DD1A8E8B3E13AC0C8D1309761F06F
:10074A000E942F06A5EAB3E00E943706A4ECB3E0A4
:10075A00FED0A8E8B3E12BC00E9475062E2F40E018
:10076A0050E04830E0E05E0784F4E22FF0E0319692
:10077A000E940F07E40FF51F0E945F06A40FB51F22
:10078A00AC9185D14F5F5F4FECCFE0E0F0E0FA9398
:10079A00EA93A22FAF5F7BD10E942F06A3EEB3E0AC
:1007AA000E943706A3E0B4E0D2D0A0EDB7E00E94E1
:1007BA0001070E94550604C00E94CA06A33419F410
:1007CA00E1E0F0E02F0169C00E944B0639F40E9473
:1007DA00CA06A33411F4442455245FC00E9450066B
:1007EA0039F40E94CA06A33411F44424552455C08E
:1007FA000E947D0679F40E94CA06A33419F444249F
:10080A00552407C00E94CA06A13319F4E7E0F0E0B4
:10081A002F0143C00E94820609F03FC00E9494063D
:10082A00FA975CF40E94A2067F9730F40E94A2060F
:10083A000E94A6060E94B80630C00E94CA06A534C5
:10084A0029F5229743D1E883F983A881B9811197C1
:10085A0049F40E942F06A2E2B4E00E943706A5E3FB
:10086A00B4E008C00E942F06A4E5B4E00E9437064F
:10087A00A1E7B4E06CD0A8E8B3E10E9401070E94A6
:10088A005506E6E0F0E02F01229607C00E94CA064C
:10089A00A33419F4E6E0F0E02F010E943E07269601
:1008AA00E991EFBFF991E991B991A991999189914A
:1008BA0079916991F9901990099018950E94D70633
:1008CA00C0980E94E00680E892E00197F1F70E9442
:1008DA00E706EDC00E94D706C09A0E94E0060E9471
:1008EA00E706E5C0EFEFE7BBC29880E09AEF019711
:1008FA00F1F7A3E30E948706A2E30E948706A8E213
:10090A000E948706ACE00E948706A1E0D7DF80E05C
:10091A009AEF0197F1F7A6E00E9487060895AA9335
:10092A002497E0E8E883E0ECE983E4E9EA83E4ED8C
:10093A00EB83EC81F0E03197DE01AE0FBF1FEC9143
:10094A00AD81AE0FA1500E94870626960895BA93EC
:10095A00AA931A9310E0A981BA81EE27A10FBE1FAC
:10096A00EC91E03049F0A981BA81EE27A10FBE1FB0
:10097A00AC91B0DF1F5FEFCF188192C0E0EEE7B90C
:10098A00E7E8E6B9089523971A9310E00E944B0608
:10099A00C9F40E942F06A0E9B4E0D9DF369A349B45
:1009AA00FECF15B1E12FF0E0FA93EA93DE01139638
:1009BA000E94B305DE011196CADFA4EFB1E00E94DE
:1009CA000107E4CF1881249608951A9310E0042CA5
:1009DA000528A9F50E942F06103061F4A9E9B4E0B0
:1009EA000E943706A6EBB4E00E94F50611F40E94B5
:1009FA0079061BC0113061F4ACECB4E00E943706F2
:100A0A00A6EEB4E00E94F50611F40E9479060DC024
:100A1A001230A1F4A0E0B5E00E943706A9E1B5E0E2
:100A2A000E94F50611F40E947906E12FF0E0319652
:100A3A00DF01E3E0F0E00E9429071E2FC8CF1991D9
:100A4A0008951A930A9300E010E00030E4E01E07CC
:100A5A0078F4E199FECFE12FF070E370EFBBE02F5D
:100A6A00EEBBE0E0EDBBE29AE19A0F5F1F4FEDCFDC
:100A7A00099119910895BA93AA931A93E199FECF0D
:100A8A000E94FA06E09A1DB3E12F188109C0AA93C1
:100A9A00E199FECF0E94FA06E881EDBBE29AE19A5B
:100AAA0023960895AA935D9BFECFE881ECB921961F
:100ABA000895BA93AA93E881E9B9E981F070E0BD93
:100ACA00E8E1EAB9E6E0E0BD22960895A0970E941F
:100ADA0039070E9475061E2F00E00117C8F5FE01AE
:100AEA003496FA93EA93E0E0EA93A0E2B0E00E9437
:100AFA00E10530E03830B8F4E32FF0E0DE01149677
:100B0A00EA0FFB1FFF93EF93A32FBB27E02FF0E021
:100B1A0031960E940F07AE0FBF1FADDFAF91BF9195
:100B2A00EC933F5FE7CFE32FF0E0DE011496AE0FC0
:100B3A00BF1FE0E0EC93FE0134960E945F060E941C
:100B4A00F105E03019F4E1E0F0E004C00F5FC5CF31
:100B5A00E0E0F0E00E944007A4960895BA93AA93B1
:100B6A00A991B991E991F99130962AF4E095F09515
:100B7A0031966DE26D93E89480E197E20DD088EEAC
:100B8A0093E00AD084E6992707D08AE005D06E2F31
:100B9A0010D066276C9308956627E817F90720F0A6
:100BAA006395E81BF90BC9F7662311F416F008954B
:100BBA006894605D6D930895BA93AA93B981A881E8
:100BCA00109631F0FC81EB816A8161931197E9F704
:100BDA00EB81FC8125960895BA93AA93E991F9913C
:100BEA00A991B9916D917191671721F46623D1F793
:100BFA00EE270895671BE1F3E1E008F4E250089557
:100C0A00BA93AA93A991B991EE27FF276D9166230A
:100C1A0011F03196FBCF0895AA9366277727899119
:100C2A00E991F991A991B991882349F08A956D9131
:100C3A007191671721F46623B9F7EE270895671BA8
:100C4A00E1F3E1E008F4E2500895E1E0F0E0E415B0
:100C5A00F5050895A1E00E946304E1E0EA93A1E0AA
:100C6A000C9494040E94AC04E1E0EA93A2E00C9490
:100C7A009404E2E0F0E0E415F5050895AFE00E947F
:100C8A00630480E89CE00197F1F70895E3E0F0E05F
:100C9A00E415F5050895E4E0F0E0E415F505089596
:100CAA00EFE3F5E0FA93EA93E0E0EA93A0E2B0E03A
:100CBA000C94E105FA93EA93AFE3B5E00895AFE344
:100CCA00B5E00E94AC04A8EEB3E00C940107F80169
:100CDA0031960E940F07E20FF31FDF010C944005C3
:100CEA00A0E0B0E00C944005A0EDB7E00C94010739
:100CFA00E6E0F0E0E415F5050895E7E0F0E0E41534
:100D0A00F50508950E94630480E89CE00197F1F7D5
:100D1A000895E5BBE3B3EF701E2F1F300895E02F4F
:100D2A00AFE2B5E0F0E00E941107AE0FBF1FEE2759
:100D3A00A30FBE1FEC91F0E00895AFE3B5E00C9469
:100D4A000506E15CFA4F0F01E02FAFE2B5E0F0E0F3
:100D5A000E941107AE0FBF1FEE27A30FBE1FEC9113
:100D6A00D001EC93EACFE05CFA4FA0E0A083E02F39
:100D7A00AFE2B5E0F0E00E941107AE0FBF1FEE2709
:100D8A00A30FBE1FAC910C946F04E02FAFE2B5E045
:100D9A00F0E00E941107AE0FBF1FEE27A30FBE1F80
:100DAA00AC910895AA93E8B3EF70AE2FE881E07F83
:100DBA00EA2BE8BB0895C198C29A8BE28A95F1F7AB
:100DCA00C2980895E8B3EF70AE2FE881E295E07F0C
:100DDA00EA2BE8BBC29A8BE28A95F1F7C29808958A
:100DEA000E94AC04042C05280895EA81F070E3708F
:100DFA00EFBBE981EEBB0895109639F0A89580ED16
:100E0A0097E00197F1F71197C9F70895F195E195E0
:100E1A00F0400895EE0FFF1FEE0FFF1FEE0FFF1FAA
:100E2A0008950024112490E1AA0FBB1F001C111C75
:100E3A000E1A1F0A18F40E0E1F1E01C0A1609A9501
:100E4A0099F7FD01D0010895E894B7FF04C0A09571
:100E5A00B09511966894F7FDD9DFE3DFFD010EF432
:100E6A00D5DF08955A934A933A932A931A930A9389
:100E7A0008955D814C813B812A81198108810895F9
:00000001FF
