:0A0000000C94A1030C941C060C9450
:10000A0000000C9400000C9400000C940A060C9456
:10001A0000000C9400000C9400000C9400000C9456
:10002A0000000C9400000C9400000C9400000C9446
:10003A0000000C9400000C9400000C9400000C9436
:10004A0000000C9400000C9400001027E8036400E0
:10005A000A00010000100001100001000000000069
:10006A0000053738394F34353644313233434C3052
:10007A005245220226022A022E02320236023A028F
:10008A00FFFF53756E004D6F6E005475650057651E
:10009A006400546875004672690053617400313A0D
:1000AA00205375626D69742053747564656E74208B
:1000BA00436F646500323A205375626D6974205744
:1000CA0069746820436172640054696D6520666FC3
:1000DA0072207375626D69742069732066696E692E
:1000EA007368656400456E74657220796F75722055
:1000FA0073747564656E7420636F64653A00427246
:10010A00696E6720796F75722063617264206E650B
:10011A006172206465766963653A00343000496E1D
:10012A0076616C69642043617264004475706C691D
:10013A00636174652053747564656E7420436F64DB
:10014A00650053747564656E742061646465642027
:10015A00776974682049443A004E756D6265722069
:10016A006F662073747564656E7473203A2000504C
:10017A00726573732043616E63656C20546F204708
:10018A006F204261636B0053746172742054726110
:10019A006E7366657272696E672E2E2E00557361D4
:1001AA007274205472616E736D69742046696E6947
:1001BA007368656400313A2053656172636820533D
:1001CA00747564656E7400323A2044656C657465B2
:1001DA002053747564656E7400456E74657220539D
:1001EA00747564656E7420436F646520466F72206F
:1001FA005365617263683A00456E74657220537480
:10020A007564656E7420436F646520466F7220447E
:10021A00656C6574653A00456E7465722053656352
:10022A0072657420436F646520286F722063616E63
:10023A0063656C290031203A20436C656172204560
:10024A004550524F4D002020202070726573732054
:10025A0063616E63656C20746F206261636B005327
:10026A0065742054696D6572286D696E757465735D
:10027A00293A2000253032783A253032783A25302A
:10028A0032782020003230253032782F25303278EB
:10029A002F253032782020253373004C6F676F7515
:1002AA0074202E2E2E00476F696E6720546F2041EE
:1002BA00646D696E205061676520496E2032205353
:1002CA00656300496E636F72726563742053747557
:1002DA0064656E7420436F646520466F726D617445
:1002EA0000596F752057696C6C204261636B204D11
:1002FA00656E7520496E2032205365636F6E640007
:10030A004475706C69636174652053747564656EB5
:10031A007420436F646520456E746572656400538A
:10032A00747564656E7420436F64652053756363E6
:10033A0065737366756C6C792041646465640059F1
:10034A006F75204D757374204669727374204C6FF3
:10035A0067696E00596F752057696C6C20476F206A
:10036A0041646D696E205061676520322053656370
:10037A000053747564656E7420436F646520466F1C
:10038A00756E64004F7073202C2053747564656E0B
:10039A007420436F6465204E6F7420466F756E64D7
:1003AA00005761697420466F722044656C657465F4
:1003BA002E2E2E0053747564656E7420436F646527
:1003CA00205761732044656C657465640054696DD7
:1003DA0065722073746172746564004C6F67696E2C
:1003EA00205375636365737366756C6C7900576126
:1003FA0069742E2E2E004F7073202C207365637241
:10040A00657420697320696E636F72726563740024
:10041A00436C656172696E6720454550524F4D20A5
:10042A002E2E2E0054656D70657261747572652882
:10043A0043293A00313A20417474656E64616E63EF
:10044A006520496E697469616C697A6174696F6E55
:10045A0000323A2053747564656E74204D616E6182
:10046A0067656D656E7400333A205669657720506A
:10047A00726573656E742053747564656E74732047
:10048A0000343A2054656D70657261747572652026
:10049A004D6F6E69746F72696E6700353A205265E6
:1004AA007472696576652053747564656E74204448
:1004BA0061746100363A2054726166666963204D40
:1004CA006F6E69746F72696E6700373A204C6F6796
:1004DA00696E20576974682041646D696E00383A04
:1004EA00204C6F676F757400393A20536574205435
:1004FA00696D65720044697374616E63653A2000C0
:10050A004572726F72004E6F204F62737461636C32
:10051A00650020636D2000436F756E743A200000F9
:10052A0001002D4E414E00494E46000006000400CF
:10053A0066001000D8076C00040022028C00040038
:10054A002602900004002A02940004002E02980059
:10055A00040032029C0004003602A00004003A02A1
:10056A00A4000E0008087C0017003E02A800140030
:10057A005502BF001C006902D30019008502EF0072
:10058A001C009E02D3001D00BA0208010300D70214
:10059A0025010D00DA0228011700E70235011700CC
:1005AA00FE024C0116001503630118002B037901A2
:1005BA0016004303910118005903A70112007103A1
:1005CA00BF0112008303D1011F009503E3011F003D
:1005DA00B40302021E00D30321021100F1033F02F9
:1005EA0019000204500215001B0469020B003004B2
:1005FA00A5021D003B04B002020058047701020064
:10060A005A04770103005C0425011E005F04CD0231
:10061A001F007D04EB021F009C040A031F00BB0499
:10062A00EB022000DA0429031F00FA04EB0215008A
:10063A00190549031D002E055E0302004B057701CB
:10064A0002004D05770113004F057B031F00620569
:10065A00EB021D0081058E031F009E05EB020200BE
:10066A00BD0577010200BF0577011300C1057B03B1
:10067A001300D405AB031900E705BE031F000006EB
:10068A00EB021D001F068E031F003C06EB0203004F
:10069A005B068C0203005E068C020E006106D7031D
:1006AA0002006F06770102007106770113007306D4
:1006BA00E50308008606F8031A008E0600041F00E8
:1006CA00A806EB021400C7061A041000DB062E0463
:1006DA000200EB0677011D00ED063E0416000A072C
:1006EA005B041A00200771041A003A078B041900E8
:1006FA005407A50416006D07BE0414008307D4042A
:10070A000A009707E8040D00A107F20402002A086C
:10071A008A000B00AE07FF040600B9070A050C00A1
:10072A00BF0710050500CB071C050800D0072105E7
:10073A0001002C082A050000F894EE27ECBBF1E032
:10074A00FBBFEBBFE5BF8DE0A2E0BB27ED938A9527
:10075A00E9F780E098E0A0E6ED930197E9F7E6E390
:10076A00F5E085919591009761F0A591B591059075
:10077A001590BF01F00105900D920197E1F7FB0179
:10078A00F0CFEFE5EDBFE8E0EEBFC2E2D2E00C94B5
:10079A00CE032797E0EFE7BBEFEFE8BBE8B3EF70D4
:1007AA00E8BBE2E0E5BFE0E4EBBF8F9A9798A3E3EA
:1007BA00B0E00E94040B0E94820B0E94EF090E9483
:1007CA00A80C7894A1E00E94DB09552019F40E9434
:1007DA006A0A19C2E1E0E51571F40E94010FAEE35D
:1007EA00B2E00E94090FA5E5B2E00E94220AE1E008
:1007FA00E515E9F308C2E2E0E515B1F4992031F410
:10080A000E94010FA9E6B2E00E94100F0E94010F98
:10081A00A5E8B2E00E94090F0E94180FE2E0E51570
:10082A00E9F30E94200FEFC1E3E0E51509F07BC070
:10083A000E94280FE3E0E51509F074C0992039F405
:10084A000E94010FAEE9B2E00E94100F6BC00E9435
:10085A00010FAAEBB2E00E94090F0E94320F0E9418
:10086A00FB0A4E2FED3049F0E3E0E51531F40E9422
:10087A00370FE851F84F4083F2CFE3E0E51519F05E
:10088A000E94280F4FC00E943B0FE7EDF2E00E9442
:10089A00400F31F40E94370FE830A0E0FA0751F018
:1008AA000E94010FAAEDB2E00E94220A979A0E94C2
:1008BA00470F35C00E94110BE13040F0979A0E9411
:1008CA00010FA7EEB2E00E944D0F29C00E94500FFF
:1008DA0000E010E00830E0E01E077CF4E52F0E94FB
:1008EA00560FE00FF11F0E945B0FA00FB11FAC91D2
:1008FA000E94EA0A0F5F1F4FEDCF0E94600FA52FDB
:10090A00AF5F0E94EA0A0E94010FAEEFB2E00E94B6
:10091A00090F0E94650FA8EBBBE00E9473100E94AA
:10092A00280F88CF70C1E4E0E51511F49DD56BC19D
:10093A00E5E0E51509F049C00E94010FA5E1B3E021
:10094A000E94090F0E94500F0E94280FE52FF0E025
:10095A000E945B0F0E94E90C0E94650F0E94690FBA
:10096A0000E010E0E52FD801F0E0AE17BF0724F54C
:10097A000E94280F20E030E02830E0E03E076CF4C7
:10098A00F901E851F84FFF93EF930E946D0FAF9171
:10099A00BF91EC932F5F3F4FEFCFA8EEB7E0A20FC6
:1009AA00B31FE0E0EC930E94010F0E94650F0E94C2
:1009BA00690F0F5F1F4FD6CF0E94010FABE2B3E062
:1009CA003CD5E5E0E515E9F31EC1E6E0E515B9F524
:1009DA000E94010FA3E4B3E030D50E94500F00E05B
:1009EA0010E0E52FD801F0E0AE17BF079CF420E035
:1009FA0030E02830E0E03E0744F40E946D0FAE2F4D
:100A0A000E94F50A2F5F3F4FF4CF0E94760F0F5FC7
:100A1A001F4FE7CF20E030E02830E0E03E0734F413
:100A2A00ADE30E94F50A2F5F3F4FF6CF0E94760F83
:100A3A000E94010FA9E5B3E00E94100FE4C0E7E0AD
:100A4A00E51569F40E94010FA1E7B3E00E94090FBE
:100A5A00A3E8B3E0F2D4E7E0E515E9F3D4C0E8E0AF
:100A6A00E51571F40E94010FA5E9B3E00E94090F90
:100A7A000E94180FE8E0E515E9F30E94200FC3C0B1
:100A8A00E9E0E51571F40E94010FA4EBB3E00E94BE
:100A9A00090F0E94180FE9E0E515E9F30E94200FFB
:100AAA00B2C0EAE0E51521F40E94D80B5524ABC088
:100ABA00EBE0E51521F50E94010FA3EDB3E00E94DA
:100ACA00090F0E94180FEBE0E51511F4662009F0F2
:100ADA0001C0F9CFE1E0E61579F40E94200F0E94E7
:100AEA00010FA1EFB3E00E94090FA2E0B4E0A5D480
:100AFA00EBE0E515E9F302C00E94200F84C0EEE0A6
:100B0A00E515A9F40E94010FACE050D40E94800FB1
:100B1A000E94E90CABE1B4E090D40E94650F0E94F8
:100B2A00320FEEE0E515E9F30E94320F6CC0EDE0FA
:100B3A00E51509F068C0EDE0E51509F064C0A1E02B
:100B4A0035D40E94830FFE013796FA93EA93DE01A9
:100B5A001A960E94B10CE6E1F8E0FA93EA93EEE7FE
:100B6A00F2E0FA93EA93E8850E94880FED850E94E5
:100B7A00880FEA890E94880F8CE00E94CD0E609649
:100B8A00E1E00E948E0FA6E1B8E057D4FE01FA9385
:100B9A00EA93FE013396FA93EA93FE013696FA93A4
:100BAA00EA93DE0119960E94C20CE6E1F8E0FA9394
:100BBA00EA93EFE8F2E0FA93EA93EC810E94880F55
:100BCA00E9850E94880FEE850E94880FEB89F0E084
:100BDA003197A8E0B8E0EE0FFF1FAE0FBF1F0E94CB
:100BEA003B12662777270E94521280E10E94CD0E9F
:100BFA006496E1E0EA93A2E009D4A6E1B8E01DD444
:100C0A000E94690F98CFE1CDFFCFEA93EFB7EA933D
:100C1A008394ECE3E81511F49A948824E0E0E4BDA7
:100C2A00992009F4E9BFE991EFBFE99118950A9271
:100C3A001A92FA926A937A938A939A93AA93BA9394
:100C4A00EA93FA93EFB7EA9322970E945712EFEECC
:100C5A000E94920F11F000E012C0EFED0E94920F75
:100C6A0011F001E00CC0EFEB0E94920F11F002E0CC
:100C7A0006C0EFE7E8BBE6B3EF701E2F03E01E30B5
:100C8A0011F430E009C01D3011F431E005C01B3009
:100C9A0011F432E001C033E0E8B3EF70E8BB55204D
:100CAA0009F079C00E94980FEC91F0E0F097E130DA
:100CBA00A0E0FA0719F4E1E05E2E47C0E430A0E0B4
:100CCA00FA0719F4E4E05E2E40C0E330A0E0FA0728
:100CDA0019F4E5E05E2E39C0E530A0E0FA0719F410
:100CEA00E6E05E2E32C0E230A0E0FA0719F4E7E04F
:100CFA005E2E2BC0E630A0E0FA0719F4EAE05E2E79
:100D0A0024C0E730A0E0FA0719F4EBE05E2E1DC01C
:100D1A00E930A0E0FA0719F4EEE05E2E16C0E830DA
:100D2A00A0E0FA0791F4F894E1E0E61571F40E9464
:100D3A00010FA0E3B4E00E94090FABE3B4E00E9404
:100D4A00A40F66247894EBE05E2E0E94980FAC9173
:100D5A00AC3451F4E0E0E41520F4E42DF0E03197EE
:100D6A0001C0E4E04E2E16C00E94980FAC91A23545
:100D7A0051F4E42DF0E03196DF01E5E0F0E00E9465
:100D8A002D124E2E07C00E94980FAC91AF3411F469
:100D9A00EDE05E2EFAC2E1E0E515E1F40E94980F5B
:100DAA00EC91F0E0E334A0E0FA0711F4552411C005
:100DBA00E133A0E0FA0729F40E94280FE2E05E2E50
:100DCA0008C0E233A0E0FA0721F40E94280FE3E00A
:100DDA005E2EDBC2E2E0E51509F0AAC00E94980F78
:100DEA00AC91A33421F40E94280FE1E05E2E0E9408
:100DFA00980FEC91F0E0FA977CF40E94370F7F97F6
:100E0A0050F40E94370F0E94AA0F0E94AE0F0E9450
:100E1A00B20FAC91D7D28BC00E94980FAC91A43478
:100E2A0061F40E94370F5E2F513030F00E94B70FE5
:100E3A00A8E5B4E00E94C10F7AC00E94980FAC9155
:100E4A00AF3481F40E94C60F0E94370F0E94CD0F63
:100E5A0030F4AAE5B4E0F1D20E94D20FF5CF0E9495
:100E6A00D80F65C00E94980FAC91A53409F058C0FC
:100E7A00F8940E943B0FECE5F4E00E94400F31F435
:100E8A000E94370FE830A0E0FA0761F0979A0E94B3
:100E9A00010FAFE5B4E00E94090FADE7B4E00E948C
:100EAA004D0F3AC0B9D3E13060F0979A0E94010F12
:100EBA00ACE9B4E00E94090FABEBB4E00E944D0F1D
:100ECA002BC00E94DC0F2E2FE0E0EE83EF83AE8171
:100EDA00BF81189794F4E22F0E94560FAE81BF810A
:100EEA00EA0FFB1FFA93EA93E885F985E851F84F70
:100EFA00A0816BD30E94D20FEACF0E94600FA22F6B
:100F0A00AF5F63D30E94010FAAEDB4E00E94090FFC
:100F1A00AAEFB4E00E94A40F0E94280F789405C09B
:100F2A000E94980FAC91A33411F4E1E05E2E2DC219
:100F3A00E3E0E51551F40E94980FAC91A33421F433
:100F4A000E94280FE1E05E2E20C2E4E0E51539F4A4
:100F5A000E94980FAC91A33409F4552416C2E5E017
:100F6A00E51539F40E94980FAC91A33409F455247D
:100F7A000CC2E7E0E51571F50E94980FAC91A33415
:100F8A0011F4552426C00E94980FAC91A13311F494
:100F9A00E8E01EC00E94980FAC91A23319F4E1E078
:100FAA00E61509F002C0E9E013C00E94980FAC915F
:100FBA00A23311F4662009F00CC00E94010FA9E1C6
:100FCA00B5E00E94090FAEE2B5E00E94A40FEBE083
:100FDA005E2EDBC1E8E0E51509F06DC00E94980FAE
:100FEA00AC91A33419F40E94280F62C00E94980F92
:100FFA00EC91F0E0FA977CF40E94370F7F9750F457
:10100A000E94370F0E94AA0F0E94AE0F0E94B20FD1
:10101A00AC91D8D14FC00E94980FAC91A43461F41E
:10102A000E94370F5E2F513030F00E94B70FABE4A9
:10103A00B5E00E94C10F3EC00E94980FAC91AF3438
:10104A0081F40E94C60F0E94370F0E94CD0F30F420
:10105A00ADE4B5E0F2D10E94D20FF5CF0E94D80FCD
:10106A0029C00E94980FAC91A534E9F40E94E00FC0
:10107A0048F00E94010FAFE4B5E00E94090FA2E612
:10108A00B5E008C00E94010FA1E8B5E00E94090F6F
:10109A00AEE9B5E0D2D10E94E70F0E94280FE7E03F
:1010AA005E2E219607C00E94980FAC91A33411F4CA
:1010BA00E7E05E2E6AC1E9E0E51509F072C00E9418
:1010CA00980FAC91A33429F40E94280FE7E05E2E12
:1010DA0067C00E94980FEC91F0E0FA977CF40E94A6
:1010EA00370F7F9750F40E94370F0E94AA0F0E9471
:1010FA00AE0F0E94B20FAC9165D152C00E94980FF8
:10110A00AC91A43461F40E94370F5E2F513030F055
:10111A000E94B70FADEBB5E00E94C10F41C00E941B
:10112A00980FAC91AF3481F40E94C60F0E94370F1A
:10113A000E94CD0F30F4AFEBB5E07FD10E94D20F01
:10114A00F5CF0E94D80F2CC00E94980FAC91A534FD
:10115A0039F50E94E00FA0F00E94010FA1ECB5E062
:10116A000E94090FA4EDB5E068D1A88199D20E9426
:10117A00010FA7EEB5E00E94090FA0E0B6E008C093
:10118A000E94010FAFE1B6E00E94090FACE3B6E09E
:10119A0054D10E94E70F0E94280FE7E05E2E2196A5
:1011AA00F4C0EAE0E51539F40E94980FAC91A33433
:1011BA0009F45524EAC0EDE0E51539F40E94980FC8
:1011CA00AC91A33409F45524E0C0EEE0E51509F02A
:1011DA0045C00E94980FAC91A33419F40E94280FBD
:1011EA003BC00E94980FAC91A23589F4E4E19E16A7
:1011FA0068F493940E94800F0E94E90CE5E10E9432
:10120A008E0F0E94650FABE5B6E017D126C00E948B
:10121A00980FAC91AC3489F4E1E0E91568F49A943A
:10122A000E94800F0E94E90CE5E10E948E0F0E9445
:10123A00650FAEE5B6E001D110C00E94980FAC91DF
:10124A00A53459F40E94010FA1E6B6E0F6D00E9437
:10125A00280F0E94E70FA7D3552497C0EBE0E515A6
:10126A0019F4E1E0E61509F471C00E94980FAC91F7
:10127A00A33421F40E94280F552467C00E94980FB6
:10128A00EC91F0E0FA977CF40E94370F7F9750F4C4
:10129A000E94370F0E94AA0F0E94AE0F0E94B20F3F
:1012AA00AC9190D052C00E94980FAC91A43461F4D2
:1012BA000E94370F5E2F513030F00E94B70FAFE611
:1012CA00B6E00E94C10F41C00E94980FAC91AF34A2
:1012DA0081F40E94C60F0E94370F0E94CD0F30F48E
:1012EA00A1E7B6E0AAD00E94D20FF5CF0E94D80F8C
:1012FA002CC00E94980FAC91A53439F52297A8EE1C
:10130A00B7E0D4D2E883F983A881B981A436EFE0A3
:10131A00BE0769F40E94010FA3E7B6E00E94090F15
:10132A00A6E8B6E00E94A40FE1E06E2E0AC00E9471
:10133A00010FAEE8B6E00E94090FA8EAB6E00E94E3
:10134A00A40F0E94280F552422961FC0EBE0E51532
:10135A0011F4662009F419C00E94980FEC91F0E08C
:10136A00E334A0E0FA0711F455240CC0E133A0E0FD
:10137A00FA0741F4F8940E94010FA7ECB6E05DD099
:10138A00FED078940E94280F55240E945E12289657
:10139A00E991EFBFF991E991B991A991999189914F
:1013AA0079916991F9901990099018950E94EB0F1B
:1013BA00D8980E94F40F80E892E00197F1F70E9412
:1013CA00FB0FB9C20E94EB0FD89A0E94F40F0E9439
:1013DA00FB0FB1C2EFEFEABBDA9880E09AEF019710
:1013EA00F1F7A3E30E940910A2E30E940910A8E200
:1013FA000E9409100E94200FA1E0D8DF80E09AEF36
:10140A000197F1F7A6E00E9409100895AA9324977C
:10141A00E0E8E883E0ECE983E4E9EA83E4EDEB83DE
:10142A00EC81F0E03197DE01AE0FBF1FEC91AD8188
:10143A00AE0FA1500E9409109EC2BA93AA931A93A2
:10144A0010E0A981BA81EE27A10FBE1FEC91E0300E
:10145A0049F0A981BA81EE27A10FBE1FAC91B2DF74
:10146A001F5FEFCF1881BAC023971A9310E0D39861
:10147A00E3EEE7B9E7E8E6B90E94010FABEDB6E0A3
:10148A00DCDFE4E0E515E9F4369A349BFECFE5B1FA
:10149A001E1791F015B1E12FF0E0FA93EA93DE01FD
:1014AA0013960E94E90CE1E10E948E0FDE0111966B
:1014BA00C4DFABEEB6E0C1DFA4EFB1E00E94731067
:1014CA00E0CFE0E0E6B9188112C2552009F056C013
:1014DA000E94010F442071F4ADEEB6E00E94090F9C
:1014EA00AAE0B7E0AADF442011F4552009F001C0B0
:1014FA00FACF43C0E1E0E41579F4A0E2B7E00E9434
:10150A00090FAAE3B7E099DFE1E0E41511F45520E9
:10151A0009F001C0F9CF31C0E2E0E41579F4A4E59D
:10152A00B7E00E94090FADE6B7E087DFE2E0E41515
:10153A0011F4552009F001C0F9CF1FC0E3E0E4150A
:10154A0079F4A3E8B7E00E94090FA7E9B7E075DFCD
:10155A00E3E0E41511F4552009F001C0F9CF0DC0FC
:10156A00E4E0E41551F4A1EAB7E067DFE4E0E4154A
:10157A0011F4552009F001C0F9CFA7CF08951A93A5
:10158A000A9300E010E00030E4E01E0778F4E199E5
:10159A00FECFE12FF070E370EFBBE02FEEBBE0E08F
:1015AA00EDBBE29AE19A0F5F1F4FEDCF09911991B6
:1015BA000895BA93AA931A93E199FECF0E940C1048
:1015CA00E09A1DB3E12F188109C0AA93E199FECFD1
:1015DA000E940C10E881EDBBE29AE19A23960895E5
:1015EA00AA935D9BFECFE881ECB9A5C15F9903C0C0
:1015FA00E3E0E51509F001C0F9CFECB10895BA931B
:10160A00AA93E881E9B9E981F070E0BDE8E1EAB9B5
:10161A00E6E0E0BD229608952A970E9459120E9498
:10162A00DC0F1E2F00E00117B0F50E94830FE0E0E7
:10163A00EA93AAE0B0E00E94170D30E03830A8F42F
:10164A00E32FF0E0DE011496EA0FFB1FFF93EF93FE
:10165A00A32FBB27E02F0E94560FAE0FBF1FA9DF93
:10166A00AF91BF91EC933F5FE9CFE32FF0E0DE014A
:10167A001496AE0FBF1FE0E0EC930E94830F0E9406
:10168A003B0FA8E00E94400DE03019F4E02FEF5F15
:10169A0003C00F5FC8CFE0E00E9460122E96089543
:1016AA00AA930E9459120E94DC0F1E2F0C81101758
:1016BA00D8F030E03830B0F4A32FBB27E02F0E94D7
:1016CA00560FAE0FBF1F75DF2E2FA32FBB27E8E0E3
:1016DA00E09FF001EA0FFB1FFA93EA93A22F75DF4E
:1016EA003F5FE8CF0F5FE3CF0E94600FA12FA150A9
:1016FA006CDF0E9460120C94970D8D9A8E98089553
:10170A00959A80EE91E00197F1F7959808952897B8
:10171A00E0E0EC83ED83EE83EF830E94131030F454
:10172A00869B01C003C00E941F10F7CF0E941310AE
:10173A0019F4EFEFFFEF35C1E0E0EFBDE3E0EEBDF6
:10174A00E0E0F0E0FDBDECBDEC83ED83EE83EF83DA
:10175A000E94131070F4869B0CC0ECB5FDB5E136FF
:10176A00AAEEFA0718F0EEEFFFEF1BC10E941F1056
:10177A00EFCFECB5FDB5662777270E944D12E0E062
:10178A00EEBD0E944812A136EAEEBE07E0E08E07DF
:10179A00E0E09E0718F0EEEFFFEF03C10E9443124C
:1017AA000E941012FEC060970E9457124FEF5FEF1F
:1017BA000E94010FAEEAB7E040DEEAE0E51509F063
:1017CA0071C09EDFA4DF8F01EFEFFFEFE017F10793
:1017DA0029F40E94010FA9EBB7E05EC0EEEFFFEF1C
:1017EA00E017F10729F40E94010FAFEBB7E054C0EC
:1017FA00F801662777270E94E310A6E9B3E48BE095
:10180A009DE30E946611DF01CB01E0E0F0E060E0B9
:10181A0070E40E94B411A0E0B0E080E09FE30E946F
:10182A0016110E94AC109F014217530781F0A901BB
:10183A003A932A93DE0118960E94E90CEBE00E9483
:10184A008E0FDE011696F9DDABECB7E0F6DD263039
:10185A00E0E03E070CF47394E0912A08F0912B081B
:10186A00A72DB0E0EA17FB07C1F0E72DF0E0E093FF
:10187A002A08F0932B08E1E0EA93A2E0C7DDE72DFE
:10188A00F0E0FA93EA93DE0118960E94E90CA0EDC3
:10189A00B7E0D3DDDE011696D0DDA4EFB1E00E94F9
:1018AA0073108BCF0E945E1266960895BA93AA931C
:1018BA001A930A9300E010E0AA81BB81EC91E03010
:1018CA0099F0AFE1A09FF001A19FF00D0F01AA814D
:1018DA00BB81EC91F0E0E00DF11D8F01EA81FB8103
:1018EA003196EA83FB83E8CFF801198108812496AF
:1018FA000895E0E0E1B9E7E4E0B9E4E0E6BF08957D
:10190A00E4EAE6BFE6B7E078E9F30895AA93E88146
:10191A00E3B9E4E8E6BFE6B7E078E9F30CC0AA93D6
:10192A00E881E295E07FEE0FEE0FE468E6BFE6B7E6
:10193A00E078E9F3E3B121960895E4E9E6BFE6B772
:10194A00E4FDFDCF0895D5DF0E942C10A7E0DEDF6D
:10195A00A0E00E9431100895BA93AA930E942C1015
:10196A00A0E00E9431100E943510A0E0D8DFAC81BF
:10197A00BD81EC93E2DF26960895BA93AA930E945A
:10198A002C10A3E00E9431100E943510A1E0C7DF9D
:10199A00AC81BD81EC93A0E0C2DFAE81BF81EC9344
:1019AA00CCDF28960895E0E0E9BFE8E0E2BDE0E098
:1019BA00E4BDE5BDE5B5E560E5BDE2B5E570E9F78D
:1019CA00E0E4E8BFE9BF0895BA93AA93A991B9914F
:1019DA00E991F99130962AF4E095F09531966DE205
:1019EA006D93E89480E197E20DD088EE93E00AD0F7
:1019FA0084E6992707D08AE005D06E2F10D0662793
:101A0A006C9308956627E817F90720F06395E81B99
:101A1A00F90BC9F7662311F416F008956894605D0E
:101A2A006D930895BA93AA93B981A881109631F05B
:101A3A00FC81EB816A8161931197E9F7EB81FC8163
:101A4A000C94970DBA93AA93A991B991EE27FF27FF
:101A5A006D91662311F03196FBCF0895BA93AA933C
:101A6A00AA27BB27E991F9910590002011F0119658
:101A7A00FBCFFD010895AA93662777278991E991FB
:101A8A00F991A991B991882349F08A956D9171913B
:101A9A00671721F46623B9F7EE270895671BE1F368
:101AAA00E1E008F4E2500895BA93AA931A930A93CC
:101ABA00AA81BB8112960E943B12309759F1AA81E2
:101ACA00BB8114960E943B128F01309761F002305D
:101ADA00E0E01E0798F0F80131978F01AA81BB81D7
:101AEA001496ED93FC93AA81BB811296ED91FD9118
:101AFA003196FE93EE933197AC81A083AA81BB8184
:101B0A000E943B12FF232AF0ED91FD913196FE933C
:101B1A00EE9306C0AA81BB81EFEFFFEFED93FC9332
:101B2A001981088125960895BA93AA9326970E9447
:101B3A00571210E0AC85BD85E0E0F0E0ED93FC9330
:101B4A00EA89FB893196EA8BFB8B3197E4912E2F38
:101B5A00E03009F415C1E12FE03039F4253211F4EF
:101B6A0011E002C00E9447100AC1E130A9F42532EF
:101B7A0019F40E94471002C112E040E000E02D3241
:101B8A0011F401E0FCC02B3211F44BE2F8C0203210
:101B9A0011F440E2F4C002C0E23039F450E013E03C
:101BAA00203311F40068EBC003C0E33009F0E7C04A
:101BBA00203310F02A3308F007C0AAE05A9F502DAC
:101BCA00E22FE0535E0FDBC0E22FE33649F40E94B6
:101BDA004E10E889F989A481AA930E945410CEC0B4
:101BEA00E33741F40E944E100E945A100E94270DBA
:101BFA001E2F0AC0E03761F40E944E100E945A104C
:101C0A000E94330D1E2F086002600F7730E034C047
:101C1A00E43611F0E93611F4046002C0E53731F414
:101C2A00E4E5F0E0EE83FF8315E00CC0E83511F43B
:101C3A00086003C0E83709F0A1C0EEE5F0E0EE83E2
:101C4A00FF8314E002FF14C00E944E100E94641029
:101C5A00AB85AA233AF4EA85FB850E94FD11EA873F
:101C6A00FB874DE2403011F01F5F01C00B7F04C0BB
:101C7A000E944E100E94641000FD11C0151778F4DE
:101C8A0007FF08C002FF04C00B7F242F115001C0B8
:101C9A0020E301C020E20E9447105150EFCF312FBC
:101CAA0001FF17C03030A1F003FF06C0EE81FF81AB
:101CBA002591EE83FF8305C0AE81BF812D91AE834E
:101CCA00BF830E944710503009F051503150EACF7B
:101CDA004BC020E3EE81FF810E943F12E887F9871B
:101CEA00EE81FF813296EE83FF83E885F985AA8526
:101CFA00BB85AE17BF0750F02F5FA885B985EA8567
:101D0A00FB85EA1BFB0BEA87FB87EFCF2A3328F018
:101D1A0003FF02C0295F01C0295D04FD1AC02133F7
:101D2A0020F4A885B985119709F409C0531710F052
:101D3A0000FF01C013C020E207FF0BC020E30061CF
:101D4A0002FF07C00B7F4A930E945410503009F0DB
:101D5A0051500E944710503009F051503150A88517
:101D6A00B985129708F0B5CF00FF08C0503031F09E
:101D7A005150E0E2EA930E945410F8CF10E0E0CE0E
:101D8A00AC85BD850E943B120E945E12649608953E
:101D9A00FF92F82E26970E9459120E946C103097D3
:101DAA0019F4EFEFFFEF23C0DE0116960E94F91136
:101DBA008D010E946C10EE83FF83E0E0E887E987DB
:101DCA00DE011A960E94F9110E943B12FA93EA93D5
:101DDA001A930A93E9E5FDE0FA93EA93DE011A966B
:101DEA00A3DE9F01AE81BF81E0E0EC93F9010E947E
:101DFA0060122A96FF900895A1E00E94DB09E1E0B3
:101E0A00EA93A1E00C940B0A0E94220AE1E0EA9309
:101E1A00A2E00C940B0A0E94220AA0EDB7E00E94ED
:101E2A00731055240895AFE00E94DB0980E89CE016
:101E3A000197F1F70895ACE00E94DB0980E89CE085
:101E4A000197F1F70895E8EEF7E0FA93EA93E0E0F4
:101E5A00EA93A0E2B0E00C94170D80E89CE00197A9
:101E6A00F1F70895A8EEB7E00C94270DE8EEF7E035
:101E7A00FA93EA930895FA93EA93A2E00E94400D36
:101E8A00E0300895A0EDB7E00E9473109798089586
:101E9A000E94220AF7CFA0E0B0E00E94DE0A5E2F7D
:101EAA000895F0E031960E9409120895FA93EA9390
:101EBA00A8EEB7E00895E0E0F0E0FA93EA93089517
:101ECA00A8EEB7E00C94220AA8EEB3E00C947310C3
:101EDA00F80131960E940912E20FF31FDF010C94F8
:101EEA00DE0AADE00E94F50AADE00E94F50AA4EF11
:101EFA00B1E00C947310E92DF0E0D8CFFE013496CE
:101F0A00FA93EA930895FF27662777270E945212C9
:101F1A000895EA93A1E00C940B0AE8BBE6B3EF70CC
:101F2A001E2F1F300895E02FA8EDB7E0F0E00E94C1
:101F3A000B12AE0FBF1FEE27A30FBE1F08950E94FC
:101F4A00220AA0EDB7E00C947310E851F84F0F0184
:101F5A00EACFEC91D001EC9385CFE751F84FA0E09E
:101F6A00A083E1CFE52FF0E03197E851F84FA0E0E8
:101F7A00A083A0E10C94DB090E94220AA0E10C9440
:101F8A00DB09A0EC0E94DB09E0E0EE83EF83089511
:101F9A00AE81BF81AE17BF070895EE81FF813196EA
:101FAA00EE83FF830895A0EC0E94DB094CCFA0E0EA
:101FBA00B0E00C94DE0A21970E94110BE883A881F5
:101FCA00A1300895A0EDB7E00C947310AA93EBB377
:101FDA00EF70AE2FE881E07FEA2BEBBB0895D9982A
:101FEA00DA9A8BE28A95F1F7DA980895EBB3EF70F3
:101FFA00AE2FE881E295E07FEA2BEBBBDA9A8BE21F
:10200A008A95F1F7DA9808950E94DB0926CFEA81CA
:10201A00F070E370EFBBE981EEBB0895AC81BD813E
:10202A008E819F81A03CE7E2BE07E9E08E07E0E0EF
:10203A009E070895EC81FD816E817F81EF5FFF4FDE
:10204A006F4F7F4FEC83FD836E837F8308950E94D9
:10205A00850CA0ED0C948B0C0E948B0C0C94A20C9A
:10206A000E94850CA1ED0E948B0CA1E00E94940CA9
:10207A00A881B981EC93A1E00E94940CAA81BB814A
:10208A00EC9308952A93AD85BE85EF85F889099565
:10209A000895E889F9893497E88BF98B0895AD8515
:1020AA00BE85EF85F88909950895A889B989149696
:1020BA000E943B12EE83FF83AE81BF810895A889F7
:1020CA00B98914960E943B12EA87FB870895DE01BC
:1020DA001C960E94F9110E943B120895109639F03D
:1020EA00A89580ED97E00197F1F71197C9F7089540
:1020FA00552342F4503811F4E0FF04C03196691FA9
:10210A00791F6BF050E8572711F45F93C8C05F3FFF
:10211A0031F0660F000C57956795752F08955F93F8
:10212A0000200AF0C8C0C1C050E8192E1522880F35
:10213A00991F9527550F879550E8072E0522660F98
:10214A00771F7527550F67950895689401C0E8941D
:10215A005F93F2DF703818F07F3F08F4A0C056E1B1
:10216A00571BAAF4519558300EF4593030F0EFEF5E
:10217A00FFEF6FEF7FE777F91AC077275523B9F09A
:10218A00EE0FFF1F661F771F5A95D1F710C07727EA
:10219A00583028F0EF2FF62F672F5850F9CF5523D4
:1021AA0031F076956795F795E7955A95D1F700201E
:1021BA000AF422D15F910895689401C0E894309797
:1021CA0060407040B1F0002426F0772312F40094A6
:1021DA0013D1172E7EE1112032F07A95EE0FFF1FF0
:1021EA00661F111CF9CFEF2FF62F612D5F938ADF3F
:1021FA005F9108954F93AF01FD01DA01AB01BC0174
:10220A00CA01402D012C142E4F910895EA0FFB1F8D
:10221A00681F0895E095F0956095EF5FFF4F6F4F47
:10222A0008955F9381DF903839F1703821F1572F83
:10223A00591B2BF112F4DEDFFACF583118F0AA2716
:10224A00BB278827583028F0AB2FB82F882758503B
:10225A00F9CF552329F08695B795A7955A95D9F7B9
:10226A00502D512572F0D2DF38F46795F795E7952E
:10227A00739513F420C0BEDF45DF5F910895D8F748
:10228A00FBCFEA1BFB0B680B51F010F40094C2DF82
:10229A00662392F3EE0FFF1F661F7A95CBF7EE27A0
:1022AA00FF27662777275F910895EFEFFFEF6FE724
:1022BA007FEF5F910895EFEFFFEF6FE77FE75F91A1
:1022CA0008955F9331DF703851F3903841F3012458
:1022DA000894791F23F41CF300203AF3ECCF0F92F1
:1022EA001F932F933F934F93112722279927689F74
:1022FA00A0018F9F302D410D591F6B9F300D411D3D
:10230A00591F8E9F27D0BF9F25D06A9F23D0BE9F7B
:10231A001DD0AF9F1BD0AE9F110D291F391F491F1A
:10232A00591FE32FF42F652F522F4F913F912F9171
:10233A001F910F9066232AF0550FEE1FFF1F661F8D
:10234A0002C073954BF2D4DE5F910895100D211DE2
:10235A00391F02C0200D311D491F591F08955F936F
:10236A00E3DE703821F411200AF49FCFA4CF90380D
:10237A0009F495CF01240894970B1BF4D4F3002099
:10238A00F3CF792F1F932F933F934F931124112744
:10239A00222733274427552790E2AE17BF0786071F
:1023AA00410730F0AE1BBF0B860B410B089401C0EE
:1023BA008894551F221F331F111CAA1FBB1F881F79
:1023CA00441F9A9551F7F901612D4F913F912F9131
:1023DA001F91662332F0550FEE1FFF1F661F7A9575
:1023EA0043F286DE5F9108950024AF0DB01D089573
:1023FA00F195E195F0400895F09560957095E19515
:10240A00FF4F6F4F7F4F0895EE0FFF1FEE0FFF1F15
:10241A00EE0FFF1F089576956795F795E79508954E
:10242A006F2F660F660B762F08950024112490E112
:10243A00AA0FBB1F001C111C0E1A1F0A18F40E0E3D
:10244A001F1E01C0A1609A9599F7FD01D001089558
:10245A00E894B7FF04C0A095B09511966894F7FD6B
:10246A00C7DFE3DFFD010EF4C3DF0895ED91FC91B0
:10247A00119708950590F491E02D0895E881F98166
:10248A006A817B810895A881B9818A819B81089597
:10249A00E883F9836A837B8308957A936A93FA932C
:1024AA00EA9308955A934A933A932A931A930A936A
:1024BA0008955D814C813B812A81198108810895A3
:00000001FF
