:0C0000000C94D4010C94E3020C9400005A
:10000C000C9400000C9400000C9400000C94000064
:10001C000C9400000C9400000C9400000C94000054
:10002C000C9400000C9400000C9400000C94000044
:10003C000C9400000C9400000C9400000C94000034
:10004C000C9400000C940000000000003738394F6D
:10005C0034353644313233434C30524531203A201A
:10006C005375626D69742053747564656E742043A6
:10007C006F646500202020207072657373206361AB
:10008C006E63656C20746F206261636B00456E74E7
:10009C00657220796F75722073747564656E742047
:1000AC00636F64653A004E756D626572206F6620F1
:1000BC0073747564656E7473203A200050726573A6
:1000CC00732043616E63656C20546F20476F204230
:1000DC0061636B005374617274205472616E736649
:1000EC00657272696E672E2E2E00557361727420C4
:1000FC005472616E736D69742046696E69736865BC
:10010C00640031203A205365617263682053747522
:10011C0064656E7400202020205072657373204338
:10012C00616E63656C20546F204261636B00456E99
:10013C007465722053747564656E7420436F6465C6
:10014C0020466F72205365617263683A00436C6598
:10015C006172696E6720454550524F4D202E2E2EF0
:10016C0000343000496E636F72726563742053758E
:10017C007564656E7420436F646520466F726D61A3
:10018C007400596F752057696C6C204261636B2049
:10019C004D656E7520496E2032205365636F6E6419
:1001AC00004475706C696361746520537575646582
:1001BC006E7420436F646520456E746572656400CF
:1001CC0053747564656E7420436F64652053756356
:1001DC006365737366756C6C792041646465640047
:1001EC0053747564656E7420436F646520466F7537
:1001FC006E6400596F752057696C6C204261636B9B
:10020C00204D656E7520496E2035205365636F6EE9
:10021C0064004F7073202C2053747564656E7420C9
:10022C00436F6465204E6F7420466F756E64005486
:10023C00656D702843293A00313A20417474656E1B
:10024C0064616E636520496E697469616C697A6179
:10025C0074696F6E00323A2053747564656E742045
:10026C004D616E6167656D656E7400333A20566939
:10027C0065772050726573656E7420537475646570
:10028C006E74732000343A2054656D70657261741D
:10029C00757265204D6F6E69746F72696E6700358B
:1002AC003A2052657472696576652053747564657D
:1002BC006E74204461746100363A20547261666633
:1002CC006963204D6F6E69746F72696E670001000F
:1002DC002D4E414E00494E460000040004005400CF
:1002EC0010002F05580018006002680019007802F1
:1002FC0080001900910299001600AA02B2001800A1
:10030C00C002C8001600D802E0001800EE02F60089
:10031C00130006030E011900190321011F003203FB
:10032C003A01140051035901030065036D011E00CD
:10033C00680370011F0086038E011F00A503AD0129
:10034C001F00C4038E012000E303CC011F00030433
:10035C008E0113002204EC011F003504FF011D0067
:10036C0054041E021F007104FF01090090043B029B
:10037C001D00990444021600B60461021A00CC0454
:10038C0077021A00E604910219000005AB02160070
:10039C001905C40201005F05DA020000F894EE278B
:1003AC00ECBBF1E0FBBFEBBFE5BF8DE0A2E0BB27F0
:1003BC00ED938A95E9F780E098E0A0E6ED9301973C
:1003CC00E9F7E6EEF2E085919591009761F0A59141
:1003DC00B59105901590BF01F00105900D92019714
:1003EC00E1F7FB01F0CFEFE5EDBFE8E0EEBFC0E6D3
:1003FC00D2E00C940102E0EFE4BBEFEFE5BBE5B318
:10040C00EF70E5BBE2E0E5BFE0E4EBBF8F9A9798B5
:10041C00A8D2A3E3B0E090D37894A1E08ED2EDD231
:10042C00042C052811F410D3C6C00E946C0669F484
:10043C000E947106A0E6B2E00E947906A8E7B2E03D
:10044C00C5D20E946C06E9F3B6C00E94800661F426
:10045C000E947106A1E9B2E00E9479060E9485060D
:10046C000E948006E9F3A4C00E948D0611F4CAD242
:10047C00A2C00E94920609F047C00E947106AAEA27
:10048C00B2E00E947906A0E0B0E038D35E2F0E9463
:10049C009706E52FF0E00E94A1060E94F5050E9448
:1004AC00A60600E010E0E52FD801F0E0AE17BF077C
:1004BC0014F50E94970620E030E02830E0E03E077B
:1004CC006CF4F901E15CFA4FFF93EF930E94AE06D6
:1004DC00AF91BF91EC932F5F3F4FEFCFAFE3B5E000
:1004EC00A20FB31FE0E0EC930E9471060E94A606D7
:1004FC000F5F1F4FD8CF0E947106A0ECB2E066D2FE
:10050C000E949206E9F357C0E5E0F0E0E415F5052A
:10051C0089F50E947106A8EDB2E058D20E94B70688
:10052C005E2F00E010E0E52FD801F0E0AE17BF071A
:10053C00C4F420E030E02830E0E03E073CF40E94B8
:10054C00AE06AE2FF2D22F5F3F4FF5CFADE0EDD21E
:10055C00ADE0EBD2A4EFB1E00E9412070F5F1F4F8A
:10056C00E2CF0E947106AEEEB2E00E94BB064424BC
:10057C00552421C00E94C10669F40E947106A6E0B0
:10058C00B3E00E947906A9E1B3E020D20E94C10633
:10059C00E9F311C00E94C60671F40E947106A2E331
:1005AC00B3E00E9479060E9485060E94C606E9F314
:1005BC00ACE00E94CB0634CFFFCF0A921A92FA928B
:1005CC006A937A938A939A93AA93BA93EA93FA9337
:1005DC00EFB7EA930E944807EFEE0E94D20611F0A3
:1005EC0000E012C0EFED0E94D20611F001E00CC049
:1005FC00EFEB0E94D20611F002E006C0EFE7E5BB7C
:10060C00E3B3EF701E2F03E01E3011F430E009C08D
:10061C001D3011F431E005C01B3011F432E001C083
:10062C0033E0E5B3EF70E5BB042C052809F056C0A8
:10063C000E94D806EC91F0E0F097E130A0E0FA07C8
:10064C0021F4E1E0F0E02F012CC0E430A0E0FA0747
:10065C0021F4E3E0F0E02F0124C0E330A0E0FA073E
:10066C0021F4E4E0F0E02F011CC0E530A0E0FA0733
:10067C0021F4E5E0F0E02F0114C0E230A0E0FA072D
:10068C0021F4E6E0F0E02F010CC0E930A0E0FA071D
:10069C0041F4F8940E947106A1E5B3E097D114D20D
:1006AC0078940E94D806AC91AC3449F4E0E0E7159C
:1006BC0020F4E72DF0E0319701C0E2E07E2E0E949D
:1006CC00D806AC91A23549F4E72DF0E03196DF0164
:1006DC00E3E0F0E00E943A077E2E1EC10E946C06F9
:1006EC00A9F40E94D806EC91F0E0E334A0E0FA07FC
:1006FC0019F44424552409C0E133A0E0FA0729F485
:10070C000E949706E2E0F0E02F0106C10E948006ED
:10071C0009F089C00E94D806EC91F0E0FA97ACF48D
:10072C000E94E4067F9780F40E94E406E15CFA4F95
:10073C000F010E94D806EC91D001EC930E94E406C4
:10074C000E94E806AC9105D16DC00E94D806AC9110
:10075C00A53409F05FC0F894EFE3F5E0FA93EA935F
:10076C00E5E6F3E0FA93EA93A2E00E945306E03048
:10077C0031F40E94E406E830A0E0FA0769F0979A99
:10078C000E947106A8E6B3E00E947906A6E8B3E0E1
:10079C000E94BB0697983AC0DCD1E03069F0979A7A
:1007AC000E947106A5EAB3E00E947906A4ECB3E0BE
:1007BC000E94BB0697982AC00E94B7062E2F40E0D5
:1007CC0050E04830E0E05E0784F4E22FF0E0319630
:1007DC000E942007E40FF51F0E94A106A40FB51F6D
:1007EC00AC9198D14F5F5F4FECCFE0E0F0E0FA9323
:1007FC00EA93A22FAF5F8ED10E947106A3EEB3E0F5
:10080C000E947906A3E0B4E00E94BB060E94970602
:10081C00789405C00E94D806AC91A33419F4E1E099
:10082C00F0E02F0179C00E948D0641F40E94D80699
:10083C00AC91A33411F4442455246EC00E9492064A
:10084C0041F40E94D806AC91A33411F444245524ED
:10085C0063C00E94C10689F40E94D806AC91A334EF
:10086C0019F44424552408C00E94D806AC91A13335
:10087C0019F4E7E0F0E02F014FC00E94C60609F022
:10088C004BC00E94D806EC91F0E0FA97ACF40E94B1
:10089C00E4067F9780F40E94E406E15CFA4F0F01B6
:1008AC000E94D806EC91D001EC930E94E4060E94C1
:1008BC00E806AC914ED030C00E94D806AC91A5345D
:1008CC0019F5219746D1E883A881A13049F40E94FB
:1008DC007106A2E2B4E00E947906A5E3B4E008C078
:1008EC000E947106A4E5B4E00E947906A1E7B4E089
:1008FC006DD0A8E8B3E10E9412070E949706E6E0CB
:10090C00F0E02F01219608C00E94D806AC91A334C8
:10091C0019F4E6E0F0E02F010E944F072696E991CA
:10092C00EFBFF991E991B991A99199918991799137
:10093C006991F9901990099018950E94ED06C0984C
:10094C000E94F60680E892E00197F1F70E94FD06FE
:10095C00F1C00E94ED06C09A0E94F6060E94FD06A8
:10096C00E9C0EFEFE7BBC29880E09AEF0197F1F78F
:10097C00A3E30E94CB06A2E30E94CB06A8E20E944E
:10098C00CB06ACE00E94CB06A1E0D7DF80E09AEF6B
:10099C000197F1F7A6E00E94CB060895AA9324973D
:1009AC00E0E8E883E0ECE983E4E9EA83E4EDEB8357
:1009BC00EC81F0E03197DE01AE0FBF1FEC91AD8101
:1009CC00AE0FA1500E94CB0626960895BA93AA9317
:1009DC001A9310E0A981BA81EE27A10FBE1FEC91EA
:1009EC00E03049F0A981BA81EE27A10FBE1FAC916E
:1009FC00B0DF1F5FEFCF188196C0E0EEE7B9E7E8F4
:100A0C00E6B9089523971A9310E00E948D06C9F455
:100A1C000E947106A0E9B4E0D9DF369A349BFECF70
:100A2C0015B1E12FF0E0FA93EA93DE0113960E94E0
:100A3C00F505DE011196CADFA4EFB1E00E941207A2
:100A4C00E4CF188124960895042C0528E1F50E9422
:100A5C007106772081F4A9E9B4E00E947906A6EB2F
:100A6C00B4E0B4DF772021F400240414050409F069
:100A7C0001C0F8CF27C0E1E0E71589F4ACECB4E095
:100A8C000E947906A6EEB4E0A1DFE1E0E71521F4BF
:100A9C0000240414050409F001C0F7CF13C0E2E0F0
:100AAC00E71581F4A0E0B5E00E947906A9E1B5E074
:100ABC008DDFE2E0E71521F400240414050409F0AD
:100ACC0001C0F7CFC1CF08951A930A9300E010E04C
:100ADC000030E4E01E0778F4E199FECFE12FF070CE
:100AEC00E370EFBBE02FEEBBE0E0EDBBE29AE19AE6
:100AFC000F5F1F4FEDCF099119910895BA93AA93E7
:100B0C001A93E199FECF0E940B07E09A1DB3E12FD7
:100B1C00188109C0AA93E199FECF0E940B07E881C6
:100B2C00EDBBE29AE19A23960895AA935D9BFECFC2
:100B3C00E881ECB921960895BA93AA93E881E9B9B2
:100B4C00E981F070E0BDE8E1EAB9E6E0E0BD2296AB
:100B5C000895A0970E944A070E94B7061E2F00E036
:100B6C000117C0F5FE013496FA93EA93E0E0EA939C
:100B7C00A0E2B0E00E94230630E03830B8F4E32F56
:100B8C00F0E0DE011496EA0FFB1FFF93EF93A32F07
:100B9C00BB27E02FF0E031960E942007AE0FBF1F5D
:100BAC00ADDFAF91BF91EC933F5FE7CFE32FF0E068
:100BBC00DE011496AE0FBF1FE0E0EC93FE013496FD
:100BCC000E94A1060E943306E03011F4E1E003C05C
:100BDC000F5FC6CFE0E00E945107A4960895BA9328
:100BEC00AA93A991B991E991F99130962AF4E095DB
:100BFC00F09531966DE26D93E89480E197E20DD01B
:100C0C0088EE93E00AD084E6992707D08AE005D0D5
:100C1C006E2F10D066276C9308956627E817F90796
:100C2C0020F06395E81BF90BC9F7662311F416F055
:100C3C0008956894605D6D930895BA93AA93B981F1
:100C4C00A881109631F0FC81EB816A816193119738
:100C5C00E9F7EB81FC8125960895BA93AA93E99163
:100C6C00F991A991B9916D917191671721F466234E
:100C7C00D1F7EE270895671BE1F3E1E008F4E250A9
:100C8C000895BA93AA93A991B991EE27FF276D9174
:100C9C00662311F03196FBCF0895AA936627772728
:100CAC008991E991F991A991B991882349F08A9593
:100CBC006D917191671721F46623B9F7EE270895AA
:100CCC00671BE1F3E1E008F4E2500895E1E0F0E0A5
:100CDC00E415F5050895A1E00E94A304E1E0EA9370
:100CEC00A1E00C94D4040E94EC04E1E0EA93A2E0AD
:100CFC000C94D404E2E0F0E0E415F5050895AFE0BF
:100D0C000E94A30480E89CE00197F1F70895E3E0CA
:100D1C00F0E0E415F5050895E4E0F0E0E415F505E0
:100D2C000895EFE3F5E0FA93EA93E0E0EA93A0E2AA
:100D3C00B0E00C942306FA93EA93AFE3B5E0089580
:100D4C00AFE3B5E00E94EC04A8EEB3E00C941207FC
:100D5C00F80131960E942007E20FF31FDF010C947B
:100D6C008405A0E0B0E00C9484050E94EC04A0ED96
:100D7C00B7E00C941207E6E0F0E0E415F5050895F1
:100D8C00E7E0F0E0E415F50508950E94A30480E87F
:100D9C009CE00197F1F70895E5BBE3B3EF701E2FCC
:100DAC001F300895E02FAFE2B5E0F0E00E9422077B
:100DBC00AE0FBF1FEE27A30FBE1F0895AFE3B5E024
:100DCC000C944706E05CFA4FA0E0A083EBCFAA930B
:100DDC00E8B3EF70AE2FE881E07FEA2BE8BB089513
:100DEC00C198C29A8BE28A95F1F7C2980895E8B33C
:100DFC00EF70AE2FE881E295E07FEA2BE8BBC29A58
:100E0C008BE28A95F1F7C2980895EA81F070E3704D
:100E1C00EFBBE981EEBB0895109639F0A89580EDF3
:100E2C0097E00197F1F71197C9F70895F195E195BE
:100E3C00F0400895EE0FFF1FEE0FFF1FEE0FFF1F88
:100E4C0008950024112490E1AA0FBB1F001C111C53
:100E5C000E1A1F0A18F40E0E1F1E01C0A1609A95DF
:100E6C0099F7FD01D0010895E894B7FF04C0A0954F
:100E7C00B09511966894F7FDD9DFE3DFFD010EF410
:100E8C00D5DF08955A934A933A932A931A930A9367
:100E9C0008955D814C813B812A81198108810895D7
:00000001FF
