:0E0000000C941A010C941E020C9400000C9437
:10000E0000000C9400000C9400000C9400000C9462
:10001E0000000C9400000C9400000C9400000C9452
:10002E0000000C9400000C9400000C9400000C9442
:10003E0000000C9400000C9400000C9400000C9432
:10004E0000000C94000000003738394F3435364428
:10005E00313233434C305245313A7375626D6974A7
:10006E002073747564656E7420636F6465007072BE
:10007E006573732063616E63656C20746F206261BB
:10008E00636B00456E74657220796F7572207374A0
:10009E007564656E7420636F64653A004E756D62AB
:1000AE006572206F662073747564656E7473203A82
:1000BE00200050726573732063616E63656C2074EB
:1000CE006F20676F206261636B00537461727420DE
:1000DE005472616E7366657272696E672E2E2E0093
:1000EE005573617274205472616E736D69742066FB
:1000FE00696E697368656400636C656172696E67C9
:10010E0020656570726F6D202E2E2E0054656D70F9
:10011E002843293A00313A20417474656E64616E49
:10012E00636520496E697469616C697A6174696F7F
:10013E006E00323A2053747564656E74204D616E94
:10014E006167656D656E7400333A20566965772078
:10015E0050726573656E742053747564656E747336
:10016E002000343A2054656D706572617475726545
:10017E00204D6F6E69746F72696E6700353A20524A
:10018E00657472696576652053747564656E742046
:10019E004461746100363A20547261666669632068
:1001AE004D6F6E69746F72696E67000001002D4E9F
:1001BE00414E00494E46000002000400540010005B
:1001CE00B3035600160060026600150076027C002E
:1001DE0019008B0291001600A402AA001800BA02A0
:1001EE00C0001600D202D8001800E802EE0014007B
:1001FE0000030601090014031A011D001D0323014B
:10020E0016003A0340011A00500356011A006A0301
:10021E007001190084038A0116009D03A3010100D9
:10022E00E303BA010000F894EE27ECBBF1E0FBBF4C
:10023E00EBBFE5BF8DE0A2E0BB27ED938A95E9F712
:10024E0080E098E0A0E6ED930197E9F7E6ECF1E0A7
:10025E0085919591009761F0A591B59105901590B6
:10026E00BF01F00105900D920197E1F7FB01F0CF70
:10027E00EFE5EDBFE8E0EEBFC0E6D2E00C945A0128
:10028E00BA93AA93E881E9B9E981F070E0BDE8E19B
:10029E00EAB9E6E0E0BD22960895AA935D9BFECFF3
:1002AE00E881ECB9DDC1E0EFE4BBEFEFE5BBE5B310
:1002BE00EF70E5BBE2E0E5BFE0E4EBBFD3D1A3E333
:1002CE00B0E0DEDF7894A1E0AFD118D2042C05287F
:1002DE0011F43BD2AAC00E94630469F40E94680420
:1002EE00A0E6B2E00E947004A6E7B2E0F0D10E9450
:1002FE006304E9F39AC00E94770481F40E946804B3
:10030E00ABE8B2E00E947004AFE00E947C040E9451
:10031E007704E9F3ACE00E947C0487C00E9483045A
:10032E0011F4F1D182C00E94880409F049C00E94E4
:10033E006804A4EAB2E00E947004A0E0B0E05BD2D0
:10034E005E2F0E948D04E52FF0E0FA93EA93A3EC62
:10035E00B3E00E9419040E94970400E010E0E52F1C
:10036E00D801F0E0AE17BF0714F50E948D0420E00F
:10037E0030E02830E0E03E076CF4F901ED53FC4F1D
:10038E00FF93EF930E949F04AF91BF91EC932F5F69
:10039E003F4FEFCFA3ECB3E0A20FB31FE0E0EC931F
:1003AE000E9468040E9497040F5F1F4FD8CF0E94CF
:1003BE006804AAEBB2E08BD10E948804E9F335C041
:1003CE00E5E0F0E0E415F50581F50E946804A2ED84
:1003DE00B2E07DD1A0E0B0E00ED25E2F00E010E0E2
:1003EE00E52FD801F0E0AE17BF07B4F420E030E0FF
:1003FE002830E0E03E073CF40E949F04AE2F4DDF14
:10040E002F5F3F4FF5CFACE248DFA4EFB1E00E9483
:10041E00F3040F5F1F4FE4CF0E946804A8EEB2E012
:10042E0056D10E94A8044424552450CFFFCF0A92DF
:10043E001A92FA926A937A938A939A93AA93BA9398
:10044E00EA93FA93EFB7EA930E942905EFEE0E9422
:10045E00AC0411F000E012C0EFED0E94AC0411F0FC
:10046E0001E00CC0EFEB0E94AC0411F002E006C0FC
:10047E00EFE7E5BBE3B3EF701E2F03E01E3011F480
:10048E0030E009C01D3011F431E005C01B3011F40D
:10049E0032E001C033E0E5B3EF70E5BB042C052874
:1004AE0081F50E94B204F097E130A0E0FA0721F442
:1004BE00E1E0F0E02F0124C0E430A0E0FA0721F4DF
:1004CE00E3E0F0E02F011CC0E330A0E0FA0721F4D6
:1004DE00E4E0F0E02F0114C0E530A0E0FA0721F4CB
:1004EE00E5E0F0E02F010CC0E930A0E0FA0741F49E
:1004FE00F8940E946804A0E0B3E0E9D062D1789449
:10050E0082C00E94630499F40E94B204E334A0E016
:10051E00FA0719F44424552409C0E133A0E0FA0780
:10052E0029F40E948D04E2E0F0E02F016CC00E94DD
:10053E00770409F053C00E94B204FA97CCF40E94DB
:10054E00C0047F97A0F40E94C004ED53FC4F0F012E
:10055E000E94C404EC91D001EC930E94C004EC53B1
:10056E00FC4FA0E0A0830E94C404AC9167D035C0BC
:10057E000E94C404AC91A53441F5A0E0B0E03BD19B
:10058E002E2F40E050E04830E0E05E0794F4E22F7A
:10059E00F0E031960E940105E40FF51FFA93EA93FD
:1005AE00A3ECB3E0A40FB51FAC9131D14F5F5F4FF9
:1005BE00EACFE0E0F0E0FA93EA93A22FAF5F27D103
:1005CE000E948D044424552408C00E94C404AC919A
:1005DE00A33419F4E1E0F0E02F0115C00E9483046A
:1005EE0041F40E94C404AC91A33411F44424552464
:1005FE000AC00E94880439F40E94C404AC91A3344A
:10060E0011F4442455240E9430052696E991EFBF3B
:10061E00F991E991B991A9919991899179916991FC
:10062E00F9901990099018950E94D004C0980E94D4
:10063E00D90480E491E00197F1F705C00E94D0043F
:10064E00C09A0E94D904E8B3EF70AE2FE881E2950C
:10065E00E07FEA2BE8BBC29A85E18A95F1F7C29852
:10066E0021960895EFEFE7BBC29880E09DE70197D2
:10067E00F1F7A3E30E94E004A2E30E94E004A8E2E3
:10068E000E94E004ACE00E94E004A1E0CDDF80E037
:10069E009DE70197F1F7A6E00E94E0040895AA9362
:1006AE002497E0E8E883E0ECE983E4E9EA83E4ED0B
:1006BE00EB83EC81F0E03197DE01AE0FBF1FEC91C2
:1006CE00AD81AE0FA1500E94E00426960895BA9314
:1006DE00AA931A9310E0A981BA81EE27A10FBE1F2B
:1006EE00EC91E03049F0A981BA81EE27A10FBE1F2F
:1006FE00AC91A4DF1F5FEFCF188192C0E0EEE7B997
:10070E00E7E8E6B9089523971A9310E00E94830450
:10071E00C9F40E946804A4E1B3E0D9DF369A349B91
:10072E00FECF15B1E12FF0E0FA93EA93DE011396B6
:10073E000E941904DE011196CADFA4EFB1E00E94F7
:10074E00F304E4CF1881249608951A9310E0042C34
:10075E000528A9F50E946804103061F4ADE1B3E0FC
:10076E000E947004AAE3B3E00E94E70411F40E9411
:10077E00A8041BC0113061F4A0E5B3E00E94700420
:10078E00AAE6B3E00E94E70411F40E94A8040DC08B
:10079E001230A1F4A4E8B3E00E947004ADE9B3E016
:1007AE000E94E70411F40E94A804E12FF0E03196B4
:1007BE00DF01E3E0F0E00E941B051E2FC8CF199168
:1007CE0008951A930A9300E010E00030E4E01E074B
:1007DE0078F4E199FECFE12FF070E370EFBBE02FDC
:1007EE00EEBBE0E0EDBBE29AE19A0F5F1F4FEDCF5B
:1007FE00099119910895BA93AA931A93E199FECF8C
:10080E000E94EC04E09A1DB3E12F188109C0AA934F
:10081E00E199FECF0E94EC04E881EDBBE29AE19AE9
:10082E0023960895BA93AA93A991B991E991F99152
:10083E0030962AF4E095F09531966DE26D93E8943A
:10084E0080E197E20DD088EE93E00AD084E69927F6
:10085E0007D08AE005D06E2F10D066276C930895CE
:10086E006627E817F90720F06395E81BF90BC9F71F
:10087E00662311F416F008956894605D6D930895E3
:10088E00BA93AA93B981A881109631F0FC81EB81BD
:10089E006A8161931197E9F7EB81FC8125960895A2
:1008AE00BA93AA93A991B991EE27FF276D9166236A
:1008BE0011F03196FBCF0895E1E0F0E0E415F50577
:1008CE000895A1E00E941B03E1E0EA93A1E00C94DD
:1008DE0056030E946E03E1E0EA93A2E00C945603E5
:1008EE00E2E0F0E0E415F50508950E941B0380E4B4
:1008FE0096E00197F1F70895E3E0F0E0E415F505D1
:10090E000895E4E0F0E0E415F5050895E3ECF3E076
:10091E00FA93EA93E0E0EA93A0E2B0E00C94470485
:10092E00A3ECB3E00E946E03A8EEB3E00C94F304C4
:10093E00F80131960E940105E20FF31FDF010C94BE
:10094E000204A0EDB7E00C94F304E5BBE3B3EF7043
:10095E001E2F1F300895E02FA3EBB3E0F0E00E94AE
:10096E000305AE0FBF1FEE27A30FBE1FEC91F0E0E5
:10097E000895A3ECB3E00C945704E02FA3EBB3E07F
:10098E00F0E00E940305AE0FBF1FEE27A30FBE1FA0
:10099E000895AA93E8B3EF70AE2FE881E07FEA2BBB
:1009AE00E8BB0895C198C29A85E18A95F1F7C2987D
:1009BE0008950E941B0380E092E30197F1F70895DA
:1009CE000E946E03042C05280895EA81F070E370EE
:1009DE00EFBBE981EEBB0895109639F0A89580ED36
:1009EE0097E00197F1F71197C9F70895F195E19501
:1009FE00F0400895EE0FFF1FEE0FFF1FEE0FFF1FCB
:100A0E0008950024112490E1AA0FBB1F001C111C95
:100A1E000E1A1F0A18F40E0E1F1E01C0A1609A9521
:100A2E0099F7FD01D0010895E894B7FF04C0A09591
:100A3E00B09511966894F7FDD9DFE3DFFD010EF452
:100A4E00D5DF08955A934A933A932A931A930A93A9
:100A5E0008955D814C813B812A8119810881089519
:00000001FF
