:0A0000000C94AB000C9410010C945A
:10000A0000000C9400000C9400000C9400000C9466
:10001A0000000C9400000C9400000C9400000C9456
:10002A0000000C9400000C9400000C9400000C9446
:10003A0000000C9400000C9400000C9400000C9436
:10004A0000000C9400000C94000000003738394F6F
:10005A0034353644313233434C305245313A737574
:10006A00622073746420636F64650063616E636504
:10007A006C3A206261636B00456E74657220796F19
:10008A00757220636F64653A0054656D7028432960
:10009A003A00313A20617474656E6420696E69743D
:1000AA0000323A20737464206D616E6167650033B3
:1000BA003A2070726573656E742073746400343A02
:1000CA0020636865636B2074656D7000353A6765F7
:1000DA007420737464206461746100363A20747207
:1000EA006166666963206D6F6E69746F72200000C5
:1000FA0001002D4E414E00494E4600000200040008
:10010A0054001000F30256000F00600266000D0052
:10011A006F02750011007C02820009008D029300B3
:10012A000F0096029C000E00A502AB000F00B3025E
:10013A00B9000E00C202C8000F00D002D600140097
:10014A00DF02E50001000303FA000000F894EE273D
:10015A00ECBBF1E0FBBFEBBFE5BF8DE0A2E0BB2744
:10016A00ED938A95E9F780E098E0A0E6ED93019790
:10017A00E9F7E6E0F1E085919591009761F0A591A4
:10018A00B59105901590BF01F00105900D92019768
:10019A00E1F7FB01F0CFEFE5EDBFE8E0EEBFC0E627
:1001AA00D2E00C94D800E0EFE4BBEFEFE5BBE5B397
:1001BA00EF70E5BBE2E0E5BFE0E4EBBFDED07894A8
:1001CA00A1E0BED027D1042C052811F44AD121C0C0
:1001DA000E94A00269F40E94A502A0E6B2E00E9471
:1001EA00AD02AFE6B2E0FED00E94A002E9F311C070
:1001FA000E94B40251F40E94A502ACE7B2E00E9448
:10020A00AD020E94B402E9F304C00E94B90209F4E3
:10021A0006D1D9CFFFCF0A921A92FA926A937A93A9
:10022A008A939A93AA93BA93EA93FA93EFB7EA93C3
:10023A000E943303EFEE0E94BE0211F000E012C0EA
:10024A00EFED0E94BE0211F001E00CC0EFEB0E943C
:10025A00BE0211F002E006C0EFE7E5BBE3B3EF70C0
:10026A001E2F03E01E3011F430E009C01D3011F4D6
:10027A0031E005C01B3011F432E001C033E0E5B3D0
:10028A00EF70E5BB042C052899F40E94C402F0978C
:10029A00E130A0E0FA0721F4E1E0F0E02F0107C025
:1002AA00E430A0E0FA0719F4E3E0F0E02F0137C0E8
:1002BA000E94A00289F40E94C402E334A0E0FA0773
:1002CA0019F44424552407C0E133A0E0FA0719F4CD
:1002DA00E2E0F0E02F0123C00E94B402B9F40E94C8
:1002EA00C402FA9724F40E94D20233D00EC00E94AC
:1002FA00D202A53419F44424552407C00E94D2021C
:10030A00A33419F4E1E0F0E02F0109C00E94B90218
:10031A0031F40E94D202A33411F4442455240E94D9
:10032A0038032496E991EFBFF991E991B991A9911E
:10033A009991899179916991F990199009901895F3
:10034A000E94DF02C0980E94E80285E38A95F1F7CD
:10035A0005C00E94DF02C09A0E94E802E8B3EF706B
:10036A00AE2FE881E295E07FEA2BE8BBC29A83E0F0
:10037A008A95F1F7C29821960895EFEFE7BBC298E4
:10038A0080EA9FE00197F1F7A3E30E94EF02A2E35C
:10039A000E94EF02A8E20E94EF02AEE00E94EF0282
:1003AA00A1E0CEDF80EA9FE00197F1F7A6E00E9484
:1003BA00EF020895AA932497E0E8E883E0ECE98342
:1003CA00E4E9EA83E4EDEB83EC81F0E03197DE01C6
:1003DA00AE0FBF1FEC91AD81AE0FA1500E94EF028C
:1003EA0026960895BA93AA931A9310E0A981BA811E
:1003FA00EE27A10FBE1FEC91E03049F0A981BA8126
:10040A00EE27A10FBE1FAC91A4DF1F5FEFCF1881AB
:10041A0023960895E0EEE7B9E7E8E6B90895239749
:10042A001A9310E00E94B902C9F40E94A502ADE82D
:10043A00B2E0D8DF369A349BFECF15B1E12FF0E057
:10044A00FA93EA93DE0113960E947202DE01119674
:10045A00C9DFA4E6B0E00E94FF02E4CF1881249627
:10046A0008951A9310E0042C0528A9F50E94A50204
:10047A00103061F4A6E9B2E00E94AD02A5EAB2E04A
:10048A000E94F60211F40E94FB021BC0113061F4B3
:10049A00A3EBB2E00E94AD02A2ECB2E00E94F60227
:1004AA0011F40E94FB020DC01230A1F4A0EDB2E0DB
:1004BA000E94AD02AFEDB2E00E94F60211F40E9472
:1004CA00FB02E12FF0E03196DF01E3E0F0E00E9469
:1004DA0025031E2FC8CF19910895BA93AA93A991FB
:1004EA00B991E991F99130962AF4E095F09531960F
:1004FA006DE26D93E89480E197E20DD088EE93E087
:10050A000AD084E6992707D08AE005D06E2F10D04A
:10051A0066276C9308956627E817F90720F0639514
:10052A00E81BF90BC9F7662311F416F008956894CD
:10053A00605D6D930895E1E0F0E0E415F505089536
:10054A00A1E00E94A501E1E0EA93A1E00C94DF0199
:10055A000E94F701E1E0EA93A2E00C94DF01E2E0F5
:10056A00F0E0E415F5050895E3E0F0E0E415F5059B
:10057A000895E5BBE3B3EF701E2F1F300895E02FF7
:10058A00A3EFB2E0F0E00E940D03AE0FBF1FEE270B
:10059A00A30FBE1FEC91F0E00895E02FA3EFB2E0A5
:1005AA00F0E00E940D03AE0FBF1FEE27A30FBE1F80
:1005BA00AC910895AA93E8B3EF70AE2FE881E07F7B
:1005CA00EA2BE8BB0895C198C29A83E08A95F1F7AD
:1005DA00C29808950E94A50180E496E00197F1F778
:1005EA0008950E94F701042C05280895AAEFB0E0A7
:1005FA000C94FF02109639F0A89580ED97E00197C8
:10060A00F1F71197C9F70895F195E195F04008952A
:10061A00EE0FFF1FEE0FFF1F08950024112490E133
:10062A00AA0FBB1F001C111C0E1A1F0A18F40E0E6B
:10063A001F1E01C0A1609A9599F7FD01D001089586
:10064A00E894B7FF04C0A095B09511966894F7FD99
:10065A00DBDFE3DFFD010EF4D7DF08953A932A9337
:10066A001A930A9308953B812A8119810881089572
:00000001FF
